:020000040800F2
:1000000000000220B5270008910D0008930D00089C
:10001000950D0008970D0008990D000800000000DC
:100020000000000000000000000000009B0D000820
:100030009D0D0008000000009F0D0008A10D0008A4
:1000400005280008052800080528000805280008DC
:1000500005280008052800080528000805280008CC
:1000600005280008052800080528000805280008BC
:1000700005280008052800080528000805280008AC
:10008000052800080528000805280008052800089C
:10009000052800080528000805280008052800088C
:1000A000052800080528000805280008052800087C
:1000B000052800080528000805280008052800086C
:1000C000052800080528000805280008052800085C
:1000D000052800080528000805280008052800084C
:1000E000052800080528000805280008052800083C
:1000F000052800080528000805280008052800082C
:10010000052800080528000805280008052800081B
:10011000052800080528000805280008052800080B
:1001200005280008052800080528000805280008FB
:100130000528000800000000000000000528000855
:1001400005280008052800080528000805280008DB
:1001500005280008052800080528000805280008CB
:1001600005280008052800080528000805280008BB
:1001700005280008052800080528000800000000E0
:10018000000000000528000800000000000000003A
:1001900005280008000000000000000005280008F5
:1001A000000000000000000000000000052800081A
:1001B000052800080528000805280008052800086B
:0401C0000528000806
:1001C40010B5054C237833B9044B13B10448AFF38D
:1001D40000800123237010BD68000020000000008F
:1001E4006C30000808B5034B1BB103490348AFF357
:1001F400008008BD000000006C0000206C30000886
:1002040053B94AB9002908BF00281CBF4FF0FF3179
:100214004FF0FF3000F06AB9ADF1080C6DE904CE7F
:1002240000F006F8DDF804E0DDE9022304B07047CD
:100234002DE9F047089D0C46002B4ED194468C4581
:100244008646B2FA82F262D94AB1C2F120039140E1
:1002540020FA03F30CFA02FC194300FA02FE4FEAF7
:100264001C471FFA8CF6B1FBF7F44FEA1E4307FB59
:10027400141143EA014304FB06F199420AD91CEB29
:10028400030304F1FF3080F01281994240F20F81A0
:10029400023C6344591A1FFA8EF3B1FBF7F007FBD3
:1002A400101143EA014300FB06F69E420AD91CEBF7
:1002B400030300F1FF3180F0FC809E4240F2F9809C
:1002C400634402389B1B40EA044000211DB1D34023
:1002D4000022C5E90032BDE8F0878B4205D90DB193
:1002E400C5E9000100210846F5E7B3FA83F10029C6
:1002F40046D1A34202D39042C0F0F080861A64EB48
:1003040003030120002DE6D0C5E90063E3E7002ADA
:1003140040F09080A1EB0C044FEA1C481FFA8CF7C4
:100324000121B4FBF8F64FEA1E4308FB164443EAE6
:10033400044307FB06F0984208D91CEB030306F1BB
:10034400FF3402D2984200F2CD8026461C1A1FFACE
:100354008EF3B4FBF8F008FB104443EA044300FBBB
:1003640007F79F4208D91CEB030300F1FF3402D2C4
:100374009F4200F2B0802046DB1B40EA0640A5E71E
:10038400C1F120068B4022FA06F71F4320FA06FC2F
:1003940004FA01F343EA0C03F44000FA01F8380CC0
:1003A4004FEA1349B4FBF0FE1FFA87FC00FB1E441E
:1003B40049EA04440EFB0CF9A14502FA01F20AD9F8
:1003C4003C190EF1FF3A80F08480A14540F281800F
:1003D400AEF1020E3C44A4EB09041FFA83F9B4FB0A
:1003E400F0F300FB134449EA044403FB0CFCA4456A
:1003F40007D93C1903F1FF3067D2A44565D9023B04
:100404003C4443EA0E40A0FB0293A4EB0C049C4240
:10041400CE469C4651D34ED055B1B8EB0E0364EB97
:100424000C0404FA06F6CB401E43CC40C5E9006434
:10043400002150E7C2F1200320FA03F10CFA02FC78
:1004440024FA03F394400C434FEA1C4800FA02FEDA
:100454001FFA8CF7B3FBF8F008FB1031230C43EAC6
:10046400014300FB07F1994208D91CEB030300F197
:10047400FF362CD299422AD9023863445B1AA4B2BB
:10048400B3FBF8F108FB113344EA034401FB07F31F
:10049400A34208D91CEB040401F1FF3613D2A34292
:1004A40011D902396444E41A41EA004139E70446A7
:1004B400F0E6084606E7C845AED2B9EB020E63EB98
:1004C400070C0138A8E73146EDE7034699E73046C3
:1004D400D4E7D6467FE7634402384DE70646234611
:1004E40008460FE7023E634430E700BF704700BF91
:1004F40010B514460A2392B2024802F0AAF8204624
:1005040010BD00BFEC01002072B6FEE700B595B047
:100514003422002107A802F019FB0023029303935D
:100524000493059306930093204A116C41F0805183
:100534001164126C02F080520092009A01931C4ADA
:10054400136823F4404343F480431360136803F4B3
:1005540040430193019B012307934FF48033089395
:1005640002230D934FF480020E9208220F92502220
:10057400109211931293139307A800F063FF80B9AC
:100584000F23029302210391002304934FF4805319
:100594000593069302A800F0BDFD20B915B05DF8DF
:1005A40004FBFFF7B1FFFFF7AFFF00BF00380240C5
:1005B4000070004070B52E4B1B680021986802F053
:1005C40020F901F0E7FAFFF7A1FF00F059F800F075
:1005D40001FA00F0E5FA00F0CBF800F041FB00F07E
:1005E40059FB00F087FA234C0021204601F0E0FD7E
:1005F4000421204601F0DCFD0821204601F0D8FD4D
:100604000C21204601F0D4FD1B4D0821284601F0A1
:10061400CFFD0C21194801F0CBFD2B6840F6C41620
:10062400DE63642001F0E2FA2B680024DC636420BA
:1006340001F0DCFA2B68DE63642001F0D7FA2B6842
:10064400DC63642001F0D2FA06E00C4B1B681C64E6
:10065400042001F0CBFA0134B4F5967FF5DB054BA9
:100664001B6800225A639A63DA631A64F7E700BFCF
:10067400180000205C01002014010020CC000020A0
:10068400F0B58BB00024059406940794089409945B
:100694000094334B1A6B42F080021A631A6B02F017
:1006A40080020092009A01941A6B42F004021A63C9
:1006B4001A6B02F004020192019A02941A6B42F03E
:1006C40001021A631A6B02F001020292029A039465
:1006D4001A6B42F002021A631A6B02F002020392CE
:1006E400039A04941A6B42F008021A631B6B03F01A
:1006F40008030493049B1B4F22460421384601F04F
:10070400B3F9194D22464FF47471284601F0ACF93F
:100714004FF4805305930694079405A9134801F0F8
:10072400B3F804230593012606960794089405A9B3
:10073400384601F0A9F8282305930694079405A9DF
:10074400284601F0A1F84FF47473059306960794B4
:10075400089405A9284601F097F80BB0F0BD00BF36
:1007640000380240000C024000040240000802402D
:1007740000B585B0002300930193029303931448BA
:10078400144A0260436083600361037680F820307A
:10079400C362114A8262C3600122C26180F83030B0
:1007A400426100F0B5FB60B900230093012201927D
:1007B40002936946064800F0D7FB28B905B05DF8F6
:1007C40004FBFFF7A1FEEFE7FFF79EFEF6E700BF8D
:1007D40084000020002001400100000F30B58BB0E0
:1007E400002305930693079308930993026803F182
:1007F400804303F590339A4201D00BB030BD0024FE
:10080400019403F58C335A6C42F480725A645A6C26
:1008140002F480720192019A02941A6B42F004026B
:100824001A631A6B02F004020292029A03941A6B7E
:1008340042F001021A631A6B02F001020392039A56
:1008440004941A6B42F002021A631B6B03F0020356
:100854000493049B0F2305930325069505A90948D2
:1008640001F012F8FF2305930695079405A906489D
:1008740001F00AF805950695079405A9034801F0C7
:1008840003F8BAE7000802400000024000040240F6
:1008940084B00368184A934207D0B3F1804F11D053
:1008A400164A93421BD004B0704700230193144BA3
:1008B4005A6C42F001025A645B6C03F00103019329
:1008C400019BF0E7002302930D4B1A6C42F00102E6
:1008D4001A641B6C03F001030293029BE3E70023F9
:1008E4000393074B1A6C42F002021A641B6C03F068
:1008F40002030393039BD6E7000001400004004079
:100904000038024000B589B0002303930493059393
:10091400069307930368294A934208D0B3F1804FA2
:100924001DD0274A934232D009B05DF804FB00235E
:100934000093244B1A6B42F001021A631B6B03F001
:1009440001030093009B4FF4706303930223049309
:100954000123079303A91C4800F096FFE4E7002352
:100964000193184B1A6B42F002021A631B6B03F0DB
:1009740002030193019B4FF48063039302230493C6
:100984000123079303A9114800F07EFFCCE700235D
:1009940002930C4B1A6B42F004021A631B6B03F0B4
:1009A40004030293029B4FF44073039302230493C2
:1009B400079303A9064800F067FFB5E7000001406C
:1009C40000040040003802400000024000040240DD
:1009D4000008024010B596B00024129413941494A5
:1009E40015941094119409940A940B940C940D94F6
:1009F4000E940F942022214601A802F0A7F83B4848
:100A04003B4B03604460846040F6C313C3600461DD
:100A14004461846101F032FA00284BD14FF48053D1
:100A2400129312A9314801F034FB002845D12F4814
:100A340001F050FA002843D100231093119310A918
:100A44002A4801F037FC00283DD160230993002295
:100A54000A920B920C920D920E920F9209A92348BE
:100A640001F09CFA002831D1042209A91F4801F0A1
:100A740095FA70BB082209A91C4801F08FFA58BBEB
:100A84000C2209A9194801F089FA40BB00230193FB
:100A940002930393049305934FF400520692089330
:100AA40001A9124801F04CFCE0B91048FFF72AFFF5
:100AB40016B010BDFFF728FDB0E7FFF725FDB6E738
:100AC400FFF722FDB8E7FFF71FFDBEE7FFF71CFDA8
:100AD400CAE7FFF719FDCDE7FFF716FDD0E7FFF7EB
:100AE40013FDD3E7FFF710FDDFE700BF5C01002033
:100AF4000000014000B58FB000230A930B930C93C0
:100B04000D9308930993019302930393049305931C
:100B14000693079321484FF0804202600922426005
:100B2400836042F20F72C2600361836101F0A6F92F
:100B340028BB4FF480530A930AA9184801F0A9FA74
:100B440000BB164801F0C6F9F8B9002308930993CD
:100B540008A9124801F0AEFBD0B960230193002329
:100B6400029303930593082201A90C4801F016FA95
:100B740088B90A48FFF7C6FE0FB05DF804FBFFF71B
:100B8400C3FCD6E7FFF7C0FCDBE7FFF7BDFCDCE7FF
:100B9400FFF7BAFCE1E7FFF7B7FCEAE7140100202E
:100BA40000B58FB000230A930B930C930D93089315
:100BB4000993019302930393049305930693079374
:100BC4002548264A02604360836040F2E732C260EF
:100BD4000361836101F052F958BB4FF480530A93C7
:100BE4000AA91D4801F055FA30BB1B4801F072F9FF
:100BF40028BB00230893099308A9174801F05AFB5E
:100C040000BB6023019300230293039305930822FE
:100C140001A9114801F0C2F9B8B90C2201A90E4882
:100C240001F0BCF9A0B90C48FFF76CFE0FB05DF8F9
:100C340004FBFFF769FCD0E7FFF766FCD5E7FFF795
:100C440063FCD6E7FFF760FCDBE7FFF75DFCE4E756
:100C5400FFF75AFCE7E700BFCC0000200004004087
:100C640008B50A480A4B03604FF4E133436000239C
:100C74008360C36003610C2242618361C36101F03C
:100C8400B2FC00B908BDFFF73FFCFBE7EC01002014
:100C9400004C004008B50A480A4B03604FF4E133A6
:100CA400436000238360C36003610C22426183615B
:100CB400C36101F068FC00B908BDFFF725FCFBE740
:100CC400A40100200014014000B58BB0002305935B
:100CD40006930793089309930368284A934205D01F
:100CE400274A934226D00BB05DF804FB0021019102
:100CF400244B1A6C42F400221A641A6C02F4002287
:100D04000192019A02911A6B42F004021A631B6B5E
:100D140003F004030293029B4FF4806305931223B0
:100D24000693032308930823099305A9164800F0A2
:100D3400ABFDD8E700210391124B5A6C42F020021C
:100D44005A645A6C02F020020392039A04911A6BBB
:100D540042F004021A631B6B03F004030493049B24
:100D6400C0230593022306930323089308230993BE
:100D740005A9054800F088FDB5E700BF004C004018
:100D8400001401400038024000080240FEE7FEE77C
:100D9400FEE7FEE7FEE770477047704708B500F0CE
:100DA40013FF08BD82B0002100910B4B5A6C42F432
:100DB40080425A645A6C02F480420092009A019173
:100DC4001A6C42F080521A641B6C03F08053019336
:100DD400019B02B0704700BF003802404A4B5A687A
:100DE40022F440325A605A6841680A435A600268E1
:100DF400536823F48073536002685368016943EABB
:100E0400012353600268536823F0407353600268FF
:100E1400536881680B4353600268936823F400634A
:100E2400936002689368C1680B439360826A374B8E
:100E34009A4257D00268936823F070639360026803
:100E44009368816A0B4393600268936823F040536C
:100E5400936002689368C16A0B4393600268936865
:100E640023F00203936002689368017E43EA41031E
:100E7400936090F82030002B3FD00268536843F40D
:100E8400006353600268536823F46043536001684D
:100E94004B68426A013A43EA42334B600268D36AC0
:100EA40023F47003D3620168CB6AC269013A43EA4E
:100EB4000253CB620268936823F400739360026860
:100EC400936890F8301043EA412393600268936872
:100ED40023F48063936002689368416943EA812341
:100EE400936070470268936823F0706393600268AC
:100EF400936823F040539360B0E70268536823F487
:100F040000635360CAE700BF002301400100000FE3
:100F140038B310B50446036C43B1236C13F0100FBF
:100F24000BD00120002384F83C3010BDFFF756FCA1
:100F34000023636484F83C30EFE7236C23F4885384
:100F440023F0020343F0020323642046FFF746FF25
:100F540000206064236C23F0030343F00103236443
:100F6400E0E701207047000030B482B00022019213
:100F740090F83C20012A00F0C0800346012280F84A
:100F84003C200A68092A40D90468E06892B202EB5E
:100F940042021E3A4FF0070C0CFA02F220EA020257
:100FA400E2601C68E0680A8802EB42021E3A8D681F
:100FB40005FA02F20243E2604A68062A3CD81C6839
:100FC400606B02EB8202053A4FF01F0C0CFA02F23E
:100FD40020EA020262631C68606B4A6802EB8202C8
:100FE400053AB1F800C00CFA02F2024362631868D1
:100FF400434A904250D01868414A904259D0002048
:1010040083F83C0002B030BC70470468206992B297
:1010140002EB42024FF0070C0CFA02F220EA020241
:1010240022611C6820690A8802EB42028D6805FA75
:1010340002F202432261BFE70C2A16D81D68286B0E
:1010440002EB8202233A1F2404FA02F220EA02028B
:101054002A631D68286B4A6802EB8202233A0C88D3
:1010640004FA02F202432A63C1E71D68E86A02EB4C
:101074008202413A1F2404FA02F220EA0202EA62DE
:101084001D68E86A4A6802EB8202413A0C8804FA55
:1010940002F20243EA62AAE70A68122AABD1194AA9
:1010A400506820F400005060506840F480005060A4
:1010B400A1E70A681448824201D0112A9FD1114A3B
:1010C400506820F480005060506840F40000506084
:1010D40009680D4A914292D10C4A12680C49A1FB4D
:1010E4000212920C02EB820252000192019A002A2F
:1010F40085D0019A013A0192F8E7022082E700BF05
:1011040000200140002301401200001008000020CC
:1011140083DE1B43002800F09B8070B50D46044617
:101124004F4B1B6803F00F038B4208D2CBB24C4ADF
:101134001370136803F00F038B4240F08B80236815
:1011440013F0020F17D013F0040F04D0454A93682C
:1011540043F4E0539360236813F0080F04D0414A2A
:10116400936843F4604393603E4A936823F0F0032A
:10117400A1680B439360236813F0010F32D06368B6
:10118400012B21D09A1E012A25D9364A126812F061
:10119400020F61D033498A6822F0030213438B6043
:1011A40000F01EFD06462F4B9B6803F00C0362689B
:1011B400B3EB820F16D000F013FD801B41F288338D
:1011C4009842F0D9032042E0264A126812F4003F04
:1011D400E0D101203BE0234A126812F0007FD9D10C
:1011E400012034E01E4B1B6803F00F03AB4207D908
:1011F400EAB21B4B1A701B6803F00F03AB422DD1EC
:10120400236813F0040F06D0164A936823F4E053BE
:10121400E1680B439360236813F0080F07D0114A69
:10122400936823F46043216943EAC103936000F0A7
:1012340047F80C4B9B68C3F303130B4AD35CD840A9
:101244000A4B18600A4B186800F07EFC002070BD41
:10125400012070470120FAE70120F8E70120F6E7B2
:10126400003C0240003802408C3000080800002096
:1012740004000020014B1868704700BF08000020DC
:1012840008B5FFF7F7FF044B9B68C3F38223034AB7
:10129400D35CD84008BD00BF003802408430000849
:1012A40008B5FFF7E7FF044B9B68C3F34233034AD7
:1012B400D35CD84008BD00BF003802408430000829
:1012C40008B55E4B9B6803F00C03082B03D00C2B72
:1012D4005BD05B4808BD594B5A6802F03F025B681B
:1012E40013F4800F2CD0554B5868C0F388104FEA84
:1012F400401CBCEB000C6EEB0E0E4FEA8E1343EA5F
:101304009C634FEA8C11B1EB0C0163EB0E03DB0021
:1013140043EA5173C90011EB000C43F10003990235
:1013240000234FEA8C2041EA9C51FEF769FF434BAE
:101334005B68C3F3014301335B00B0FBF3F0C9E71F
:101344003E4B5868C0F388104FEA401CBCEB000CBD
:101354006EEB0E0E4FEA8E1343EA9C634FEA8C1138
:10136400B1EB0C0163EB0E03DB0043EA5173C900DC
:1013740011EB000C43F10003990200234FEA8C2087
:1013840041EA9C51FEF73CFFD1E72C4B5A6802F02E
:101394003F025B6813F4800F2AD0284B5868C0F3CF
:1013A40088104FEA401CBCEB000C6EEB0E0E4FEAAB
:1013B4008E1343EA9C634FEA8C11B1EB0C0163EB8F
:1013C4000E03DB0043EA5173C90011EB000C43F137
:1013D4000003990200234FEA8C2041EA9C51FEF756
:1013E4000FFF164B5B68C3F30273B0FBF3F071E7B6
:1013F400124B5868C0F388104FEA401CBCEB000C39
:101404006EEB0E0E4FEA8E1343EA9C634FEA8C1187
:10141400B1EB0C0163EB0E03DB0043EA5173C9002B
:1014240011EB000C43F10003990200234FEA8C20D6
:1014340041EA9C51FEF7E4FED3E700BF00380240C6
:101444000024F400002800F0018270B582B0044644
:10145400036813F0010F41D0994B9B6803F00C0310
:10146400042B32D0964B9B6803F00C03082B27D037
:10147400934B9B6803F00C030C2B59D06368B3F5B2
:10148400803F5BD0B3F5A02F5ED08D4B1A6822F459
:1014940080321A601A6822F480221A606368002B72
:1014A4005CD000F09DFB0546854B1B6813F4003FA0
:1014B40014D100F095FB401B6428F5D90320CCE13E
:1014C4007F4B5B6813F4800FD2D07D4B1B6813F401
:1014D400003F03D06368002B00F0BA81236813F047
:1014E400020F60D0764B9B6813F00C0F4AD0744BFC
:1014F4009B6803F00C03082B3FD0714B9B6803F0EF
:101504000C030C2B69D0E368002B75D06D4B0122C2
:101514001A6000F065FB0546694B1B6813F0020F67
:1015240061D100F05DFB401B0228F5D9032094E152
:10153400634B5B6813F4800FA0D0C6E7604A13685E
:1015440043F480331360A9E75D4B1A6842F48022A8
:101554001A601A6842F480321A609FE700F040FB78
:101564000546574B1B6813F4003FB7D000F038FB17
:10157400401B6428F5D903206FE1514B5B6813F4D9
:10158400800FBAD14E4B1B6813F0020F03D0E368EF
:10159400012B40F05F814A4A136823F0F803216964
:1015A40043EAC1031360236813F0080F49D0636949
:1015B400002B33D0434B0122C3F8802E00F010FBE4
:1015C40005463F4B5B6F13F0020F3AD100F008FB66
:1015D400401B0228F5D903203FE1394B5B6813F423
:1015E400800F90D1CEE7364A136823F0F8032169BF
:1015F40043EAC1031360D6E7324B00221A6000F0BD
:10160400EFFA05462E4B1B6813F0020FCBD000F007
:10161400E7FA401B0228F5D903201EE1294B0022DA
:10162400C3F8802E00F0DCFA0546254B5B6F13F0FF
:10163400020F06D000F0D4FA401B0228F5D903208B
:101644000BE1236813F0040F76D01D4B1B6C13F0D1
:10165400805F33D100230193194B1A6C42F08052FE
:101664001A641B6C03F080530193019B0125164BF4
:101674001B6813F4807F29D0A368012B3AD0052B73
:101684003ED00F4B1A6F22F001021A671A6F22F034
:1016940004021A67A368002B3CD000F0A1FA0646A6
:1016A400074B1B6F13F0020F45D100F099FA801B12
:1016B40041F288339842F3D90320CEE00025D6E7DF
:1016C4000038024000004742007000406B4A136833
:1016D40043F48073136000F083FA0646674B1B687B
:1016E40013F4807FC8D100F07BFA801B0228F5D95F
:1016F4000320B2E0624A136F43F001031367C9E7A2
:101704005F4B1A6F42F004021A671A6F42F001022B
:101714001A67BFE700F064FA0646594B1B6F13F0D3
:10172400020F08D000F05CFA801B41F28833984223
:10173400F3D9032091E0EDB9A369002B00F08C806C
:101744004F4A926802F00C02082A54D0022B17D098
:101754004C4B00221A6600F043FA0446484B1B68BF
:1017640013F0007F45D000F03BFA001B0228F5D9A6
:10177400032072E0424A136C23F080531364DBE7C6
:10178400404B00221A6600F02BFA05463C4B1B68BE
:1017940013F0007F06D000F023FA401B0228F5D98D
:1017A40003205AE0E369226A1343626A43EA82131C
:1017B400A26A5208013A43EA0243E26A43EA026334
:1017C400226B43EA02732E4A53602E4B01221A669F
:1017D40000F006FA04462A4B1B6813F0007F06D17A
:1017E40000F0FEF9001B0228F5D9032035E00020A3
:1017F40033E0002031E0012B31D0214B5B6803F44E
:101804008001E26991422CD103F03F02216A8A42AD
:1018140029D1616A47F6C0721A40B2EB811F24D104
:1018240003F44031A26A5208013AB1EB024F1ED1CF
:1018340003F07062E16AB2EB016F1AD103F0E04386
:10184400226BB3EB027F16D1002006E00120704723
:10185400012002E0012000E0002002B070BD012060
:10186400FBE70120F9E70120F7E70120F5E7012074
:10187400F3E70120F1E70120EFE700BF007000402B
:10188400003802400000474200230F2B00F2E3809F
:1018940070B582B065E085684FEA430E032404FA0C
:1018A4000EF425EA0405CC6804FA0EF42C43846093
:1018B400446824EA02044A68C2F300129A402243AC
:1018C40042605CE0DC08083450F8242003F007058B
:1018D400AD004FF00F0E0EFA05FE22EA0E0E0A6955
:1018E400AA4042EA0E0240F824205CE0062200E00E
:1018F400002202FA0EF22A430234574D45F82420FE
:10190400564A94686FEA0C0224EA0C054E6816F4F1
:10191400801F01D04CEA0405504CA560E46802EA3B
:1019240004054E6816F4001F01D04CEA04054B4C24
:10193400E560646802EA04054E6816F4003F01D0CD
:101944004CEA0405454C6560246822404D6815F452
:10195400803F01D04CEA0402404C226001330F2B3B
:1019640077D801229A400C6804EA020C32EA040493
:10197400F4D14C6804F00304013C012C8BD94A686F
:1019840002F00302032A09D0C4685D000322AA40BE
:1019940024EA02048A68AA402243C2604A6802F028
:1019A4000302022A8ED004684FEA430E032202FA8D
:1019B4000EF224EA02044A6802F0030202FA0EF26A
:1019C400224302604A6812F4403FC7D000220192C9
:1019D400234A546C44F480445464526C02F48042AC
:1019E4000192019A9C08A51C1B4A52F8255003F049
:1019F400030E4FEA8E0E0F2202FA0EF225EA0205BA
:101A0400184A90423FF474AF02F58062904216D0B7
:101A140002F58062904214D002F58062904212D0A6
:101A240002F58062904210D002F5806290420ED09E
:101A340002F5806290423FF459AF072259E7012230
:101A440057E7022255E7032253E7042251E7052210
:101A54004FE702B070BD704700380140003C0140C0
:101A640000380240000002400AB181617047090455
:101A740081617047002808DB0901C9B200F16040A8
:101A840000F5614080F80013704700F00F00090171
:101A9400C9B2014B1954704714ED00E000B500F0D1
:101AA4000700C0F1070CBCF1040F28BF4FF0040C71
:101AB400031D062B0FD9C31E4FF0FF3E0EFA0CF088
:101AC40021EA000199400EFA03FE22EA0E0241EADD
:101AD40002005DF804FB0023EEE70000074AD36828
:101AE40023F4E0631B041B0C000200F4E0600343D6
:101AF40043F0BF6343F40033D360704700ED00E06C
:101B040010B50446054BD868C0F30220FFF7C6FFA2
:101B140001462046FFF7AEFF10BD00BF00ED00E018
:101B24000138B0F1807F0BD24FF0E0235861054AB1
:101B3400F02182F823100020986107221A6170476F
:101B44000120704700ED00E010B504460E4B1A78F2
:101B54004FF47A73B3FBF2F30C4A1068B0FBF3F062
:101B6400FFF7DEFF68B90F2C01D901200AE000223B
:101B740021464FF0FF30FFF7C3FF054B1C600020E8
:101B840000E0012010BD00BF00000020080000207C
:101B94000400002008B50B4B1A6842F400721A6066
:101BA4001A6842F480621A601A6842F480721A60F9
:101BB4000320FFF793FF0F20FFF7C6FFFFF7F2F8AC
:101BC400002008BD003C0240034A1168034B1B7807
:101BD4000B441360704700BF340200200000002053
:101BE400014B1868704700BF3402002038B5044622
:101BF400FFF7F6FF0546B4F1FF3F02D0044B1B7814
:101C04001C44FFF7EDFF401BA042FAD338BD00BFD0
:101C14000000002030B4036A026A22F0010202626A
:101C24004268846924F0730C0C6844EA0C0423F0C1
:101C3400020C8B6843EA0C03114DA84203D005F54E
:101C44008065A84205D123F00803CD682B4323F017
:101C540004030B4DA84203D005F58065A84207D1C3
:101C640022F440724D6945EA020C8A6942EA0C0288
:101C7400426084614A684263036230BC704700BFBB
:101C84000000014030B4036A026A22F480720262E6
:101C94004268C46924F0730C0C6844EA0C0523F40C
:101CA40000738C6843EA0423114CA04203D004F56A
:101CB4008064A04206D123F40063CC6843EA042381
:101CC40023F480630A4CA04203D004F58064A0424C
:101CD40007D122F440524C6942EA04128C6942EA68
:101CE40004124260C5614A68C263036230BC704733
:101CF4000000014030B4036A026A22F48052026296
:101D04004468C26922F4E6420D6842EA052223F4DB
:101D140000538D6843EA0533094DA84203D005F505
:101D24008065A84204D124F480444D6944EA8514B2
:101D34004460C2614A680264036230BC704700BFF9
:101D44000000014010B4036A046A24F00104046230
:101D5400846924F0F00C4CEA021223F00A030B43CA
:101D6400826103625DF8044B704710B4036A046A2D
:101D740024F010040462846924F4704C4CEA0232A6
:101D840023F0A00343EA0113826103625DF8044B6C
:101D94007047836823F070030B4343F007038360A9
:101DA400704770470368344A904212D0B0F1804FB4
:101DB4000FD0A2F57C4290420BD002F58062904293
:101DC40007D002F58062904203D002F57842904237
:101DD40003D123F070034A681343274A90422AD060
:101DE400B0F1804F27D0A2F57C42904223D002F577
:101DF400806290421FD002F5806290421BD002F5AF
:101E04007842904217D002F57052904213D002F5F6
:101E1400806290420FD002F5806290420BD0A2F50E
:101E24009832904207D002F58062904203D002F5C6
:101E34008062904203D123F44073CA68134323F0B1
:101E440080034A69134303608B68C3620B6883622F
:101E5400094B984203D003F58063984201D10B6982
:101E6400036301234361036913F0010F03D0036982
:101E740023F00103036170470000014040B310B533
:101E8400044690F83D30F3B1022384F83D302146F6
:101E940051F8040BFFF786FF012384F8463084F8D9
:101EA4003E3084F83F3084F8403084F8413084F880
:101EB400423084F8433084F8443084F8453084F860
:101EC4003D30002010BD80F83C30FEF7E1FCDBE73C
:101ED4000120704740B310B5044690F83D30F3B18B
:101EE400022384F83D30214651F8040BFFF75AFFD2
:101EF400012384F8463084F83E3084F83F3084F877
:101F0400403084F8413084F8423084F8433084F817
:101F1400443084F8453084F83D30002010BD80F80A
:101F24003C30FFF73EFFDBE70120704730B4036A23
:101F3400026A22F0100202624468826922F4E642D4
:101F44000D6842EA052223F020038D6843EA051355
:101F5400114DA84203D005F58065A84206D123F0AF
:101F64008003CD6843EA051323F040030A4DA842D9
:101F740003D005F58065A84207D124F440644D6977
:101F840044EA85048D6944EA8504446082614A68B0
:101F94008263036230BC70470000014038B590F89A
:101FA4003C30012B66D004460D46012380F83C30BA
:101FB4000C2A5AD8DFE802F0075959591B595959C4
:101FC4003059595944000068FFF724FE2268936988
:101FD40043F0080393612268936923F00403936137
:101FE4002268936929690B43936100203EE00068ED
:101FF400FFF79CFF2268936943F4006393612268AE
:10200400936923F48063936122689369296943EA9D
:1020140001239361002029E00068FFF733FE226862
:10202400D36943F00803D3612268D36923F004031E
:10203400D3612268D36929690B43D361002015E079
:102044000068FFF757FE2268D36943F40063D36145
:102054002268D36923F48063D3612268D369296930
:1020640043EA0123D361002000E00120002384F827
:102074003C3038BD0220FCE710B4846824F47F4C63
:1020840042EA03220A4342EA0C0282605DF8044BEE
:10209400704790F83C30012B78D010B504460123EA
:1020A40080F83C30022380F83D300268936823F4C2
:1020B4007F4323F0770393600B68602B4CD029D8BF
:1020C400402B54D00CD9502B22D1CA6849680068DF
:1020D400FFF738FE50212068FFF75BFE002005E083
:1020E400202B0DD009D9302B0AD00120012384F8EC
:1020F4003D30002384F83C3010BD0BB1102B05D1CA
:1021040019462068FFF745FE0020EFE70120EDE7C0
:102114000120EBE7B3F5805F34D0B3F5005F0CD159
:10212400CB684A6889680068FFF7A6FF226893684D
:1021340043F4804393600020D8E7702B24D1CB680C
:102144004A6889680068FFF797FF2268936843F03C
:10215400770393600020C9E7CA6849680068FFF7FD
:1021640004FE60212068FFF714FE0020BEE7CA6861
:1021740049680068FFF7E6FD40212068FFF709FE83
:102184000020B3E70020B1E70120AFE70220704749
:1021940001F01F014FF0010C0CFA01FC036A23EA61
:1021A4000C030362036A8A4013430362704700000E
:1021B40010B504460846002942D194F83E30DBB2FB
:1021C400013B18BF0123002B6ED1002851D10223FB
:1021D40084F83E30012201462068FFF7D9FF2368C6
:1021E400334A934203D002F58062934203D15A6C7E
:1021F40042F400425A6423682D4A934249D0B3F111
:10220400804F46D0A2F57C42934242D002F58062D0
:1022140093423ED002F5806293423AD002F578426E
:10222400934236D002F57052934232D0A2F59432E2
:1022340093422ED01A6842F001021A60002032E064
:10224400042908D008290DD094F84130DBB2013BB1
:1022540018BF0123B7E794F83F30DBB2013B18BF46
:102264000123B0E794F84030DBB2013B18BF0123EF
:10227400A9E7042805D0082807D0022384F84130B0
:10228400A8E7022384F83F30A4E7022384F840300F
:10229400A0E79A6802F00702062A07D01A6842F0FB
:1022A40001021A60002010BD0120FCE70020FAE7BB
:1022B4000000014090F83C20012A3DD010B40346B0
:1022C400012280F83C20022280F83D2002685068F8
:1022D400946820F0700C086840EA0C0050601A689A
:1022E400164882421AD0B2F1804F17D0A0F57C4034
:1022F400824213D000F5806082420FD000F58060E6
:1023040082420BD000F57840824207D000F570502D
:10231400824203D0A0F59430824204D124F0800498
:10232400496821439160012283F83D20002083F80D
:102334003C005DF8044B70470220704700000140E8
:10234400024690F83C30012B21D0012380F83C3028
:10235400CB6823F440738868034323F4806348689C
:10236400034323F400630868034323F48053086998
:10237400034323F400534869034323F48043C969A6
:102384000B4311684B64002082F83C007047022024
:102394007047026802F10C0353E8003F23F4907382
:1023A4000C3242E800310029F3D1026802F114032F
:1023B40053E8003F23F00103143242E800310029BE
:1023C400F3D1036B012B05D0202380F84230002386
:1023D40003637047026802F10C0353E8003F23F0E3
:1023E40010030C3242E800310029F3D1ECE700007D
:1023F40010B504460268136923F44053C1680B43C3
:102404001361836802691A4343691A43C3691A430F
:102414000168CB6823F4164323F00C031343CB6009
:102424000268536923F4407381690B435361036861
:10243400314A934206D002F58062934202D0FEF7FD
:102444001FFF01E0FEF72CFFE369B3F5004F29D02D
:102454000021031849411B1841F10001C90041EA58
:102464005371DB00181863684FEA83024FEA9373D1
:1024740041F10001FDF7C4FE204AA2FB00314909E5
:10248400642303FB11031B013233A2FB03235B0907
:1024940003F0F00202EB011203F00F03216813446E
:1024A4008B6010BD0023021843EB0301121841F1A5
:1024B4000001C90041EA5271D200101841F1000133
:1024C400626892185B41FDF79BFE0C4AA2FB003147
:1024D4004909642303FB1103DB003233A2FB03230A
:1024E4005B095A0002F4F87202EB011203F00703CD
:1024F400216813448B60D4E7001001401F85EB5121
:102504002DE9F04383B005460E4617469946DDF89B
:1025140028802B681C6836EA04040CBF01240024BC
:10252400BC4228D1B8F1FF3FF3D0FFF759FBA0EB31
:102534000900404523D8B8F1000F22D02B68DA688F
:1025440012F0040FE5D0802EE3D0402EE1D01A68BB
:1025540012F0080FDDD0002401941A6801925B6820
:102564000193019B2846FFF714FF08236B6485F849
:102574004040012000E0002003B0BDE8F0830320C8
:10258400FAE70320F8E760B310B5044690F8413049
:1025940013B3242384F841302268D36823F400530E
:1025A400D3602046FFF724FF2268136923F4904385
:1025B40013612268536923F02A0353612268D368A4
:1025C40043F40053D36000206064202384F8413036
:1025D40084F84230606310BD80F84030FEF774FB2D
:1025E400D7E701207047002831D010B5044690F891
:1025F40041303BB3242384F841302268D36823F468
:102604000053D3602046FFF7F3FE2268136923F4D6
:10261400904313612268536923F0220353612268B3
:10262400536943F0080353612268D36843F40053A9
:10263400D36000206064202384F8413084F8423061
:10264400606310BD80F84030FEF73EFBD2E7012006
:1026540070472DE9F04182B01E4690F84130DBB25C
:10266400202B56D104460D469046002955D00AB970
:1026740001204FE000234364212380F84130FFF719
:10268400AFFA0746A4F82480A4F82680A368B3F51B
:10269400805F02D04FF0000814E023692BB34FF0A1
:1026A40000080FE0202384F84130032032E038F89A
:1026B400023B2268C3F308035360E28C92B2013AEE
:1026C40092B2E284E38C9BB293B100963B46002223
:1026D40080212046FFF714FF0028E3D1002DE6D027
:1026E40015F8012B23685A60E7E7A8460025E9E7B7
:1026F40000963B46002240212046FFF701FF18B90F
:10270400202384F8413005E0202384F8413003205D
:1027140000E0022002B0BDE8F0810120FAE70000E9
:10272400034AD2F8883043F47003C2F88830704703
:1027340000ED00E010B503460C4A0D490D48006851
:1027440040B10C4800680344521A934206D8094A1F
:10275400136010BD0748084C0460F2E700F010FA5B
:102764000C2303604FF0FF30F3E700BF00000220AA
:1027740000040000380200208803002070B50C46D5
:102784001646002506E0AFF30080214601F8010B50
:1027940001350C46B542F6DB304670BD4FF0FF30D4
:1027A40070474FF400534B6000207047002070477F
:1027B400DFF834D0FFF7B4FF0C480D490D4A00236D
:1027C40002E0D458C4500433C4188C42F9D30A4AE2
:1027D4000A4C002301E013600432A242FBD300F050
:1027E400D5F9FDF7E7FE7047000002200000002045
:1027F40068000020AC300008680000208803002036
:10280400FEE7B1FA81F252094FF48063520000F0FE
:1028140001B800002DE9F7431D46574B1F680446D5
:102824000E46904627B13B6A13B9384600F032F998
:10283400B8F1020F06D0B8F1010F00F29A80002D12
:10284400C0F29780636ED90705D4A3899A0502D490
:10285400A06D00F0C0F92146384600F037FB616BEB
:1028640041B104F14403994202D0384600F0B6F96C
:10287400002363630023A3616360A3891B0603D55C
:102884002169384600F0AAF9A38923F44A6323F0A6
:102894000303B8F1020FA38161D001AB6A4621465C
:1028A400384600F02DF9A3891843A0812DBB009D63
:1028B400284600F0DDF90646002852D1DDF80090E4
:1028C400A94540D14FF0FF35B4F90C3043F0020272
:1028D400A2810022A26004F1470222602261012247
:1028E4006261626ED60704D4980502D4A06D00F02C
:1028F40073F9284603B0BDE8F083002ED8D03B6AB4
:1029040013B9384600F0C6F8B8F1010F08BFA3891F
:10291400266004BF43F00103A381B4F90C3013F023
:102924000802C4E904651ED0D90741BF00226D42E4
:10293400A260A56158BFA560626ED20701D49B0551
:1029440013D50025D5E7484600F092F9064600283D
:10295400B8D0A38943F08003A3814D46CFE7002577
:10296400B2E7A946F5E7A260E6E7A06D00F034F906
:10297400E7E74FF0FF35BCE718000020002310B54F
:102984000446C0E90033C0E90433836081814366AF
:10299400C2818361194608225C3000F0D7F80D4BE0
:1029A40063620D4BA3620D4BE3620D4B23630D4B2E
:1029B40024629C4206D003F16802944202D0D033D0
:1029C4009C4205D104F15800BDE8104000F002B962
:1029D40010BD00BF392F00085B2F0008932F00089B
:1029E400B72F00083C020020024A0349034800F0C4
:1029F40069B800BF0C000020D12E00081C00002084
:102A040041680C4B994210B5044601D000F05EFABF
:102A1400A168094B994202D0204600F057FAE168B8
:102A2400064B994204D02046BDE8104000F04EBA4F
:102A340010BD00BF3C020020A40200200C030020B3
:102A440010B50B4B0B4C0C4A1A6020460022042193
:102A5400FFF794FF04F1680001220921FFF78EFFBC
:102A640004F1D0000222BDE810401221FFF786BF16
:102A7400740300203C020020ED290008014800F006
:102A8400AAB800BF79030020014800F0A5B800BF30
:102A94007903002010B50446FFF7F0FF236A1BB149
:102AA400BDE81040FFF7F0BF044B2362044B1B68E2
:102AB400002BF5D1FFF7C4FFF2E700BF052A000899
:102AC400740300202DE9F84307468846144600267F
:102AD400D4E90195B9F1010905D52468002CF7D191
:102AE4003046BDE8F883AB89012B07D9B5F90E3020
:102AF400013303D029463846C04706436835E9E721
:102B040070B50C46B1F90E10002996B015461E4654
:102B14000DDAA38913F0800F4FF0000114BF402396
:102B24004FF48063002031602B6016B070BD6A469C
:102B340000F014F80028ECDB019901F47041A1F5D0
:102B44000053594259414FF48063EBE70244034672
:102B5400934200D1704703F8011BF9E738B5074DDC
:102B640000230446084611462B60FFF71AFE431C57
:102B740002D12B6803B1236038BD00BF8403002059
:102B8400014B1868704700BF1800002070B50D4D48
:102B94000D4C641BA4100026A64209D10B4D0C4C0D
:102BA40000F062FA641BA4100026A64205D170BD91
:102BB40055F8043B98470136EEE755F8043B98472F
:102BC4000136F2E7A4300008A4300008A43000085D
:102BD400A8300008704770477047000038B50546B4
:102BE400002941D051F8043C0C1F002BB8BFE41855
:102BF40000F094F91D4A136833B9636014602846E1
:102C0400BDE8384000F090B9A34208D920682118E3
:102C14008B4201BF19685B6809182160EDE71A4609
:102C24005B680BB1A342FAD911685018A0420BD1CA
:102C340020680144501883421160E0D118685B6831
:102C4400536008441060DAE702D90C232B60D6E7FE
:102C5400206821188B4204BF19685B68636004BF55
:102C6400091821605460CAE738BD00BF8003002002
:102C7400024B0146186800F025B800BF1800002078
:102C840070B50F4E0C463168054611B900F0CAF90B
:102C940030602146284600F0C5F9431C03D14FF0AB
:102CA400FF34204670BDC41C24F00304A042F8D0B5
:102CB400211A284600F0B6F90130F2D1EFE700BF3F
:102CC4007C0300202DE9F843CD1C25F003050835CD
:102CD4000C2D38BF0C25002D064601DBA94204D972
:102CE4000C2333600020BDE8F883DFF8D48000F0C3
:102CF40015F9D8F800301C4644BB29463046FFF786
:102D0400BFFF431C044658D1D8F800402746002F83
:102D140043D1002C4BD023683946304604EB0309D9
:102D240000F080F9814542D121686D1A2946304668
:102D3400FFF7A6FF01303AD023682B442360D8F86C
:102D440000305A6862BBC8F800700FE02268521B5A
:102D540020D40B2A17D96119A342256018BF5960E2
:102D6400636808BFC8F8001062514B60304600F039
:102D7400DBF804F10B00231D20F00700C21A1CBF6E
:102D84001B1AA350AFE76268A3420CBFC8F8002027
:102D94005A60EBE723466468AEE73C467F68B6E7D3
:102DA4001A465B68A342FBD100235360DEE70C2381
:102DB4003360304600F0B8F894E70560D6E700BF0A
:102DC40080030020B1F90C202DE9F04116070546D7
:102DD4000C4654D44B68002B02DC0B6C002B48DDF2
:102DE400E66A002E45D0002312F480522F68216A2F
:102DF4002B6030D0626DA389590705D56368D21A58
:102E0400636B0BB1236CD21A0023E66A216A28464D
:102E1400B047431CA38906D129681D292BD82A4A07
:102E24000A41D60727D400226260D90422692260AD
:102E340004D5421C01D12B6803B96065616B2F6016
:102E4400B9B104F14403994202D02846FFF7C6FE03
:102E5400002363630DE001232846B0470246501C5B
:102E6400C9D12B68002BC6D01D2B01D0162B1ED127
:102E74002F60002022E043F040031BB21BE00F69E7
:102E8400002FF6D093070E6808BF4B690F6018BF78
:102E94000023A6EB07088B60B8F1000FE9DD216A77
:102EA400A66A43463A462846B047002808DCB4F9E7
:102EB4000C3043F04003A3814FF0FF30BDE8F081B4
:102EC4000744A8EB0008E7E7FEFFBFDF38B50B694E
:102ED40005460C4613B90025284638BD18B1036AC7
:102EE4000BB9FFF7D7FDB4F90C30002BF3D0626EA9
:102EF400D00704D4990502D4A06DFFF76CFE2846D0
:102F04002146FFF75FFF636EDA070546E4D4A38921
:102F14009B05E1D4A06DFFF75FFEDDE70148FFF7F5
:102F24005ABE00BF780300200148FFF755BE00BF1A
:102F34007803002010B50C46B1F90E1000F060F8CB
:102F44000028ABBF636DA3891B1823F48053ACBF67
:102F54006365A38110BD2DE9F0411F468B89DB0514
:102F640005460C46164605D5B1F90E10022300227B
:102F740000F034F8A389B4F90E1023F48053A3812C
:102F840032463B462846BDE8F04100F05BB810B538
:102F94000C46B1F90E1000F021F8431CA38915BFAB
:102FA400606523F4805343F48053A38118BFA38145
:102FB40010BDB1F90E1000F001B8000038B5064D8F
:102FC4000023044608462B60FFF7E8FB431C02D1AC
:102FD4002B6803B1236038BD8403002038B5074D46
:102FE40004460846114600222A601A46FFF7DEFB13
:102FF400431C02D12B6803B1236038BD8403002035
:1030040038B5074D04460846114600222A601A4680
:10301400FFF7B4FB431C02D12B6803B1236038BD16
:103024008403002038B5064D0023044608462B606F
:10303400FFF780FB431C02D12B6803B1236038BD2A
:103044008403002038B5074D044608461146002283
:103054002A601A46FDF74CFA431C02D12B6803B1CF
:10306400236038BD84030020F8B500BFF8BC08BC59
:103074009E467047F8B500BFF8BC08BC9E46704732
:103084000000000001020304000000000000000032
:0830940001020304060708090C
:08309C0098D1FF7F0100000044
:0430A400E901000836
:0430A800C501000856
:1030AC0001000000100000000024F40000000000EB
:1030BC00030000003C0200201C0000200000000067
:1030CC003C020020A40200200C03002000000000A1
:1030DC0000000000000000000000000000000000E4
:1030EC0000000000000000000000000000000000D4
:1030FC0000000000000000000000000000000000C4
:08310C000000000000000000BB
:04000005080027B513
:00000001FF
