:020000040800F2
:100000000000022011370008C91C0008CB1C0008A2
:10001000CD1C0008CF1C0008D11C00080000000007
:10002000000000000000000000000000D31C0008D9
:10003000D51C000800000000D71C0008D91C0008CF
:100040006137000861370008613700086137000830
:100050006137000861370008613700086137000820
:100060006137000861370008613700086137000810
:100070006137000861370008613700086137000800
:1000800061370008613700086137000861370008F0
:1000900061370008613700086137000861370008E0
:1000A00061370008613700086137000861370008D0
:1000B00061370008613700086137000861370008C0
:1000C00061370008613700086137000861370008B0
:1000D00061370008613700086137000861370008A0
:1000E0006137000861370008613700086137000890
:1000F0006137000861370008613700086137000880
:10010000613700086137000861370008613700086F
:10011000613700086137000861370008613700085F
:10012000613700086137000861370008613700084F
:10013000613700080000000000000000613700087F
:10014000613700086137000861370008613700082F
:10015000613700086137000861370008613700081F
:10016000613700086137000861370008613700080F
:10017000613700086137000861370008000000009F
:1001800000000000613700080000000000000000CF
:10019000613700080000000000000000613700081F
:1001A00000000000000000000000000061370008AF
:1001B00061370008613700086137000861370008BF
:0401C000613700089B
:1001D00010B5054C237833B9044B13B10448AFF381
:1001E00000800123237010BD680000200000000083
:1001F000D449000808B5034B1BB103490348AFF3CA
:10020000008008BD000000006C000020D4490008F8
:1002100001F0FF01102A2BDB10F0070F08D010F8B7
:10022000013B013A8B422DD010F0070F42B3F6D1BB
:10023000F0B441EA012141EA014122F007047FF0D4
:1002400000070023F0E80256083C85EA010586EA2B
:10025000010685FA47F5A3FA87F586FA47F6A5FA67
:1002600087F68EB9EED1F0BC01F0FF0102F0070273
:1002700032B110F8013B013A83EA010313B1F8D11E
:100280000020704701387047002D06BF35460338FF
:10029000073815F0010F07D1013015F4807F02BF38
:1002A000013015F4C03F0130F0BC0138704700BF89
:1002B00053B94AB9002908BF00281CBF4FF0FF31CD
:1002C0004FF0FF3001F0F6B8ADF1080C6DE904CE47
:1002D00000F006F8DDF804E0DDE9022304B0704721
:1002E0002DE9F047089D0C46002B4ED194468C45D5
:1002F0008646B2FA82F262D94AB1C2F12003914035
:1003000020FA03F30CFA02FC194300FA02FE4FEA4A
:100310001C471FFA8CF6B1FBF7F44FEA1E4307FBAC
:10032000141143EA014304FB06F199420AD91CEB7C
:10033000030304F1FF3080F01281994240F20F81F3
:10034000023C6344591A1FFA8EF3B1FBF7F007FB26
:10035000101143EA014300FB06F69E420AD91CEB4A
:10036000030300F1FF3180F0FC809E4240F2F980EF
:10037000634402389B1B40EA044000211DB1D34076
:100380000022C5E90032BDE8F0878B4205D90DB1E6
:10039000C5E9000100210846F5E7B3FA83F1002919
:1003A00046D1A34202D39042C0F0F080861A64EB9B
:1003B00003030120002DE6D0C5E90063E3E7002A2E
:1003C00040F09080A1EB0C044FEA1C481FFA8CF718
:1003D0000121B4FBF8F64FEA1E4308FB164443EA3A
:1003E000044307FB06F0984208D91CEB030306F10F
:1003F000FF3402D2984200F2CD8026461C1A1FFA22
:100400008EF3B4FBF8F008FB104443EA044300FB0E
:1004100007F79F4208D91CEB030300F1FF3402D217
:100420009F4200F2B0802046DB1B40EA0640A5E771
:10043000C1F120068B4022FA06F71F4320FA06FC82
:1004400004FA01F343EA0C03F44000FA01F8380C13
:100450004FEA1349B4FBF0FE1FFA87FC00FB1E4471
:1004600049EA04440EFB0CF9A14502FA01F20AD94B
:100470003C190EF1FF3A80F08480A14540F2818062
:10048000AEF1020E3C44A4EB09041FFA83F9B4FB5D
:10049000F0F300FB134449EA044403FB0CFCA445BD
:1004A00007D93C1903F1FF3067D2A44565D9023B57
:1004B0003C4443EA0E40A0FB0293A4EB0C049C4294
:1004C000CE469C4651D34ED055B1B8EB0E0364EBEB
:1004D0000C0404FA06F6CB401E43CC40C5E9006488
:1004E000002150E7C2F1200320FA03F10CFA02FCCC
:1004F00024FA03F394400C434FEA1C4800FA02FE2E
:100500001FFA8CF7B3FBF8F008FB1031230C43EA19
:10051000014300FB07F1994208D91CEB030300F1EA
:10052000FF362CD299422AD9023863445B1AA4B20E
:10053000B3FBF8F108FB113344EA034401FB07F372
:10054000A34208D91CEB040401F1FF3613D2A342E5
:1005500011D902396444E41A41EA004139E70446FA
:10056000F0E6084606E7C845AED2B9EB020E63EBEB
:10057000070C0138A8E73146EDE7034699E7304616
:10058000D4E7D6467FE7634402384DE70646234664
:1005900008460FE7023E634430E700BF03685A0095
:1005A0004CBF43F0004323F000431844704700BFA2
:1005B0002DE9F84349B34F1E044615463E464FF019
:1005C000000909EB060101EBD171491004EBC108E8
:1005D0004046FFF7E3FF8F4203464FEAC1000FD0CA
:1005E0000830AB42204407D8FFF7D8FF0138A842B3
:1005F00008D201F10109E4E7894506D04E1EE0E783
:10060000AB42F9D84046BDE8F8834FF000084046B9
:10061000BDE8F883012807D0022807D0044B002842
:100620000CBF1846002070470248704702487047C8
:10063000DD0C0008E10C0008E50C000830B5214B8A
:1006400083B004468D1E1BB301A92846AFF300807A
:1006500088B301992A46FFF7ABFF014658B3FFF76D
:100660009DFF4B68A064012B28D0002B01F10400F2
:100670001FDBFFF793FF002323650368E064002B73
:100680000DDBFFF78BFF03460020236103B030BD75
:100690000D4B0E49C91AC91018460191DAE7C3F388
:1006A0000360FFF7B7FF034628B10020236103B0C2
:1006B00030BD0123E0E700230920E6E70023052001
:1006C000E3E700BF00000000744A0008644B000824
:1006D0000368DA0710B5044606D49B0700F148000A
:1006E00009D500F069FC2368590709D51A070ED50A
:1006F000DB0613D510BD00F057FC23685907F5D46D
:1007000004F1D00000F060FC23681A07F0D404F56F
:10071000A87000F061FC2368DB06EBD404F5E870F8
:10072000BDE8104000F09CBC0920704703460068FB
:1007300000B11844704700BF704700BF70B5044651
:100740000E46316C2046FFF779FF054688B9326CBA
:100750006261236932462146012098470828F0D07B
:10076000072806D12846316CFFF7E6FF301D00F060
:100770000FFC04F0E3F800BF2DE9F0470D1DD0F8A1
:100780000C80D0F81890074614460FCDADF5727D59
:100790000DF10C0CACE80F000FCDACE80F000FCD45
:1007A000ACE80F0095E80F0002AE4FF0000E8CE8A9
:1007B0000F00C6F800E020E0336C7B614FF4F0726C
:1007C00031467AA804F0ACF83B697AAA394650461B
:1007D0009847889B73642146CDE9006905463B46EE
:1007E0003A460120C047044618BB4FF4F0727AA97C
:1007F000304604F095F8082D19D1316C3846FFF7D2
:100800001DFF09345FFA84FA05460028D4D0B36B83
:1008100073643A46CDE900693B464AF01001012075
:10082000C04730B928460DF5727DBDE8F087072D29
:1008300005D0092528460DF5727DBDE8F0872046D4
:10084000316CFFF779FF03A800F0A2FB406C704702
:10085000F0B5CB6B0B6401F1040C0E460546BCE809
:100860000F00F9B001AC0FC4BCE80F000FC4BCE826
:100870000F000FC49CE80F004FF0FF3784E80F0013
:10088000009706E02B696A462946984708280446DF
:1008900008D110992846FFF7D1FE0028F2D0092090
:1008A00079B0F0BD6846FFF713FF062CF7D131464B
:1008B0002846FFF743FF00BFC160D96B826119640E
:1008C0000022194658E700BF70B5C66843690B643B
:1008D000AEB903690A4604460D4601460220984710
:1008E000072805D008280FD129462046FFF726FF04
:1008F0003046296CFFF720FF281D00F049FB01223C
:10090000FFF73AFF04F01AF804F018F8C2681AB1B9
:10091000CA6B0A6400222FE79AE700BF704700BF46
:10092000836801460BB1012018477047012910D098
:1009300009D883B90F2A0ED800EB820218465368F3
:10094000009A13607047033901298CBF02200120EF
:100950007047084670470220704700BF00B585B059
:100960000A46002303A900911946FFF7DFFF039809
:1009700005B05DF804FB00BF012910D009D883B988
:100980000F2A0ED8009900EB8202096851601846C0
:100990007047033901298CBF0220012070470846A7
:1009A00070470220704700BF10B584B0002303AC2D
:1009B000039200940A461946FFF7DEFF04B010BD0B
:1009C00070B5D36B136402F1040C05460C46BCE809
:1009D0000F00ADF50E7D0DF15C0EAEE80F00BCE82A
:1009E0000F00AEE80F00BCE80F00AEE80F009CE877
:1009F0000F004FF0FF368EE80F00169610E0FFF75D
:100A0000D3FF214616A8A847034616AA6946082020
:100A100083B9049B9847052806460CD0092809D0BD
:100A200026996846FFF70AFE03466A460C2116A877
:100A3000002BE4D0092616A8FFF74AFE30460DF534
:100A40000E7D70BD2DE9F04F9346CA6C89B00D46FE
:100A500052F8041B069200F0030C002B79D00C0C0A
:100A60008DF81D400904E4B2059102EB84020221D5
:100A70002F6D8DF81C10BCF1020F08BFAA6B17F088
:100A800001070CD005A9584600F084FB18B90820CE
:100A900009B0BDE8F08F092009B0BDE8F08F1668F5
:100AA000002EEFD000F008010191B2460297644693
:100AB0009946B9F1020F48D0B2F800A0568802F169
:100AC0000408AA6C26F001030F2158469F18FFF76F
:100AD00045FF874237D82AF001023A44824294BF48
:100AE00000220122730003F002030AF0010A43EA24
:100AF0000A03012B47D0022B31D0002BCBD114B1EC
:100B0000002A40F0C98008F10402D2F800A0BAF12E
:100B1000000FCED105A95846029F00F03BFB0028EC
:100B2000B9D1002FB3D00F215846FFF717FF0E2180
:100B300002465846FFF738FF674A0F215846FFF72D
:100B400033FF0720A8E70022CCE7566802F1080827
:100B5000B7E7090205918DF81D30032188E7D8F821
:100B6000006026F00043002C44D122B1019A002AF3
:100B70005AD0002B58D0002E01DA08F104080133B6
:100B800008EB8302C1E7ECB9CAB1D8F80430D8F851
:100B90000020991C4FEAD2723FF47DAF05F1580155
:100BA0000133049100F08B8008F10400FFF7BEFDD3
:100BB00004AB01462846AFF30080002857D108F166
:100BC0000802A2E70D215846FFF7C8FE2B6A8342B0
:100BD000F5D1AB6A9845F2D14046FFF7DFFC0F2113
:100BE00002465846FFF7E0FE2A4600215846FFF726
:100BF000DBFEA6E70D2158460393FFF7AFFE2A6AF6
:100C0000039B8242B7D1AA6A9045B4D1002704223F
:100C1000C5E90B724244AB626A63D8F80020BA425D
:100C200055DB01220292AAE7039408F1040A002688
:100C300005F158071C460DE050460497FFF776FD76
:100C40000022014604AB284601360AF1040AAFF33C
:100C50000080E0B9A642EFD10D215846FFF77EFE95
:100C6000049BC5F82880C5E90803062014E704465C
:100C70000D215846FFF772FE049E2862022C04BF25
:100C8000EE6205F12C06C5E90968062004E7234653
:100C9000D8F80060039C6EE74046FFF77FFC08F140
:100CA00004020446AA632846AFF3008000283FF4FC
:100CB000F2AE22460F215846FFF776FE41E70C467A
:100CC00058460D21FFF74AFE26462862DBE7581CEE
:100CD00008EB800081E700BF000000000023B1E6C0
:100CE0000123AFE60223ADE62DE9F0430646C3B08B
:100CF00015461C46042900F2D180DFE801F0AC5112
:100D0000CF2A0300002C40F0C980102A00F2C680D0
:100D10000368DC0600F1E78020AF384600F0AAF94E
:100D2000B46B394600234FF0010C0CFA03F22A424F
:100D3000204603F1010303D050F8042B0A60044657
:100D4000042B01F10401F0D1B463384600F088F9B6
:100D500099E0032C40F0A28094B204EB1243102BD4
:100D60004FEA124500F29A8003681F0700F1C38022
:100D700020AF384600F052F9B26B07EBC50154B111
:100D80000B46D01A01EBC401E4001D5843F8045B84
:100D90008B42FAD12244B263384600F01DF972E06A
:100DA000012C4FEA124895B271D0052C76D108EB90
:100DB0000509B9F1200F71D8B8F10F0F72D8B9F148
:100DC000100F036800F29F80D90708D523F00103B4
:100DD000304643F0020340F8483B00F0F1F820AF02
:100DE000384600F0EDF8B36B002D00F0B9806D00CF
:100DF0006A1E07EBC80100250132043903EB8202A9
:100E000053F8040B41F8040F9342F9D1002D00F080
:100E1000A1804146102938BF10216B0010396F4660
:100E2000013B07EBC1010133043902EB830352F8A4
:100E3000040B41F8040F9A42F9D1012C00F088808C
:100E4000B8F10F0FB26302D820A800F0B5F8384609
:100E500000F0BAF817E00CBB806B23461FFA82FC47
:100E60000124371D04FA03F111EA0C0F024604D0E5
:100E700052F8041B47F8231010460133102BF1D110
:100E8000AC0400D4B063002043B0BDE8F08308EBAD
:100E90000503102B02D8B8F1100F14D1022043B073
:100EA000BDE8F083002DEED003685A075CD46F468E
:100EB000384600F08DF8B26B6B00A8F11001013BD1
:100EC00007EBC101AFE70368DA0759D420AF384612
:100ED00000F06EF8B36B002D89D10433B36338464C
:100EE00000F062F8CFE723F01003036000F5E8702C
:100EF00000F0C0F810E723F00803036000F5A870C5
:100F000000F08CF834E7D90708D523F0010343F04B
:100F1000020340F8483B00F053F83368580706D501
:100F2000304623F0040340F8D03B00F051F820AFE6
:100F3000384600F045F8684600F04AF8C8F110025B
:100F40005200B36BA9F11005013A07EBC80153E752
:100F500020AFC2E7012CC0D0B8F10F0FB36392D815
:100F6000384600F029F88EE723F0040340F8D03B20
:100F70006F4600F02DF8384600F02AF8B26B9BE778
:100F8000304623F0030340F8483B00F011F89DE79A
:100F900000F1340191E838009C46A6464CF8045D07
:100FA00090E8FF0FE54600BD90EC210B704700BFB5
:100FB00080EC210B704700BF90EC200B704700BF06
:100FC00080EC200B704700BFD0EC200B704700BFB7
:100FD000C0EC200B704700BFF0EC0201F0EC0211F6
:100FE000F0EC0221F0EC0231F0EC0241F0EC0251A5
:100FF000F0EC0261F0EC0271F0EC0281F0EC029195
:10100000F0EC02A1F0EC02B1F0EC02C1F0EC02D184
:10101000F0EC02E1F0EC02F1704700BFE0EC0201FD
:10102000E0EC0211E0EC0221E0EC0231E0EC0241E4
:10103000E0EC0251E0EC0261E0EC0271E0EC0281D4
:10104000E0EC0291E0EC02A1E0EC02B1E0EC02C1C4
:10105000E0EC02D1E0EC02E1E0EC02F1704700BF0D
:10106000B0FC0181B0FC0191B0FC01A1B0FC01B168
:10107000704700BFA0FC0181A0FC0191A0FC01A170
:10108000A0FC01B1704700BFEC4600B52DE900504F
:101090002DE9FF1F4FF000032DE90C0001A9FFF718
:1010A000D7FBDDF840E012B0704700BFEC4600B55A
:1010B0002DE900502DE9FF1F4FF000032DE90C0032
:1010C00001A9FFF701FCDDF840E012B0704700BF56
:1010D000EC4600B52DE900502DE9FF1F4FF000034D
:1010E0002DE90C0001A9FFF711FCDDF840E012B07A
:1010F000704700BFEC4600B52DE900502DE9FF1FF9
:101100004FF000032DE90C0001ABFFF7D5FBDDF834
:1011100040E012B0704700BFEC4600B52DE900502A
:101120002DE9FF1F4FF000032DE90C0001AAFFF786
:1011300047FCDDF840E012B0704700BF027A03467A
:101140007AB9427AA2B14168013A10B44272086891
:1011500003220C1D1A7202025C60000E10BC1A60A1
:1011600070470068013A1A7202021A60000E704756
:10117000B020704700B585B0002303AA009219463D
:101180000C22FFF7D3FB039805B05DF804FB00BF0A
:10119000F0E700BF2DE9F043064685B00D464FF05D
:1011A00000082846FFF7CAFFB028044600F0DA809E
:1011B000070646D500F0F003802B5ED0B02B73D02D
:1011C0001BD8902B00F09B80A02B12D1C34303F0BF
:1011D00007034FF47F621A41010702F47F6201D5D1
:1011E00042F48042002319463046FFF77DFD002877
:1011F000D7D0092005B0BDE8F083C02B6DD1C6283B
:1012000000F09380C72800F0B28000F0F803C02BF4
:1012100000F0D280C82800F0DD80C928E9D1284636
:10122000FFF78CFF020300F00F0002F47022013080
:101230000243012105233046FFF756FD0028B0D0B8
:10124000D7E78300DBB21F1D0DF10C0900231946FF
:10125000CDF800900D223046FFF768FB039BCDF8D8
:10126000009060064CBFDF1BFF1800230D221946BB
:1012700030460397FFF780FB93E72846FFF75EFFB2
:1012800024022043B0F5004FB3D004010023A2B2E2
:1012900019463046FFF728FD0028AAD114F4004F64
:1012A00018BF4FF001087CE7B12851D0B22800F0F8
:1012B000AD80B3286DD000F0FC03B42B99D000F0C2
:1012C00007020132012342F4002219463046FFF79B
:1012D0000BFD00283FF465AF8BE700F0F803D02B3F
:1012E00087D100F007020132052342F400220121D8
:1012F0003046FFF7F9FC00283FF453AF79E700F0E0
:101300000D030D2B3FF475AF03AF002300F00F0268
:10131000194600973046FFF709FB002300970D227E
:1013200019463046FFF728FB3BE72846FFF706FF44
:10133000020300F00F00013002F470220323024385
:1013400019463046FFF7D0FC00283FF42AAF50E79B
:101350002846FFF7F3FE431EDBB20E2B02467FF654
:1013600041AF46E7B8F1000F40D0002042E72846E1
:10137000FFF7E4FE431EDBB20E2B02463FF639AF09
:10138000002304213046FFF7AFFC00283FF409AFEB
:101390002FE72846FFF7D2FE020300F00F000130CE
:1013A00002F470220123024319463046FFF79CFCE9
:1013B00000283FF4F6AE1CE700F00F0201320323D1
:1013C00042F4202219463046FFF78EFC00283FF4F5
:1013D000E8AE0EE72846FFF7B1FE00F0F00200F09D
:1013E0000F031032013343EA023222E703AC4346D3
:1013F00041460E2200943046FFF798FA0094434687
:101400000F2241463046FFF7B7FAAEE700230DF151
:101410000C090D221946CDF800903046FFF786FAE8
:101420002846FFF78BFE0206039C4FF002070BD500
:1014300000F07F00B840044428460394FFF77EFE86
:10144000030607F10707F3D400FA07F204F5017465
:10145000224400230392CDF800900D221946304615
:10146000FFF78AFA9DE600BF10B5C26C536884B0DE
:101470004FF0030C08321C0208461B0E01A9019410
:1014800002928DF80CC08DF80D30FFF783FE04B08A
:1014900010BD00BF08B5FFF77BFE806C08BD00BF24
:1014A00008B5FFF775FEC06CC379023300EB83000B
:1014B00008BD00BF704700BF10B514460A2392B2A2
:1014C000024802F064F8204610BD00BFEC01002085
:1014D00072B6FEE700B595B03422002107A802F0ED
:1014E0001DFC00230293039304930593069300933A
:1014F000204A116C41F080511164126C02F080524C
:101500000092009A01931C4A136823F4404343F469
:1015100080431360136803F440430193019B01234C
:1015200007934FF48033089302230D934FF4800206
:101530000E9208220F92502210921193129313933D
:1015400007A800F01DFF80B90F2302930221039129
:10155000002304934FF480530593069302A800F0F0
:1015600077FD20B915B05DF804FBFFF7B1FFFFF779
:10157000AFFF00BF003802400070004008B50E4BBE
:101580001B680021986802F079F901F0A1FAFFF7D1
:10159000A1FF00F013F800F0BBF900F09FFA00F093
:1015A00085F800F0FBFA00F013FB00F041FA02F0BE
:1015B000E9F802F0F3F8FCE718000020F0B58BB072
:1015C0000024059406940794089409940094334BDE
:1015D0001A6B42F080021A631A6B02F080020092CA
:1015E000009A01941A6B42F004021A631A6B02F01B
:1015F00004020192019A02941A6B42F001021A63EA
:101600001A6B02F001020292029A03941A6B42F0E2
:1016100002021A631A6B02F002020392039A049404
:101620001A6B42F008021A631B6B03F00803049361
:10163000049B1B4F22460421384601F0B3F9194D93
:1016400022464FF47471284601F0ACF94FF48053F0
:1016500005930694079405A9134801F0B3F80423F1
:101660000593012606960794089405A9384601F0CB
:10167000A9F8282305930694079405A9284601F0A4
:10168000A1F84FF47473059306960794089405A97E
:10169000284601F097F80BB0F0BD00BF00380240BB
:1016A000000C0240000402400008024000B585B072
:1016B000002300930193029303931448144A026099
:1016C000436083600361037680F82030C362114A6F
:1016D0008262C3600122C26180F83030426100F052
:1016E000B5FB60B900230093012201920293694681
:1016F000064800F0D7FB28B905B05DF804FBFFF7FA
:10170000E7FEEFE7FFF7E4FEF6E700BF8400002006
:10171000002001400100000F30B58BB0002305937D
:101720000693079308930993026803F1804303F536
:1017300090339A4201D00BB030BD0024019403F5E0
:101740008C335A6C42F480725A645A6C02F4807280
:101750000192019A02941A6B42F004021A631A6B06
:1017600002F004020292029A03941A6B42F0010200
:101770001A631A6B02F001020392039A04941A6B23
:1017800042F002021A631B6B03F002030493049BF2
:101790000F2305930325069505A9094801F012F8C2
:1017A000FF2305930695079405A9064801F00AF85A
:1017B00005950695079405A9034801F003F8BAE7D3
:1017C00000080240000002400004024084B00368A8
:1017D000184A934207D0B3F1804F11D0164A934272
:1017E0001BD004B0704700230193144B5A6C42F095
:1017F00001025A645B6C03F001030193019BF0E763
:10180000002302930D4B1A6C42F001021A641B6C08
:1018100003F001030293029BE3E700230393074BCA
:101820001A6C42F002021A641B6C03F00203039369
:10183000039BD6E70000014000040040003802404E
:1018400000B589B00023039304930593069307938F
:101850000368294A934208D0B3F1804F1DD0274A2C
:10186000934232D009B05DF804FB00230093244B6F
:101870001A6B42F001021A631B6B03F00103009321
:10188000009B4FF470630393022304930123079397
:1018900003A91C4800F096FFE4E700230193184BCE
:1018A0001A6B42F002021A631B6B03F002030193EE
:1018B000019B4FF480630393022304930123079356
:1018C00003A9114800F07EFFCCE7002302930C4BE4
:1018D0001A6B42F004021A631B6B03F004030293B9
:1018E000029B4FF44073039302230493079303A9CD
:1018F000064800F067FFB5E7000001400004004023
:10190000003802400000024000040240000802408B
:1019100010B596B000241294139414941594109456
:10192000119409940A940B940C940D940E940F94B2
:101930002022214601A802F0F1F93B483B4B03600D
:101940004460846040F6C313C360046144618461F1
:1019500001F032FA00284BD14FF48053129312A9B0
:10196000314801F034FB002845D12F4801F050FAEE
:10197000002843D100231093119310A92A4801F0A5
:1019800037FC00283DD16023099300220A920B9274
:101990000C920D920E920F9209A9234801F09CFA25
:1019A000002831D1042209A91F4801F095FA70BB23
:1019B000082209A91C4801F08FFA58BB0C2209A97A
:1019C000194801F089FA40BB002301930293039365
:1019D000049305934FF400520692089301A912480C
:1019E00001F04CFCE0B91048FFF72AFF16B010BD1B
:1019F000FFF76EFDB0E7FFF76BFDB6E7FFF768FD99
:101A0000B8E7FFF765FDBEE7FFF762FDCAE7FFF73E
:101A10005FFDCDE7FFF75CFDD0E7FFF759FDD3E7AA
:101A2000FFF756FDDFE700BF5C010020000001402A
:101A300000B58FB000230A930B930C930D9308937A
:101A400009930193029303930493059306930793D9
:101A500021484FF08042026009224260836042F2D6
:101A60000F72C2600361836101F0A6F928BB4FF4D5
:101A700080530A930AA9184801F0A9FA00BB164836
:101A800001F0C6F9F8B900230893099308A9124890
:101A900001F0AEFBD0B960230193002302930393BE
:101AA0000593082201A90C4801F016FA88B90A48E2
:101AB000FFF7C6FE0FB05DF804FBFFF709FDD6E7A0
:101AC000FFF706FDDBE7FFF703FDDCE7FFF700FDAF
:101AD000E1E7FFF7FDFCEAE71401002000B58FB055
:101AE00000230A930B930C930D930893099301938E
:101AF0000293039304930593069307932548264A7C
:101B000002604360836040F2E732C2600361836138
:101B100001F052F958BB4FF480530A930AA91D48AB
:101B200001F055FA30BB1B4801F072F928BB0023C5
:101B30000893099308A9174801F05AFB00BB6023DA
:101B400001930023029303930593082201A91148EE
:101B500001F0C2F9B8B90C2201A90E4801F0BCF994
:101B6000A0B90C48FFF76CFE0FB05DF804FBFFF75F
:101B7000AFFCD0E7FFF7ACFCD5E7FFF7A9FCD6E751
:101B8000FFF7A6FCDBE7FFF7A3FCE4E7FFF7A0FC09
:101B9000E7E700BFCC0000200004004008B50A4879
:101BA0000A4B03604FF4E133436000238360C3605A
:101BB00003610C2242618361C36101F0B2FC00B990
:101BC00008BDFFF785FCFBE7EC010020004C00405E
:101BD00008B50A480A4B03604FF4E1334360002321
:101BE0008360C36003610C2242618361C36101F0C1
:101BF00068FC00B908BDFFF76BFCFBE7A4010020FF
:101C00000014014000B58BB00023059306930793A1
:101C1000089309930368284A934205D0274A9342C0
:101C200026D00BB05DF804FB00210191244B1A6C07
:101C300042F400221A641A6C02F400220192019A02
:101C400002911A6B42F004021A631B6B03F0040347
:101C50000293029B4FF480630593122306930323A0
:101C600008930823099305A9164800F0ABFDD8E7AF
:101C700000210391124B5A6C42F020025A645A6CB4
:101C800002F020020392039A04911A6B42F00402BC
:101C90001A631B6B03F004030493049BC023059396
:101CA00002230693032308930823099305A90548F3
:101CB00000F088FDB5E700BF004C00400014014073
:101CC0000038024000080240FEE7FEE7FEE7FEE7BC
:101CD000FEE770477047704708B500F013FF08BD76
:101CE00082B0002100910B4B5A6C42F480425A643E
:101CF0005A6C02F480420092009A01911A6C42F0F0
:101D000080521A641B6C03F080530193019B02B054
:101D1000704700BF003802404A4B5A6822F44032F4
:101D20005A605A6841680A435A600268536823F44B
:101D30008073536002685368016943EA012353606A
:101D40000268536823F040735360026853688168E7
:101D50000B4353600268936823F400639360026846
:101D60009368C1680B439360826A374B9A4257D09D
:101D70000268936823F07063936002689368816AD5
:101D80000B4393600268936823F0405393600268AA
:101D90009368C16A0B4393600268936823F002035F
:101DA000936002689368017E43EA4103936090F870
:101DB0002030002B3FD00268536843F40063536027
:101DC0000268536823F46043536001684B68426AB9
:101DD000013A43EA42334B600268D36A23F470034A
:101DE000D3620168CB6AC269013A43EA0253CB620B
:101DF0000268936823F4007393600268936890F814
:101E0000301043EA412393600268936823F48063AF
:101E1000936002689368416943EA81239360704745
:101E20000268936823F0706393600268936823F0FC
:101E300040539360B0E70268536823F40063536033
:101E4000CAE700BF002301400100000F38B310B5FE
:101E50000446036C43B1236C13F0100F0BD0012028
:101E6000002384F83C3010BDFFF756FC0023636468
:101E700084F83C30EFE7236C23F4885323F002030B
:101E800043F0020323642046FFF746FF002060640E
:101E9000236C23F0030343F001032364E0E70120F4
:101EA0007047000030B482B00022019290F83C20CC
:101EB000012A00F0C0800346012280F83C200A6815
:101EC000092A40D90468E06892B202EB42021E3A45
:101ED0004FF0070C0CFA02F220EA0202E2601C68E2
:101EE000E0680A8802EB42021E3A8D6805FA02F2A7
:101EF0000243E2604A68062A3CD81C68606B02EB29
:101F00008202053A4FF01F0C0CFA02F220EA02029C
:101F100062631C68606B4A6802EB8202053AB1F8A2
:101F200000C00CFA02F2024362631868434A90420E
:101F300050D01868414A904259D0002083F83C00A4
:101F400002B030BC70470468206992B202EB4202D2
:101F50004FF0070C0CFA02F220EA020222611C6820
:101F600020690A8802EB42028D6805FA02F20243F8
:101F70002261BFE70C2A16D81D68286B02EB82028B
:101F8000233A1F2404FA02F220EA02022A631D689F
:101F9000286B4A6802EB8202233A0C8804FA02F2A8
:101FA00002432A63C1E71D68E86A02EB8202413AF4
:101FB0001F2404FA02F220EA0202EA621D68E86ABB
:101FC0004A6802EB8202413A0C8804FA02F20243A8
:101FD000EA62AAE70A68122AABD1194A506820F4CB
:101FE00000005060506840F480005060A1E70A682B
:101FF0001448824201D0112A9FD1114A506820F41E
:1020000080005060506840F40000506009680D4A3C
:10201000914292D10C4A12680C49A1FB0212920C17
:1020200002EB820252000192019A002A85D0019AA5
:10203000013A0192F8E7022082E700BF0020014048
:1020400000230140120000100800002083DE1B4323
:10205000002800F09B8070B50D4604464F4B1B686E
:1020600003F00F038B4208D2CBB24C4A13701368B3
:1020700003F00F038B4240F08B80236813F0020FB4
:1020800017D013F0040F04D0454A936843F4E0538B
:102090009360236813F0080F04D0414A936843F417
:1020A000604393603E4A936823F0F003A1680B43BA
:1020B0009360236813F0010F32D06368012B21D0A5
:1020C0009A1E012A25D9364A126812F0020F61D0F1
:1020D00033498A6822F0030213438B6000F01EFD2F
:1020E00006462F4B9B6803F00C036268B3EB820F2C
:1020F00016D000F013FD801B41F288339842F0D9CE
:10210000032042E0264A126812F4003FE0D1012089
:102110003BE0234A126812F0007FD9D1012034E05D
:102120001E4B1B6803F00F03AB4207D9EAB21B4BEF
:102130001A701B6803F00F03AB422DD1236813F014
:10214000040F06D0164A936823F4E053E1680B436A
:102150009360236813F0080F07D0114A936823F4A3
:102160006043216943EAC103936000F047F80C4BD8
:102170009B68C3F303130B4AD35CD8400A4B186027
:102180000A4B186800F07EFC002070BD01207047EB
:102190000120FAE70120F8E70120F6E7003C0240C1
:1021A00000380240F4490008080000200400002024
:1021B000014B1868704700BF0800002008B5FFF702
:1021C000F7FF044B9B68C3F38223034AD35CD840D8
:1021D00008BD00BF00380240EC49000808B5FFF711
:1021E000E7FF044B9B68C3F34233034AD35CD840F8
:1021F00008BD00BF00380240EC49000808B55E4B3E
:102200009B6803F00C03082B03D00C2B5BD05B48BE
:1022100008BD594B5A6802F03F025B6813F4800F07
:102220002CD0554B5868C0F388104FEA401CBCEBCB
:10223000000C6EEB0E0E4FEA8E1343EA9C634FEADE
:102240008C11B1EB0C0163EB0E03DB0043EA51731D
:10225000C90011EB000C43F10003990200234FEA7F
:102260008C2041EA9C51FEF723F8434B5B68C3F393
:10227000014301335B00B0FBF3F0C9E73E4B586804
:10228000C0F388104FEA401CBCEB000C6EEB0E0E46
:102290004FEA8E1343EA9C634FEA8C11B1EB0C01B9
:1022A00063EB0E03DB0043EA5173C90011EB000C32
:1022B00043F10003990200234FEA8C2041EA9C512C
:1022C000FDF7F6FFD1E72C4B5A6802F03F025B683E
:1022D00013F4800F2AD0284B5868C0F388104FEAB7
:1022E000401CBCEB000C6EEB0E0E4FEA8E1343EA63
:1022F0009C634FEA8C11B1EB0C0163EB0E03DB0026
:1023000043EA5173C90011EB000C43F10003990239
:1023100000234FEA8C2041EA9C51FDF7C9FF164B80
:102320005B68C3F30273B0FBF3F071E7124B5868BC
:10233000C0F388104FEA401CBCEB000C6EEB0E0E95
:102340004FEA8E1343EA9C634FEA8C11B1EB0C0108
:1023500063EB0E03DB0043EA5173C90011EB000C81
:1023600043F10003990200234FEA8C2041EA9C517B
:10237000FDF79EFFD3E700BF003802400024F400C1
:10238000002800F0018270B582B00446036813F0A3
:10239000010F41D0994B9B6803F00C03042B32D002
:1023A000964B9B6803F00C03082B27D0934B9B683C
:1023B00003F00C030C2B59D06368B3F5803F5BD05E
:1023C000B3F5A02F5ED08D4B1A6822F480321A60CC
:1023D0001A6822F480221A606368002B5CD000F037
:1023E0009DFB0546854B1B6813F4003F14D100F09C
:1023F00095FB401B6428F5D90320CCE17F4B5B683B
:1024000013F4800FD2D07D4B1B6813F4003F03D030
:102410006368002B00F0BA81236813F0020F60D0CC
:10242000764B9B6813F00C0F4AD0744B9B6803F0FB
:102430000C03082B3FD0714B9B6803F00C030C2B53
:1024400069D0E368002B75D06D4B01221A6000F053
:1024500065FB0546694B1B6813F0020F61D100F064
:102460005DFB401B0228F5D9032094E1634B5B68B8
:1024700013F4800FA0D0C6E7604A136843F480339A
:102480001360A9E75D4B1A6842F480221A601A684B
:1024900042F480321A609FE700F040FB0546574B3C
:1024A0001B6813F4003FB7D000F038FB401B6428D2
:1024B000F5D903206FE1514B5B6813F4800FBAD15B
:1024C0004E4B1B6813F0020F03D0E368012B40F062
:1024D0005F814A4A136823F0F803216943EAC10384
:1024E0001360236813F0080F49D06369002B33D0C1
:1024F000434B0122C3F8802E00F010FB05463F4BF2
:102500005B6F13F0020F3AD100F008FB401B02286A
:10251000F5D903203FE1394B5B6813F4800F90D16C
:10252000CEE7364A136823F0F803216943EAC10372
:102530001360D6E7324B00221A6000F0EFFA05462E
:102540002E4B1B6813F0020FCBD000F0E7FA401BB4
:102550000228F5D903201EE1294B0022C3F8802E62
:1025600000F0DCFA0546254B5B6F13F0020F06D036
:1025700000F0D4FA401B0228F5D903200BE12368B0
:1025800013F0040F76D01D4B1B6C13F0805F33D11A
:1025900000230193194B1A6C42F080521A641B6C91
:1025A00003F080530193019B0125164B1B6813F424
:1025B000807F29D0A368012B3AD0052B3ED00F4B4A
:1025C0001A6F22F001021A671A6F22F004021A67CA
:1025D000A368002B3CD000F0A1FA0646074B1B6F06
:1025E00013F0020F45D100F099FA801B41F28833B5
:1025F0009842F3D90320CEE00025D6E70038024008
:1026000000004742007000406B4A136843F4807337
:10261000136000F083FA0646674B1B6813F4807F53
:10262000C8D100F07BFA801B0228F5D90320B2E064
:10263000624A136F43F001031367C9E75F4B1A6FD8
:1026400042F004021A671A6F42F001021A67BFE7EC
:1026500000F064FA0646594B1B6F13F0020F08D0C6
:1026600000F05CFA801B41F288339842F3D90320D2
:1026700091E0EDB9A369002B00F08C804F4A92687D
:1026800002F00C02082A54D0022B17D04C4B002227
:102690001A6600F043FA0446484B1B6813F0007FAB
:1026A00045D000F03BFA001B0228F5D9032072E068
:1026B000424A136C23F080531364DBE7404B002243
:1026C0001A6600F02BFA05463C4B1B6813F0007F9E
:1026D00006D000F023FA401B0228F5D903205AE067
:1026E000E369226A1343626A43EA8213A26A5208C8
:1026F000013A43EA0243E26A43EA0263226B43EA95
:1027000002732E4A53602E4B01221A6600F006FA1D
:1027100004462A4B1B6813F0007F06D100F0FEF937
:10272000001B0228F5D9032035E0002033E000200B
:1027300031E0012B31D0214B5B6803F48001E26969
:1027400091422CD103F03F02216A8A4229D1616A69
:1027500047F6C0721A40B2EB811F24D103F4403116
:10276000A26A5208013AB1EB024F1ED103F0706227
:10277000E16AB2EB016F1AD103F0E043226BB3EBD5
:10278000027F16D1002006E001207047012002E000
:10279000012000E0002002B070BD0120FBE7012015
:1027A000F9E70120F7E70120F5E70120F3E7012031
:1027B000F1E70120EFE700BF007000400038024061
:1027C0000000474200230F2B00F2E38070B582B077
:1027D00065E085684FEA430E032404FA0EF425EA07
:1027E0000405CC6804FA0EF42C438460446824EA9F
:1027F00002044A68C2F300129A40224342605CE03D
:10280000DC08083450F8242003F00705AD004FF031
:102810000F0E0EFA05FE22EA0E0E0A69AA4042EADF
:102820000E0240F824205CE0062200E0002202FABA
:102830000EF22A430234574D45F82420564A946834
:102840006FEA0C0224EA0C054E6816F4801F01D0D2
:102850004CEA0405504CA560E46802EA04054E68A1
:1028600016F4001F01D04CEA04054B4CE560646887
:1028700002EA04054E6816F4003F01D04CEA040554
:10288000454C6560246822404D6815F4803F01D0B6
:102890004CEA0402404C226001330F2B77D801220E
:1028A0009A400C6804EA020C32EA0404F4D14C6841
:1028B00004F00304013C012C8BD94A6802F00302A6
:1028C000032A09D0C4685D000322AA4024EA020456
:1028D0008A68AA402243C2604A6802F00302022AC0
:1028E0008ED004684FEA430E032202FA0EF224EA65
:1028F00002044A6802F0030202FA0EF22243026066
:102900004A6812F4403FC7D000220192234A546C17
:1029100044F480445464526C02F480420192019A5F
:102920009C08A51C1B4A52F8255003F0030E4FEAE1
:102930008E0E0F2202FA0EF225EA0205184A904284
:102940003FF474AF02F58062904216D002F58062C7
:10295000904214D002F58062904212D002F580625B
:10296000904210D002F5806290420ED002F5806253
:1029700090423FF459AF072259E7012257E702225C
:1029800055E7032253E7042251E705224FE702B03F
:1029900070BD704700380140003C014000380240E3
:1029A000000002400AB181617047090481617047EB
:1029B000002808DB0901C9B200F1604000F5614060
:1029C00080F80013704700F00F000901C9B2014BF5
:1029D0001954704714ED00E000B500F00700C0F195
:1029E000070CBCF1040F28BF4FF0040C031D062B8D
:1029F0000FD9C31E4FF0FF3E0EFA0CF021EA000182
:102A000099400EFA03FE22EA0E0241EA02005DF846
:102A100004FB0023EEE70000074AD36823F4E063D9
:102A20001B041B0C000200F4E060034343F0BF638F
:102A300043F40033D360704700ED00E010B5044666
:102A4000054BD868C0F30220FFF7C6FF01462046B9
:102A5000FFF7AEFF10BD00BF00ED00E00138B0F1A0
:102A6000807F0BD24FF0E0235861054AF02182F8B5
:102A700023100020986107221A61704701207047D7
:102A800000ED00E010B504460E4B1A784FF47A734F
:102A9000B3FBF2F30C4A1068B0FBF3F0FFF7DEFF74
:102AA00068B90F2C01D901200AE0002221464FF01D
:102AB000FF30FFF7C3FF054B1C60002000E0012042
:102AC00010BD00BF0000002008000020040000200E
:102AD00008B50B4B1A6842F400721A601A6842F487
:102AE00080621A601A6842F480721A600320FFF74D
:102AF00093FF0F20FFF7C6FFFFF7F2F8002008BD95
:102B0000003C0240034A1168034B1B780B441360DE
:102B1000704700BF3402002000000020014B1868FD
:102B2000704700BF3402002038B50446FFF7F6FFB7
:102B30000546B4F1FF3F02D0044B1B781C44FFF75D
:102B4000EDFF401BA042FAD338BD00BF00000020BB
:102B500030B4036A026A22F00102026242688469A8
:102B600024F0730C0C6844EA0C0423F0020C8B680C
:102B700043EA0C03114DA84203D005F58065A84235
:102B800005D123F00803CD682B4323F004030B4D3C
:102B9000A84203D005F58065A84207D122F440720F
:102BA0004D6945EA020C8A6942EA0C02426084617E
:102BB0004A684263036230BC704700BF00000140B6
:102BC00030B4036A026A22F4807202624268C46905
:102BD00024F0730C0C6844EA0C0523F400738C6831
:102BE00043EA0423114CA04203D004F58064A042C0
:102BF00006D123F40063CC6843EA042323F4806302
:102C00000A4CA04203D004F58064A04207D122F40C
:102C100040524C6942EA04128C6942EA0412426052
:102C2000C5614A68C263036230BC7047000001405E
:102C300030B4036A026A22F4805202624468C269B4
:102C400022F4E6420D6842EA052223F400538D681F
:102C500043EA0533094DA84203D005F58065A84233
:102C600004D124F480444D6944EA85144460C2616F
:102C70004A680264036230BC704700BF0000014034
:102C800010B4036A046A24F001040462846924F025
:102C9000F00C4CEA021223F00A030B438261036238
:102CA0005DF8044B704710B4036A046A24F0100402
:102CB0000462846924F4704C4CEA023223F0A003CD
:102CC00043EA0113826103625DF8044B7047836835
:102CD00023F070030B4343F0070383607047704792
:102CE0000368344A904212D0B0F1804F0FD0A2F561
:102CF0007C4290420BD002F58062904207D002F5F0
:102D00008062904203D002F57842904203D123F0D2
:102D100070034A681343274A90422AD0B0F1804F8B
:102D200027D0A2F57C42904223D002F580629042E7
:102D30001FD002F5806290421BD002F5784290428B
:102D400017D002F57052904213D002F58062904283
:102D50000FD002F5806290420BD0A2F598329042DB
:102D600007D002F58062904203D002F58062904263
:102D700003D123F44073CA68134323F080034A69E4
:102D8000134303608B68C3620B688362094B9842EC
:102D900003D003F58063984201D10B6903630123DB
:102DA0004361036913F0010F03D0036923F00103AA
:102DB000036170470000014040B310B5044690F82D
:102DC0003D30F3B1022384F83D30214651F8040B25
:102DD000FFF786FF012384F8463084F83E3084F8FC
:102DE0003F3084F8403084F8413084F8423084F831
:102DF000433084F8443084F8453084F83D30002076
:102E000010BD80F83C30FEF7E1FCDBE701207047A5
:102E100040B310B5044690F83D30F3B1022384F876
:102E20003D30214651F8040BFFF75AFF012384F887
:102E3000463084F83E3084F83F3084F8403084F8DF
:102E4000413084F8423084F8433084F8443084F8C8
:102E5000453084F83D30002010BD80F83C30FFF74D
:102E60003EFFDBE70120704730B4036A026A22F0BC
:102E7000100202624468826922F4E6420D6842EA66
:102E8000052223F020038D6843EA0513114DA84263
:102E900003D005F58065A84206D123F08003CD68F4
:102EA00043EA051323F040030A4DA84203D005F579
:102EB0008065A84207D124F440644D6944EA850442
:102EC0008D6944EA8504446082614A6882630362D2
:102ED00030BC70470000014038B590F83C30012B01
:102EE00066D004460D46012380F83C300C2A5AD89F
:102EF000DFE802F0075959591B59595930595959A6
:102F000044000068FFF724FE2268936943F0080339
:102F100093612268936923F00403936122689369A3
:102F200029690B43936100203EE00068FFF79CFF96
:102F30002268936943F4006393612268936923F4E0
:102F40008063936122689369296943EA012393614D
:102F5000002029E00068FFF733FE2268D36943F0C0
:102F60000803D3612268D36923F00403D361226884
:102F7000D36929690B43D361002015E00068FFF78E
:102F800057FE2268D36943F40063D3612268D36992
:102F900023F48063D3612268D369296943EA01235A
:102FA000D361002000E00120002384F83C3038BDCC
:102FB0000220FCE710B4846824F47F4C42EA032228
:102FC0000A4342EA0C0282605DF8044B704790F8B5
:102FD0003C30012B78D010B50446012380F83C30FA
:102FE000022380F83D300268936823F47F4323F086
:102FF000770393600B68602B4CD029D8402B54D0BA
:103000000CD9502B22D1CA6849680068FFF738FEF6
:1030100050212068FFF75BFE002005E0202B0DD03B
:1030200009D9302B0AD00120012384F83D30002338
:1030300084F83C3010BD0BB1102B05D11946206827
:10304000FFF745FE0020EFE70120EDE70120EBE769
:10305000B3F5805F34D0B3F5005F0CD1CB684A681C
:1030600089680068FFF7A6FF2268936843F48043ED
:1030700093600020D8E7702B24D1CB684A68896818
:103080000068FFF797FF2268936843F07703936027
:103090000020C9E7CA6849680068FFF704FE60219C
:1030A0002068FFF714FE0020BEE7CA684968006880
:1030B000FFF7E6FD40212068FFF709FE0020B3E797
:1030C0000020B1E70120AFE70220704701F01F01A7
:1030D0004FF0010C0CFA01FC036A23EA0C030362B3
:1030E000036A8A40134303627047000010B5044628
:1030F0000846002942D194F83E30DBB2013B18BFAC
:103100000123002B6ED1002851D1022384F83E30D8
:10311000012201462068FFF7D9FF2368334A934212
:1031200003D002F58062934203D15A6C42F400420C
:103130005A6423682D4A934249D0B3F1804F46D058
:10314000A2F57C42934242D002F5806293423ED087
:1031500002F5806293423AD002F57842934236D02B
:1031600002F57052934232D0A2F5943293422ED09F
:103170001A6842F001021A60002032E0042908D0E7
:1031800008290DD094F84130DBB2013B18BF012370
:10319000B7E794F83F30DBB2013B18BF0123B0E73B
:1031A00094F84030DBB2013B18BF0123A9E70428A3
:1031B00005D0082807D0022384F84130A8E702236D
:1031C00084F83F30A4E7022384F84030A0E79A68EF
:1031D00002F00702062A07D01A6842F001021A60BC
:1031E000002010BD0120FCE70020FAE700000140AC
:1031F00090F83C20012A3DD010B40346012280F80B
:103200003C20022280F83D2002685068946820F03B
:10321000700C086840EA0C0050601A681648824238
:103220001AD0B2F1804F17D0A0F57C40824213D063
:1032300000F5806082420FD000F5806082420BD0A2
:1032400000F57840824207D000F57050824203D0EA
:10325000A0F59430824204D124F0800449682143CF
:103260009160012283F83D20002083F83C005DF846
:10327000044B70470220704700000140024690F85E
:103280003C30012B21D0012380F83C30CB6823F463
:1032900040738868034323F480634868034323F43E
:1032A00000630868034323F480530869034323F44D
:1032B00000534869034323F48043C9690B431168F1
:1032C0004B64002082F83C0070470220704702687F
:1032D00002F10C0353E8003F23F490730C3242E8F0
:1032E00000310029F3D1026802F1140353E8003FD2
:1032F00023F00103143242E800310029F3D1036BBB
:10330000012B05D0202380F842300023036370474F
:10331000026802F10C0353E8003F23F010030C3263
:1033200042E800310029F3D1ECE7000010B5044673
:103330000268136923F44053C1680B431361836827
:1033400002691A4343691A43C3691A430168CB6887
:1033500023F4164323F00C031343CB600268536934
:1033600023F4407381690B4353610368314A9342EC
:1033700006D002F58062934202D0FEF71FFF01E003
:10338000FEF72CFFE369B3F5004F29D000210318A5
:1033900049411B1841F10001C90041EA5371DB00AA
:1033A000181863684FEA83024FEA937341F10001F2
:1033B000FCF77EFF204AA2FB00314909642303FB8E
:1033C00011031B013233A2FB03235B0903F0F0025C
:1033D00002EB011203F00F03216813448B6010BD50
:1033E0000023021843EB0301121841F10001C90048
:1033F00041EA5271D200101841F10001626892183E
:103400005B41FCF755FF0C4AA2FB003149096423DC
:1034100003FB1103DB003233A2FB03235B095A00D9
:1034200002F4F87202EB011203F00703216813445F
:103430008B60D4E7001001401F85EB512DE9F0436C
:1034400083B005460E4617469946DDF828802B685E
:103450001C6836EA04040CBF01240024BC4228D1B5
:10346000B8F1FF3FF3D0FFF759FBA0EB090040454F
:1034700023D8B8F1000F22D02B68DA6812F0040FBD
:10348000E5D0802EE3D0402EE1D01A6812F0080F6C
:10349000DDD0002401941A6801925B680193019BBE
:1034A0002846FFF714FF08236B6485F8404001208D
:1034B00000E0002003B0BDE8F0830320FAE703201A
:1034C000F8E760B310B5044690F8413013B32423F5
:1034D00084F841302268D36823F40053D360204637
:1034E000FFF724FF2268136923F4904313612268D5
:1034F000536923F02A0353612268D36843F40053CD
:10350000D36000206064202384F8413084F8423086
:10351000606310BD80F84030FEF774FBD7E70120F0
:103520007047002831D010B5044690F841303BB3C5
:10353000242384F841302268D36823F40053D360F5
:103540002046FFF7F3FE2268136923F490431361CA
:103550002268536923F0220353612268536943F0C0
:10356000080353612268D36843F40053D3600020FA
:103570006064202384F8413084F84230606310BDD9
:1035800080F84030FEF73EFBD2E7012070472DE97E
:10359000F04182B01E4690F84130DBB2202B56D16C
:1035A00004460D469046002955D00AB901204FE047
:1035B00000234364212380F84130FFF7AFFA074628
:1035C000A4F82480A4F82680A368B3F5805F02D015
:1035D0004FF0000814E023692BB34FF000080FE010
:1035E000202384F84130032032E038F8023B22687F
:1035F000C3F308035360E28C92B2013A92B2E284C0
:10360000E38C9BB293B100963B460022802120467A
:10361000FFF714FF0028E3D1002DE6D015F8012BA9
:1036200023685A60E7E7A8460025E9E700963B468D
:10363000002240212046FFF701FF18B9202384F81B
:10364000413005E0202384F84130032000E00220CF
:1036500002B0BDE8F0810120FAE70000034AD2F889
:10366000883043F47003C2F88830704700ED00E002
:1036700010B503460C4A0D490D48006840B10C488E
:1036800000680344521A934206D8094A136010BDD9
:103690000748084C0460F2E700F06AFB0C23036063
:1036A0004FF0FF30F3E700BF0000022000040000ED
:1036B00038020020C80300200120704708B500F040
:1036C00057FB162303604FF0FF3008BD08B54FF0DD
:1036D000FF31FFF7F3FFFEE770B50C4616460025F5
:1036E00006E0AFF30080214601F8010B01350C46DE
:1036F000B542F6DB304670BD4FF0FF3070474FF4F7
:1037000000534B6000207047012070470020704735
:10371000DFF834D0FFF7A2FF0C480D490D4A002313
:1037200002E0D458C4500433C4188C42F9D30A4A76
:103730000A4C002301E013600432A242FBD300F0E4
:103740001DFBFDF71BFF704700000220000000205A
:1037500068000020704B000868000020C8030020AB
:10376000FEE70000012800D0704708B54FF6FF7350
:10377000994200D008BD024800F026F8FAE700BFE1
:103780003C02002008B5034800F058FA024800F057
:1037900059F808BD044A00083C02002008B5FA2088
:1037A000FFF7C2F908BD08B54FF6FF710120FFF71A
:1037B000D9FF08BD10B5044641680068FFF796FCC4
:1037C0002368DB68A36010BD38B504461A48206042
:1037D0000421A1800022FFF7E5F8184DA560102113
:1037E000A18100222846FFF7DDF825614021A18252
:1037F00000222846FFF7D6F8A5618021A183002288
:103800002846FFF7CFF825624FF48071A18400228B
:103810002846FFF7C7F8A5624FF40071A185002282
:103820002846FFF7BFF8064B23630C226263DB6870
:10383000A363204638BD00BF000C024000040240D4
:10384000CC00002010B504460B4800F05FFA04F1EC
:103850003000FFF7AFFF0122A1882068FFF7A2F830
:103860000122A189A068FFF79DF80122A18A2069A1
:10387000FFF798F810BD00BF044A0008B1FA81F2C2
:1038800052094FF48063520000F000B82DE9F7436D
:103890001D46574B1F6804460E46904627B13B6AAB
:1038A00013B9384600F032F9B8F1020F06D0B8F17A
:1038B000010F00F29A80002DC0F29780636ED90745
:1038C00005D4A3899A0502D4A06D00F07CFA2146A4
:1038D000384600F0C3FE616B41B104F144039942E4
:1038E00002D0384600F072FA002363630023A3611C
:1038F0006360A3891B0603D52169384600F066FA88
:10390000A38923F44A6323F00303B8F1020FA381D0
:1039100061D001AB6A462146384600F02DF9A389F3
:103920001843A0812DBB009D284600F0DBFB064616
:10393000002852D1DDF80090A94540D14FF0FF3565
:10394000B4F90C3043F00202A2810022A26004F11B
:1039500047022260226101226261626ED60704D4AE
:10396000980502D4A06D00F02FFA284603B0BDE8F8
:10397000F083002ED8D03B6A13B9384600F0C6F861
:10398000B8F1010F08BFA389266004BF43F001030B
:10399000A381B4F90C3013F00802C4E904651ED009
:1039A000D90741BF00226D42A260A56158BFA56042
:1039B000626ED20701D49B0513D50025D5E7484692
:1039C00000F090FB06460028B8D0A38943F080039E
:1039D000A3814D46CFE70025B2E7A946F5E7A260EF
:1039E000E6E7A06D00F0F0F9E7E74FF0FF35BCE740
:1039F00018000020002310B50446C0E90033C0E9D8
:103A00000433836081814366C28183611946082241
:103A10005C3000F083F90D4B63620D4BA3620D4BDC
:103A2000E3620D4B23630D4B24629C4206D003F1ED
:103A30006802944202D0D0339C4205D104F1580070
:103A4000BDE8104000F0BEB910BD00BFC54600087B
:103A5000E74600081F470008434700087C02002093
:103A6000024A0349034800F069B800BF0C00002077
:103A70005D4600081C00002041680C4B994210B5BF
:103A8000044601D000F0EAFDA168094B994202D03A
:103A9000204600F0E3FDE168064B994204D0204641
:103AA000BDE8104000F0DABD10BD00BF7C02002070
:103AB000E40200204C03002010B50B4B0B4C0C4AC9
:103AC0001A60204600220421FFF794FF04F16800E9
:103AD00001220921FFF78EFF04F1D0000222BDE888
:103AE00010401221FFF786BFB40300207C020020A3
:103AF000613A0008014800F066B900BFB903002030
:103B0000014800F061B900BFB903002010B50446B8
:103B1000FFF7F0FF236A1BB1BDE81040FFF7F0BFCD
:103B2000044B2362044B1B68002BF5D1FFF7C4FF45
:103B3000F2E700BF793A0008B40300202DE9F8430A
:103B40000746884614460026D4E90195B9F10109D3
:103B500005D52468002CF7D13046BDE8F883AB8941
:103B6000012B07D9B5F90E30013303D02946384669
:103B7000C04706436835E9E770B50C46B1F90E1049
:103B8000002996B015461E460DDAA38913F0800F62
:103B90004FF0000114BF40234FF4806300203160D8
:103BA0002B6016B070BD6A4600F0C0F80028ECDB50
:103BB000019901F47041A1F50053594259414FF464
:103BC0008063EBE78B89F7B59D0706460C4607D562
:103BD00004F14703236023610123636103B0F0BD57
:103BE00001AB6A46FFF7C8FF009F054639463046DD
:103BF00000F0A2FA48B9B4F90C309A05EED423F0DB
:103C0000030343F00203A381E2E7A389206043F0AA
:103C10008003A381019BC4E904075BB1B4F90E10D2
:103C2000304600F095F828B1A38923F0030343F050
:103C30000103A381A3891D43A581CFE70FB407B575
:103C4000064904AB086853F8042B8168019300F01F
:103C500031F903B05DF804EB04B0704718000020A0
:103C6000036A70B5846805460E460BB9FFF74EFF30
:103C7000636EDB0705D4A389980502D4A06D00F01C
:103C8000A2F8A389190702D52369002B35D1214653
:103C9000284600F099FD80B34FF0FF35636EDA07D8
:103CA00005D4A3899B0502D4A06D00F08DF82846A9
:103CB00070BD002B04DAA2699A4217DC0A2915D0DC
:103CC00023685A1C22601970A36816F8011F013B73
:103CD000A3600029EDD1002B11DA22460A212846E3
:103CE00000F033FD0130D7D00A25D7E72246284619
:103CF00000F02BFD0130E7D1CEE7013EE4E7236879
:103D00005A1C22600A221A70EEE70000024B01469C
:103D10001868FFF7A5BF00BF180000200244034643
:103D2000934200D1704703F8011BF9E738B5074DFE
:103D300000230446084611462B60FFF7E0FC431CB5
:103D400002D12B6803B1236038BD00BFC40300203B
:103D500038B5064D0023044608462B60FFF7D4FC17
:103D6000431C02D12B6803B1236038BDC40300207B
:103D7000014B1868704700BF1800002070B50D4D4A
:103D80000D4C641BA4100026A64209D10B4D0C4C0F
:103D900000F020FE641BA4100026A64205D170BDD1
:103DA00055F8043B98470136EEE755F8043B984731
:103DB0000136F2E7644B0008644B0008644B0008CE
:103DC0006C4B0008704770477047000038B50546D7
:103DD000002941D051F8043C0C1F002BB8BFE41857
:103DE00000F064FC1D4A136833B963601460284610
:103DF000BDE8384000F060BCA34208D92068211813
:103E00008B4201BF19685B6809182160EDE71A460B
:103E10005B680BB1A342FAD911685018A0420BD1CC
:103E200020680144501883421160E0D118685B6833
:103E3000536008441060DAE702D90C232B60D6E700
:103E4000206821188B4204BF19685B68636004BF57
:103E5000091821605460CAE738BD00BFC0030020C4
:103E60009368013B002B10B4936008DA9469A34275
:103E700001DB0A2903D15DF8044B00F066BC13682E
:103E8000581C1060197008465DF8044B7047F8B56F
:103E900006460F461446D518AC4201D1002007E073
:103EA00014F8011B3A463046FFF7DAFF431CF3D102
:103EB000F8BD00002DE9F04F0D469DB01446984620
:103EC000064618B1036A0BB9FFF720FE6B6ED907DF
:103ED00005D4AB899A0502D4A86DFFF774FFAB89AE
:103EE0001B0701D52B699BB92946304600F06CFCB5
:103EF00070B16B6EDC0704D54FF0FF301DB0BDE82C
:103F0000F08FAB899805F7D4A86DFFF75DFFF3E755
:103F10000023099320238DF82930CDF80C8030231D
:103F2000DFF8AC818DF82A304FF0010923469A461C
:103F300013F8012B0AB1252AF9D1BAEB040B0BD0E7
:103F40005B46224629463046FFF7A1FF013000F0CC
:103F5000A780099A5A4409929AF80030002B00F081
:103F60009F8000234FF0FF32CDE905230AF1010ABB
:103F7000049307938DF853301A935446052214F88E
:103F8000011B5348FCF744F9049AD8B9D10644BF41
:103F900020238DF85330130744BF2B238DF8533063
:103FA0009AF800302A2B15D0079A544600204FF07B
:103FB0000A0C214611F8013B303B092B4BD9B0B11B
:103FC000079214E0A0EB080309FA03F313430493E8
:103FD000A246D2E7039B191D1B680391002BBBBFB0
:103FE0005B4242F0020207930793B8BF0492237822
:103FF0002E2B0AD163782A2B32D1039B1A1D1B6802
:10400000039243EAE37302340593DFF8D4A02178E6
:1040100003225046FCF7FCF838B1049BA0EB0A00E1
:104020004022824013430134049314F8011B2948B1
:104030008DF828100622FCF7EBF800283FD0264B1D
:104040001BBB039B073323F0070308330393099B30
:104050003B4409936AE70CFB02320C460120A8E7B7
:1040600000230134059319464FF00A0C204610F83E
:10407000012B303A092A03D9002BC6D00591C4E799
:104080000CFB012104460123F0E703AB00932A4611
:10409000124B04A93046AFF300800746781CD6D1F6
:1040A0006B6ED90705D4AB899A0502D4A86DFFF7CA
:1040B0008BFEAB895B063FF51FAF09981EE703AB8C
:1040C00000932A46054B04A9304600F023F9E4E7A3
:1040D000104A00081A4A0008000000008F3E00083D
:1040E000164A0008024B0146186800F025B800BFC8
:1040F0001800002070B50F4E0C463168054611B906
:1041000000F0ECFB30602146284600F0E7FB431C42
:1041100003D14FF0FF34204670BDC41C24F00304CB
:10412000A042F8D0211A284600F0D8FB0130F2D185
:10413000EFE700BFBC0300202DE9F843CD1C25F0BC
:10414000030508350C2D38BF0C25002D064601DB74
:10415000A94204D90C2333600020BDE8F883DFF8BE
:10416000D48000F0A3FAD8F800301C4644BB29469E
:104170003046FFF7BFFF431C044658D1D8F8004033
:104180002746002F43D1002C4BD0236839463046B8
:1041900004EB030900F0A2FB814542D121686D1AAE
:1041A00029463046FFF7A6FF01303AD023682B445A
:1041B0002360D8F800305A6862BBC8F800700FE07E
:1041C0002268521B20D40B2A17D96119A3422560FB
:1041D00018BF5960636808BFC8F8001062514B608F
:1041E000304600F069FA04F10B00231D20F00700AF
:1041F000C21A1CBF1B1AA350AFE76268A3420CBFD0
:10420000C8F800205A60EBE723466468AEE73C46F6
:104210007F68B6E71A465B68A342FBD10023536070
:10422000DEE70C233360304600F046FA94E7056081
:10423000D6E700BFC00300202DE9F0471646984698
:104240008A680B69DDF820909342B8BF134633604B
:1042500091F8432007460C460AB1013333602368C6
:10426000990642BF336802333360256815F00605AE
:1042700006D104F1190AE36832689B1AAB4226DCC6
:1042800094F843302268003B18BF012392062BD4D8
:1042900004F1430241463846C84701301ED0236826
:1042A000226903F00603042B02BFE5683368ED1AA8
:1042B000A3680CBF25EAE57500259342C4BF9B1A8D
:1042C000ED1800261A34B5421AD1002008E0012367
:1042D000524641463846C847013003D14FF0FF30BF
:1042E000BDE8F0870135C6E7E1185A1C302081F897
:1042F0004300224494F8451082F843100233C7E784
:104300000123224641463846C8470130E6D00136EF
:10431000D9E700002DE9FF470F7E0C9E782F9146CC
:1043200080460C469A4601F1430207D8622F0AD80C
:10433000002F00F0D280582F00F0B98004F142061F
:1043400084F842703AE0A7F16303152BF6D801A177
:1043500051F823F0AD430008C14300083D43000875
:104360003D4300083D4300083D430008C1430008A9
:104370003D4300083D4300083D4300083D4300081D
:10438000C1440008EB4300087B4400083D4300089B
:104390003D430008E34400083D430008EB430008A8
:1043A0003D4300083D4300088344000833681A1D5C
:1043B0001B68326004F1420684F8423001239DE01C
:1043C00033682068191D3160060601D51D6803E0B9
:1043D0004506FBD5B3F90050002D03DA2D236D42BD
:1043E00084F8433059480A2311E0216833680806ED
:1043F00053F8045B02D4490648BFADB26F2F53484F
:10440000336014BF0A230823002184F84310666830
:10441000A660002EA2BF216821F0040121600DB921
:10442000002E4BD01646B5FBF3F103FB1157C75DC9
:1044300006F8017D2F46BB420D46F4D9082B0BD15F
:104440002368DF0708D5236961689942DEBF3023FE
:1044500006F8013C06F1FF36921B2261CDF800A060
:104460004B4603AA21464046FFF7E6FE01304AD1FB
:104470004FF0FF3004B0BDE8F087236843F020031D
:1044800023603348782784F84570236831681F0615
:1044900051F8045B02D45F0648BFADB23160D90762
:1044A00044BF43F0200323601DB11023ACE727482D
:1044B000E9E7236823F020032360F6E71646BDE70B
:1044C000336825686169181D30602E061B6801D5A8
:1044D000196002E06806FBD51980002323611646A7
:1044E000BCE733681A1D32601E68626800213046DE
:1044F000FBF78EFE08B1801B6060636823610023B8
:1045000084F84330AAE72369324649464046D047FB
:104510000130ADD023689B0713D4E068039B984219
:10452000B8BF1846A6E70123324649464046D04761
:1045300001309DD00135E36803995B1AAB42F2DC90
:10454000EBE7002504F11906F5E700BF214A000852
:10455000324A0008B1F90C202DE9F0411607054652
:104560000C4654D44B68002B02DC0B6C002B48DD4E
:10457000E66A002E45D0002312F480522F68216A8B
:104580002B6030D0626DA389590705D56368D21AB4
:10459000636B0BB1236CD21A0023E66A216A2846AA
:1045A000B047431CA38906D129681D292BD82A4A64
:1045B0000A41D60727D400226260D904226922600A
:1045C00004D5421C01D12B6803B96065616B2F6073
:1045D000B9B104F14403994202D02846FFF7F6FB33
:1045E000002363630DE001232846B0470246501CB8
:1045F000C9D12B68002BC6D01D2B01D0162B1ED184
:104600002F60002022E043F040031BB21BE00F6943
:10461000002FF6D093070E6808BF4B690F6018BFD4
:104620000023A6EB07088B60B8F1000FE9DD216AD3
:10463000A66A43463A462846B047002808DCB4F943
:104640000C3043F04003A3814FF0FF30BDE8F08110
:104650000744A8EB0008E7E7FEFFBFDF38B50B69AA
:1046600005460C4613B90025284638BD18B1036A23
:104670000BB9FFF74BFAB4F90C30002BF3D0626E94
:10468000D00704D4990502D4A06DFFF79CFB2846FF
:104690002146FFF75FFF636EDA070546E4D4A3897E
:1046A0009B05E1D4A06DFFF78FFBDDE70148FFF725
:1046B0008ABB00BFB80300200148FFF785BB00BFDD
:1046C000B803002010B50C46B1F90E1000F0F4F854
:1046D0000028ABBF636DA3891B1823F48053ACBFC4
:1046E0006365A38110BD2DE9F0411F468B89DB0571
:1046F00005460C46164605D5B1F90E1002230022D8
:1047000000F0C8F8A389B4F90E1023F48053A381F4
:1047100032463B462846BDE8F04100F0EFB810B500
:104720000C46B1F90E1000F0B5F8431CA38915BF73
:10473000606523F4805343F48053A38118BFA381A1
:1047400010BDB1F90E1000F095B8F8B50E4614463C
:10475000054618B1036A0BB9FFF7D8F9A369A3603E
:10476000A3891A0701D5236943B92146284600F0D9
:104770002BF818B14FF0FF373846F8BD236822698F
:10478000981A6369F6B28342374605DC214628460B
:10479000FFF764FF0028EDD1A368013BA360236805
:1047A0005A1C22601E706269431C9A4204D0A3897D
:1047B000DB07E1D50A2EDFD121462846FFF74EFF61
:1047C0000028D9D0D6E7000038B5294B054618682F
:1047D0000C4618B1036A0BB9FFF798F9B4F90C301D
:1047E000190722D4DA0607D409222A6043F04003CD
:1047F000A3814FF0FF3033E0580712D5616B41B110
:1048000004F14403994202D02846FFF7DFFA00235F
:104810006363A38923F02403A381002363602369D6
:104820002360A38943F00803A38123694BB9A389BB
:1048300003F42073B3F5007F03D021462846FFF729
:10484000C1F9B4F90C3013F001020AD00022A260C1
:1048500062695242A261226942B913F08000C5D157
:1048600038BD990758BF6269A260F4E70020F7E7F6
:104870001800002038B5064D0023044608462B607A
:10488000FEF73AFF431C02D12B6803B1236038BD09
:10489000C403002038B5074D0446084611460022DF
:1048A0002A601A46FEF732FF431C02D12B6803B17F
:1048B000236038BDC403002038B5074D04460846C0
:1048C000114600222A601A46FEF706FF431C02D159
:1048D0002B6803B1236038BDC403002038B5064DF2
:1048E0000023044608462B60FEF7C2FE431C02D19B
:1048F0002B6803B1236038BDC403002038B5074DD1
:1049000004460846114600222A601A46FCF7D4FDE8
:10491000431C02D12B6803B1236038BDC4030020BF
:104920000A44914200F1FF3300D1704710B511F8ED
:10493000014B03F8014F9142F9D110BD08B5062093
:1049400000F02CF80120FEF7C1FE1F2938B50546FE
:104950000C4604D9162303604FF0FF3038BDC26BFC
:1049600012B152F821304BB9284600F031F82246F6
:1049700001462846BDE8384000F018B8012B0AD09F
:10498000591C03D1162303600120E7E7002142F8F8
:104990002410204698470020E0E70000024B014623
:1049A0001868FFF7D2BF00BF1800002038B5074DC8
:1049B00000230446084611462B60FEF77FFE431C89
:1049C00002D12B6803B1236038BD00BFC4030020AF
:1049D000FEF772BEF8B500BFF8BC08BC9E46704733
:0C49E000F8B500BFF8BC08BC9E4670474C
:1049EC0000000000010203040000000000000000B1
:1049FC00010203040607080948656C6C6F20576FA9
:104A0C00726C6400232D302B2000686C4C006566A2
:104A1C006745464700303132333435363738394103
:104A2C004243444546003031323334353637383919
:084A3C0061626364656600001D
:104A440008B10181B0B000840000000008B1018108
:104A5400B0B000840000000008B10181B0B000844F
:104A64000000000008B10181B0B000840000000023
:104A74009CB7FF7F01000000C0BBFF7FB0A902808C
:104A84004CBCFF7FB0B0A8809CBCFF7F010000003D
:104A9400A8BCFF7FB0B0AA80DCBCFF7FAE71B2803F
:104AA400A8BDFF7F01000000A4BDFF7FAB3F38809D
:104AB40004BEFF7F010000000CBEFF7FB0B0AA80DF
:104AC40048BEFF7F01000000F4BEFF7FAA0DB28044
:104AD40070BFFF7FB0AF088000C2FF7F01000000FD
:104AE40004C2FF7FAD3F0280A4C4FF7F0100000029
:104AF40080C6FF7F0084048094C6FF7F010000000D
:104B040090C6FF7FB0AD04805CC9FF7FB0A803806E
:104B140080C9FF7F44FFFF7F84C9FF7F48FFFF7F79
:104B240090C9FF7F0100000058ECFF7F14FFFF7F56
:104B340068ECFF7F18FFFF7F6AECFF7F0100000035
:104B440070ECFF7FB0B0A8807CECFF7FA908B18037
:104B5400F0ECFF7FB0B0A88020EDFF7F01000000E3
:084B6400F5010008A737000865
:044B6C00D10100086B
:104B700001000000100000000024F400000000000C
:104B8000030000007C0200201C0000200000000048
:104B90007C020020E40200204C0300200000000002
:104BA0000000000000000000000000000000000005
:104BB00000000000000000000000000000000000F5
:104BC00000000000000000000000000000000000E5
:084BD0000000000000000000DD
:0400000508003711A7
:00000001FF
