:020000040800F2
:1000000000000220594D00080129000803290008BA
:100010000529000807290008092900080000000038
:100020000000000000000000000000000B29000894
:100030000D290008000000000F2900081129000800
:10004000A94D0008A94D0008A94D0008A94D0008B8
:10005000A94D0008A94D0008A94D0008A94D0008A8
:10006000A94D0008A94D0008A94D0008A94D000898
:10007000A94D0008A94D0008A94D0008A94D000888
:10008000A94D0008A94D0008A94D0008A94D000878
:10009000A94D0008A94D0008A94D0008A94D000868
:1000A000A94D00081929000831290008A94D0008A8
:1000B000A94D0008A94D0008A94D0008A94D000848
:1000C000A94D0008A94D0008A94D0008A94D000838
:1000D000A94D0008A94D0008A94D0008A94D000828
:1000E000A94D0008A94D0008A94D0008A94D000818
:1000F000A94D0008A94D0008A94D0008A94D000808
:10010000A94D0008A94D0008A94D0008A94D0008F7
:10011000A94D0008A94D0008A94D0008A94D0008E7
:1001200041290008A94D0008A94D0008A94D000863
:10013000A94D00080000000000000000A94D0008C3
:10014000A94D0008A94D0008A94D0008A94D0008B7
:10015000A94D0008A94D0008A94D0008A94D0008A7
:10016000A94D0008A94D0008A94D0008A94D000897
:10017000A94D0008A94D0008A94D00080000000085
:1001800000000000A94D0008000000000000000071
:10019000A94D00080000000000000000A94D000863
:1001A000000000000000000000000000A94D000851
:1001B000A94D0008A94D0008A94D0008A94D000847
:0401C000A94D00083D
:1001D00010B5054C237833B9044B13B10448AFF381
:1001E00000800123237010BDD80100200000000012
:1001F0009489000808B5034B1BB103490348AFF3CA
:10020000008008BD00000000DC0100209489000887
:1002100001F0FF01102A2BDB10F0070F08D010F8B7
:10022000013B013A8B422DD010F0070F42B3F6D1BB
:10023000F0B441EA012141EA014122F007047FF0D4
:1002400000070023F0E80256083C85EA010586EA2B
:10025000010685FA47F5A3FA87F586FA47F6A5FA67
:1002600087F68EB9EED1F0BC01F0FF0102F0070273
:1002700032B110F8013B013A83EA010313B1F8D11E
:100280000020704701387047002D06BF35460338FF
:10029000073815F0010F07D1013015F4807F02BF38
:1002A000013015F4C03F0130F0BC0138704700BF89
:1002B000034613F8012B002AFBD1181A01387047A6
:1002C00081F0004102E000BF83F0004330B54FEA07
:1002D00041044FEA430594EA050F08BF90EA020F74
:1002E0001FBF54EA000C55EA020C7FEA645C7FEA07
:1002F000655C00F0E2804FEA5454D4EB5555B8BF2A
:100300006D420CDD2C4480EA020281EA030382EA9A
:10031000000083EA010180EA020281EA0303362D2C
:1003200088BF30BD11F0004F4FEA01314FF4801CFF
:100330004CEA113102D0404261EB410113F0004F11
:100340004FEA03334CEA133302D0524263EB4303C8
:1003500094EA050F00F0A780A4F10104D5F1200E66
:100360000DDB02FA0EFC22FA05F2801841F10001C1
:1003700003FA0EF2801843FA05F359410EE0A5F195
:1003800020050EF1200E012A03FA0EFC28BF4CF0C6
:10039000020C43FA05F3C01851EBE37101F000457C
:1003A00007D54FF0000EDCF1000C7EEB00006EEB89
:1003B0000101B1F5801F1BD3B1F5001F0CD3490813
:1003C0005FEA30004FEA3C0C04F101044FEA44526A
:1003D00012F5800F80F09A80BCF1004F08BF5FEAF1
:1003E000500C50F1000041EB045141EA050130BDD1
:1003F0005FEA4C0C404141EB0101013C28BFB1F5E3
:10040000801FE9D291F0000F04BF01460020B1FA2D
:1004100081F308BF2033A3F10B03B3F120020CDA00
:100420000C3208DD02F1140CC2F10C0201FA0CF0DE
:1004300021FA02F10CE002F11402D8BFC2F1200C43
:1004400001FA02F120FA0CFCDCBF41EA0C019040F9
:10045000E41AA2BF01EB0451294330BD6FEA040442
:100460001F3C1CDA0C340EDC04F11404C4F120022D
:1004700020FA04F001FA02F340EA030021FA04F33F
:1004800045EA030130BDC4F10C04C4F1200220FA96
:1004900002F001FA04F340EA0300294630BD21FAD4
:1004A00004F0294630BD94F0000F83F4801306BF9A
:1004B00081F480110134013D4EE77FEA645C18BF8E
:1004C0007FEA655C29D094EA050F08BF90EA020F25
:1004D00005D054EA000C04BF1946104630BD91EA1D
:1004E000030F1EBF0021002030BD5FEA545C05D120
:1004F0004000494128BF41F0004130BD14F580045F
:100500003CBF01F5801130BD01F0004545F0FE41D2
:1005100041F470014FF0000030BD7FEA645C1ABF07
:10052000194610467FEA655C1CBF0B46024650EA3E
:10053000013406BF52EA033591EA030F41F400216A
:1005400030BD00BF90F0000F04BF0021704730B5F0
:100550004FF4806404F132044FF000054FF00001C5
:1005600050E700BF90F0000F04BF0021704730B586
:100570004FF4806404F1320410F0004548BF40425B
:100580004FF000013EE700BF42004FEAE2014FEAB0
:1005900031014FEA02701FBF12F07F4393F07F4F8B
:1005A00081F06051704732F07F4208BF704793F08E
:1005B0007F4F04BF41F40021704730B54FF46074A1
:1005C00001F0004521F000411CE700BF50EA0102A4
:1005D00008BF704730B54FF000050AE050EA01024D
:1005E00008BF704730B511F0004502D5404261EBBD
:1005F00041014FF4806404F132045FEA915C3FF4FE
:10060000D8AE4FF003025FEADC0C18BF03325FEA9A
:10061000DC0C18BF033202EBDC02C2F1200300FA4B
:1006200003FC20FA02F001FA03FE40EA0E0021FA70
:1006300002F11444BDE600BF70B54FF0FF0C4CF45E
:10064000E06C1CEA11541DBF1CEA135594EA0C0F10
:1006500095EA0C0F00F0DEF82C4481EA030621EA4B
:100660004C5123EA4C5350EA013518BF52EA033586
:1006700041F4801143F4801338D0A0FB02CE4FF038
:100680000005E1FB02E506F00042E0FB03E54FF068
:100690000006E1FB03569CF0000F18BF4EF0010E60
:1006A000A4F1FF04B6F5007F64F5407404D25FEA5C
:1006B0004E0E6D4146EB060642EAC62141EA55510F
:1006C0004FEAC52040EA5E504FEACE2EB4F1FD0C51
:1006D00088BFBCF5E06F1ED8BEF1004F08BF5FEACF
:1006E000500E50F1000041EB045170BD06F0004681
:1006F00046EA010140EA020081EA0301B4EB5C042E
:10070000C2BFD4EB0C0541EA045170BD41F4801125
:100710004FF0000E013C00F3AB8014F1360FDEBF4A
:10072000002001F0004170BDC4F10004203C35DA26
:100730000C341BDC04F11404C4F1200500FA05F3A9
:1007400020FA04F001FA05F240EA020001F000424A
:1007500021F0004110EBD37021FA04F642EB0601C0
:100760005EEA430E08BF20EAD37070BDC4F10C04EA
:10077000C4F1200500FA04F320FA05F001FA04F2AE
:1007800040EA020001F0004110EBD37041F100019A
:100790005EEA430E08BF20EAD37070BDC4F12005A5
:1007A00000FA05F24EEA020E20FA04F301FA05F20D
:1007B00043EA020321FA04F001F0004121FA04F2B5
:1007C00020EA020000EBD3705EEA430E08BF20EA85
:1007D000D37070BD94F0000F0FD101F000464000BF
:1007E00041EB010111F4801F08BF013CF7D041EA41
:1007F000060195F0000F18BF704703F00046520045
:1008000043EB030313F4801F08BF013DF7D043EA15
:100810000603704794EA0C0F0CEA135518BF95EACB
:100820000C0F0CD050EA410618BF52EA4306D1D152
:1008300081EA030101F000414FF0000070BD50EA71
:10084000410606BF1046194652EA430619D094EAFB
:100850000C0F02D150EA013613D195EA0C0F05D1E5
:1008600052EA03361CBF104619460AD181EA030139
:1008700001F0004141F0FE4141F470014FF00000F1
:1008800070BD41F0FE4141F4780170BD70B54FF08C
:10089000FF0C4CF4E06C1CEA11541DBF1CEA13550C
:1008A00094EA0C0F95EA0C0F00F0A7F8A4EB0504EE
:1008B00081EA030E52EA03354FEA013100F08880E5
:1008C0004FEA03334FF0805545EA131343EA1263AE
:1008D0004FEA022245EA111545EA10654FEA002663
:1008E0000EF000419D4208BF964244F1FD0404F51C
:1008F000407402D25B084FEA3202B61A65EB030578
:100900005B084FEA32024FF480104FF4002CB6EB34
:10091000020E75EB030E22BFB61A754640EA0C00B4
:100920005B084FEA3202B6EB020E75EB030E22BFF4
:10093000B61A754640EA5C005B084FEA3202B6EB35
:10094000020E75EB030E22BFB61A754640EA9C00F4
:100950005B084FEA3202B6EB020E75EB030E22BFC4
:10096000B61A754640EADC0055EA060E18D04FEA82
:10097000051545EA16754FEA06164FEAC30343EA22
:1009800052734FEAC2025FEA1C1CC0D111F4801FEF
:100990000BD141EA00014FF000004FF0004CB6E7E8
:1009A00011F4801F04BF01430020B4F1FD0C88BF87
:1009B000BCF5E06F3FF6AFAEB5EB030C04BFB6EB92
:1009C000020C5FEA500C50F1000041EB045170BD85
:1009D0000EF0004E4EEA113114EB5C04C2BFD4EBB2
:1009E0000C0541EA045170BD41F480114FF0000E36
:1009F000013C90E645EA060E8DE60CEA135594EAB2
:100A00000C0F08BF95EA0C0F3FF43BAF94EA0C0FB4
:100A10000AD150EA01347FF434AF95EA0C0F7FF429
:100A200025AF104619462CE795EA0C0F06D152EA7D
:100A300003353FF4FDAE1046194622E750EA410661
:100A400018BF52EA43067FF4C5AE50EA41047FF472
:100A50000DAF52EA43057FF4EBAE12E74FF0FF3CD7
:100A600006E000BF4FF0010C02E000BF4FF0010CA8
:100A70004DF804CD4FEA410C7FEA6C5C4FEA430C21
:100A800018BF7FEA6C5C1BD001B050EA410C0CBF70
:100A900052EA430C91EA030F02BF90EA020F0020D2
:100AA000704710F1000F91EA030F58BF994208BF39
:100AB00090422CBFD8176FEAE37040F001007047F6
:100AC0004FEA410C7FEA6C5C02D150EA013C07D14D
:100AD0004FEA430C7FEA6C5CD6D152EA033CD3D098
:100AE0005DF8040B704700BF8446104662468C4692
:100AF0001946634600E000BF01B5FFF7B7FF0028C5
:100B000048BF10F1000F01BD4DF808EDFFF7F4FFED
:100B10000CBF012000205DF808FB00BF4DF808ED78
:100B2000FFF7EAFF34BF012000205DF808FB00BF9B
:100B30004DF808EDFFF7E0FF94BF012000205DF8BD
:100B400008FB00BF4DF808EDFFF7CEFF94BF012072
:100B500000205DF808FB00BF4DF808EDFFF7C4FF6B
:100B600034BF012000205DF808FB00BF4FEA410CB4
:100B70007FEA6C5C02D150EA013C0AD14FEA430C97
:100B80007FEA6C5C02D152EA033C02D14FF00000D4
:100B900070474FF0010070474FEA410212F5001212
:100BA00015D211D56FF47873B3EB625212D94FEAB4
:100BB000C12343F0004343EA505311F0004F23FA9E
:100BC00002F018BF404270474FF00000704750EAF3
:100BD000013005D111F0004008BF6FF000407047B0
:100BE0004FF00000704700BF4FEA4102B2F1E0430E
:100BF00024BFB3F5001CDCF1FE5C0DD901F0004C04
:100C00004FEAC0024CEA5070B2F1004F40EB830053
:100C100008BF20F00100704711F0804F21D113F17F
:100C20003872BCBF01F00040704741F480114FEAB8
:100C30005252C2F11802C2F1200C10FA0CF320FA41
:100C400002F018BF40F001004FEAC1234FEAD3235E
:100C500003FA0CFC40EA0C0023FA02F34FEA4303C8
:100C6000CCE77FEA625307D150EA01331EBF4FF051
:100C7000FE4040F44000704701F0004040F0FE406C
:100C800040F40000704700BF53B94AB9002908BFBB
:100C900000281CBF4FF0FF314FF0FF3001F0F6B8D5
:100CA000ADF1080C6DE904CE00F006F8DDF804E0C3
:100CB000DDE9022304B070472DE9F047089D0C469A
:100CC000002B4ED194468C458646B2FA82F262D908
:100CD0004AB1C2F12003914020FA03F30CFA02FC5E
:100CE000194300FA02FE4FEA1C471FFA8CF6B1FBCB
:100CF000F7F44FEA1E4307FB141143EA014304FBD8
:100D000006F199420AD91CEB030304F1FF3080F08D
:100D10001281994240F20F81023C6344591A1FFA32
:100D20008EF3B1FBF7F007FB101143EA014300FB20
:100D300006F69E420AD91CEB030300F1FF3180F056
:100D4000FC809E4240F2F980634402389B1B40EADB
:100D5000044000211DB1D3400022C5E90032BDE8A6
:100D6000F0878B4205D90DB1C5E900010021084685
:100D7000F5E7B3FA83F1002946D1A34202D39042AA
:100D8000C0F0F080861A64EB03030120002DE6D04A
:100D9000C5E90063E3E7002A40F09080A1EB0C0472
:100DA0004FEA1C481FFA8CF70121B4FBF8F64FEA12
:100DB0001E4308FB164443EA044307FB06F098422F
:100DC00008D91CEB030306F1FF3402D2984200F26B
:100DD000CD8026461C1A1FFA8EF3B4FBF8F008FBF0
:100DE000104443EA044300FB07F79F4208D91CEB79
:100DF000030300F1FF3402D29F4200F2B08020468C
:100E0000DB1B40EA0640A5E7C1F120068B4022FA31
:100E100006F71F4320FA06FC04FA01F343EA0C0329
:100E2000F44000FA01F8380C4FEA1349B4FBF0FE25
:100E30001FFA87FC00FB1E4449EA04440EFB0CF930
:100E4000A14502FA01F20AD93C190EF1FF3A80F0ED
:100E50008480A14540F28180AEF1020E3C44A4EBB7
:100E600009041FFA83F9B4FBF0F300FB134449EAC9
:100E7000044403FB0CFCA44507D93C1903F1FF30E3
:100E800067D2A44565D9023B3C4443EA0E40A0FB2F
:100E90000293A4EB0C049C42CE469C4651D34ED008
:100EA00055B1B8EB0E0364EB0C0404FA06F6CB4024
:100EB0001E43CC40C5E90064002150E7C2F1200385
:100EC00020FA03F10CFA02FC24FA03F394400C43D9
:100ED0004FEA1C4800FA02FE1FFA8CF7B3FBF8F049
:100EE00008FB1031230C43EA014300FB07F1994250
:100EF00008D91CEB030300F1FF362CD299422AD902
:100F0000023863445B1AA4B2B3FBF8F108FB113357
:100F100044EA034401FB07F3A34208D91CEB040491
:100F200001F1FF3613D2A34211D902396444E41A05
:100F300041EA004139E70446F0E6084606E7C845BD
:100F4000AED2B9EB020E63EB070C0138A8E73146CD
:100F5000EDE7034699E73046D4E7D6467FE763449A
:100F600002384DE70646234608460FE7023E634433
:100F700030E700BF03685A004CBF43F0004323F042
:100F800000431844704700BF2DE9F84349B34F1E92
:100F9000044615463E464FF0000909EB060101EBF9
:100FA000D171491004EBC1084046FFF7E3FF8F42BF
:100FB00003464FEAC1000FD00830AB42204407D8A7
:100FC000FFF7D8FF0138A84208D201F10109E4E790
:100FD000894506D04E1EE0E7AB42F9D84046BDE851
:100FE000F8834FF000084046BDE8F883012807D099
:100FF000022807D0044B00280CBF18460020704779
:101000000248704702487047B5160008B916000834
:10101000BD16000830B5214B83B004468D1E1BB3AE
:1010200001A92846AFF3008088B301992A46FFF74B
:10103000ABFF014658B3FFF79DFF4B68A064012B3F
:1010400028D0002B01F104001FDBFFF793FF0023E2
:1010500023650368E064002B0DDBFFF78BFF03467D
:101060000020236103B030BD0D4B0E49C91AC910D1
:1010700018460191DAE7C3F30360FFF7B7FF0346B1
:1010800028B10020236103B030BD0123E0E7002335
:101090000920E6E700230520E3E700BF0000000089
:1010A000508F0008B09000080368DA0710B50446B6
:1010B00006D49B0700F1480009D500F069FC2368BD
:1010C000590709D51A070ED5DB0613D510BD00F058
:1010D00057FC23685907F5D404F1D00000F060FCF8
:1010E00023681A07F0D404F5A87000F061FC2368A7
:1010F000DB06EBD404F5E870BDE8104000F09CBCC2
:10110000092070470346006800B11844704700BFCB
:10111000704700BF70B504460E46316C2046FFF79D
:1011200079FF054688B9326C6261236932462146EF
:10113000012098470828F0D0072806D12846316CAE
:10114000FFF7E6FF301D00F00FFC07F0D8FB00BFF3
:101150002DE9F0470D1DD0F80C80D0F81890074607
:1011600014460FCDADF5727D0DF10C0CACE80F00FF
:101170000FCDACE80F000FCDACE80F0095E80F00E5
:1011800002AE4FF0000E8CE80F00C6F800E020E041
:10119000336C7B614FF4F07231467AA807F03EFB66
:1011A0003B697AAA394650469847889B7364214622
:1011B000CDE9006905463B463A460120C047044652
:1011C00018BB4FF4F0727AA9304607F027FB082DC0
:1011D00019D1316C3846FFF71DFF09345FFA84FAE4
:1011E00005460028D4D0B36B73643A46CDE9006954
:1011F0003B464AF010010120C04730B928460DF5A2
:10120000727DBDE8F087072D05D0092528460DF52C
:10121000727DBDE8F0872046316CFFF779FF03A8A7
:1012200000F0A2FB406C7047F0B5CB6B0B6401F192
:10123000040C0E460546BCE80F00F9B001AC0FC423
:10124000BCE80F000FC4BCE80F000FC49CE80F00FF
:101250004FF0FF3784E80F00009706E02B696A46DD
:10126000294698470828044608D110992846FFF7D0
:10127000D1FE0028F2D0092079B0F0BD6846FFF712
:1012800013FF062CF7D131462846FFF743FF00BF76
:10129000C160D96B826119640022194658E700BF0A
:1012A00070B5C66843690B64AEB903690A46044663
:1012B0000D46014602209847072805D008280FD17F
:1012C00029462046FFF726FF3046296CFFF720FF0E
:1012D000281D00F049FB0122FFF73AFF07F00FFB42
:1012E00007F00DFBC2681AB1CA6B0A6400222FE72F
:1012F0009AE700BF704700BF836801460BB1012029
:1013000018477047012910D009D883B90F2A0ED881
:1013100000EB820218465368009A13607047033945
:1013200001298CBF02200120704708467047022027
:10133000704700BF00B585B00A46002303A900919D
:101340001946FFF7DFFF039805B05DF804FB00BF07
:10135000012910D009D883B90F2A0ED8009900EBC3
:1013600082020968516018467047033901298CBF11
:10137000022001207047084670470220704700BFD6
:1013800010B584B0002303AC039200940A461946BA
:10139000FFF7DEFF04B010BD70B5D36B136402F12C
:1013A000040C05460C46BCE80F00ADF50E7D0DF1B2
:1013B0005C0EAEE80F00BCE80F00AEE80F00BCE822
:1013C0000F00AEE80F009CE80F004FF0FF368EE8EC
:1013D0000F00169610E0FFF7D3FF214616A8A84786
:1013E000034616AA6946082083B9049B9847052836
:1013F00006460CD0092809D026996846FFF70AFE50
:1014000003466A460C2116A8002BE4D0092616A82C
:10141000FFF74AFE30460DF50E7D70BD2DE9F04F09
:101420009346CA6C89B00D4652F8041B069200F030
:10143000030C002B79D00C0C8DF81D400904E4B28C
:10144000059102EB840202212F6D8DF81C10BCF176
:10145000020F08BFAA6B17F001070CD005A9584668
:1014600000F084FB18B9082009B0BDE8F08F09200E
:1014700009B0BDE8F08F1668002EEFD000F008012B
:101480000191B246029764469946B9F1020F48D0DD
:10149000B2F800A0568802F10408AA6C26F00103F5
:1014A0000F2158469F18FFF745FF874237D82AF08B
:1014B00001023A44824294BF00220122730003F0E9
:1014C00002030AF0010A43EA0A03012B47D0022B68
:1014D00031D0002BCBD114B1002A40F0C98008F1E3
:1014E0000402D2F800A0BAF1000FCED105A95846E7
:1014F000029F00F03BFB0028B9D1002FB3D00F2191
:101500005846FFF717FF0E2102465846FFF738FFEF
:10151000674A0F215846FFF733FF0720A8E700224C
:10152000CCE7566802F10808B7E7090205918DF883
:101530001D30032188E7D8F8006026F00043002C16
:1015400044D122B1019A002A5AD0002B58D0002E43
:1015500001DA08F10408013308EB8302C1E7ECB9B2
:10156000CAB1D8F80430D8F80020991C4FEAD272DA
:101570003FF47DAF05F158010133049100F08B80F9
:1015800008F10400FFF7BEFD04AB01462846AFF3A7
:101590000080002857D108F10802A2E70D21584623
:1015A000FFF7C8FE2B6A8342F5D1AB6A9845F2D1AA
:1015B0004046FFF7DFFC0F2102465846FFF7E0FEEA
:1015C0002A4600215846FFF7DBFEA6E70D215846C4
:1015D0000393FFF7AFFE2A6A039B8242B7D1AA6A40
:1015E0009045B4D100270422C5E90B724244AB6296
:1015F0006A63D8F80020BA4255DB01220292AAE7BA
:10160000039408F1040A002605F158071C460DE072
:1016100050460497FFF776FD0022014604AB2846AA
:1016200001360AF1040AAFF30080E0B9A642EFD117
:101630000D215846FFF77EFE049BC5F82880C5E9BA
:101640000803062014E704460D215846FFF772FEF2
:10165000049E2862022C04BFEE6205F12C06C5E947
:101660000968062004E72346D8F80060039C6EE76B
:101670004046FFF77FFC08F104020446AA632846AF
:10168000AFF3008000283FF4F2AE22460F21584607
:10169000FFF776FE41E70C4658460D21FFF74AFE5C
:1016A00026462862DBE7581C08EB800081E700BF74
:1016B000000000000023B1E60123AFE60223ADE6FF
:1016C0002DE9F0430646C3B015461C46042900F236
:1016D000D180DFE801F0AC51CF2A0300002C40F0AC
:1016E000C980102A00F2C6800368DC0600F1E7809A
:1016F00020AF384600F0AAF9B46B394600234FF00A
:10170000010C0CFA03F22A42204603F1010303D034
:1017100050F8042B0A600446042B01F10401F0D1B7
:10172000B463384600F088F999E0032C40F0A280B9
:1017300094B204EB1243102B4FEA124500F29A8048
:1017400003681F0700F1C38020AF384600F052F94C
:10175000B26B07EBC50154B10B46D01A01EBC401C3
:10176000E4001D5843F8045B8B42FAD12244B26373
:10177000384600F01DF972E0012C4FEA124895B28C
:1017800071D0052C76D108EB0509B9F1200F71D87D
:10179000B8F10F0F72D8B9F1100F036800F29F80F3
:1017A000D90708D523F00103304643F0020340F87F
:1017B000483B00F0F1F820AF384600F0EDF8B36B8D
:1017C000002D00F0B9806D006A1E07EBC8010025EE
:1017D0000132043903EB820253F8040B41F8040F81
:1017E0009342F9D1002D00F0A1804146102938BF65
:1017F00010216B0010396F46013B07EBC10101332B
:10180000043902EB830352F8040B41F8040F9A42A7
:10181000F9D1012C00F08880B8F10F0FB26302D823
:1018200020A800F0B5F8384600F0BAF817E00CBB75
:10183000806B23461FFA82FC0124371D04FA03F152
:1018400011EA0C0F024604D052F8041B47F823108B
:1018500010460133102BF1D1AC0400D4B06300204A
:1018600043B0BDE8F08308EB0503102B02D8B8F1B4
:10187000100F14D1022043B0BDE8F083002DEED04C
:1018800003685A075CD46F46384600F08DF8B26B97
:101890006B00A8F11001013B07EBC101AFE7036842
:1018A000DA0759D420AF384600F06EF8B36B002D3C
:1018B00089D10433B363384600F062F8CFE723F0F0
:1018C0001003036000F5E87000F0C0F810E723F0A3
:1018D0000803036000F5A87000F08CF834E7D9071E
:1018E00008D523F0010343F0020340F8483B00F021
:1018F00053F83368580706D5304623F0040340F800
:10190000D03B00F051F820AF384600F045F868466B
:1019100000F04AF8C8F110025200B36BA9F11005AB
:10192000013A07EBC80153E720AFC2E7012CC0D052
:10193000B8F10F0FB36392D8384600F029F88EE75C
:1019400023F0040340F8D03B6F4600F02DF83846F2
:1019500000F02AF8B26B9BE7304623F0030340F80F
:10196000483B00F011F89DE700F1340191E83800A0
:101970009C46A6464CF8045D90E8FF0FE54600BD86
:1019800090EC210B704700BF80EC210B704700BF2B
:1019900090EC200B704700BF80EC200B704700BF1D
:1019A000D0EC200B704700BFC0EC200B704700BF8D
:1019B000F0EC0201F0EC0211F0EC0221F0EC02314B
:1019C000F0EC0241F0EC0251F0EC0261F0EC02713B
:1019D000F0EC0281F0EC0291F0EC02A1F0EC02B12B
:1019E000F0EC02C1F0EC02D1F0EC02E1F0EC02F11B
:1019F000704700BFE0EC0201E0EC0211E0EC0221D4
:101A0000E0EC0231E0EC0241E0EC0251E0EC02617A
:101A1000E0EC0271E0EC0281E0EC0291E0EC02A16A
:101A2000E0EC02B1E0EC02C1E0EC02D1E0EC02E15A
:101A3000E0EC02F1704700BFB0FC0181B0FC019105
:101A4000B0FC01A1B0FC01B1704700BFA0FC018156
:101A5000A0FC0191A0FC01A1A0FC01B1704700BF56
:101A6000EC4600B52DE900502DE9FF1F4FF00003B3
:101A70002DE90C0001A9FFF7D7FBDDF840E012B01B
:101A8000704700BFEC4600B52DE900502DE9FF1F5F
:101A90004FF000032DE90C0001A9FFF701FCDDF870
:101AA00040E012B0704700BFEC4600B52DE9005091
:101AB0002DE9FF1F4FF000032DE90C0001A9FFF7EE
:101AC00011FCDDF840E012B0704700BFEC4600B5F5
:101AD0002DE900502DE9FF1F4FF000032DE90C0008
:101AE00001ABFFF7D5FBDDF840E012B0704700BF57
:101AF000EC4600B52DE900502DE9FF1F4FF0000323
:101B00002DE90C0001AAFFF747FCDDF840E012B018
:101B1000704700BF027A03467AB9427AA2B141689F
:101B2000013A10B44272086803220C1D1A720202B4
:101B30005C60000E10BC1A6070470068013A1A72AF
:101B400002021A60000E7047B020704700B585B0E1
:101B5000002303AA009219460C22FFF7D3FB039837
:101B600005B05DF804FB00BFF0E700BF2DE9F043CE
:101B7000064685B00D464FF000082846FFF7CAFF1D
:101B8000B028044600F0DA80070646D500F0F003DE
:101B9000802B5ED0B02B73D01BD8902B00F09B8095
:101BA000A02B12D1C34303F007034FF47F621A4105
:101BB000010702F47F6201D542F4804200231946F6
:101BC0003046FFF77DFD0028D7D0092005B0BDE8DD
:101BD000F083C02B6DD1C62800F09380C72800F099
:101BE000B28000F0F803C02B00F0D280C82800F0CB
:101BF000DD80C928E9D12846FFF78CFF020300F0F9
:101C00000F0002F470220130024301210523304607
:101C1000FFF756FD0028B0D0D7E78300DBB21F1DC9
:101C20000DF10C0900231946CDF800900D22304625
:101C3000FFF768FB039BCDF8009060064CBFDF1BED
:101C4000FF1800230D22194630460397FFF780FB4B
:101C500093E72846FFF75EFF24022043B0F5004FCC
:101C6000B3D004010023A2B219463046FFF728FD85
:101C70000028AAD114F4004F18BF4FF001087CE7E8
:101C8000B12851D0B22800F0AD80B3286DD000F05B
:101C9000FC03B42B99D000F007020132012342F477
:101CA000002219463046FFF70BFD00283FF465AFD0
:101CB0008BE700F0F803D02B87D100F00702013248
:101CC000052342F4002201213046FFF7F9FC0028E9
:101CD0003FF453AF79E700F00D030D2B3FF475AFE0
:101CE00003AF002300F00F02194600973046FFF7BC
:101CF00009FB002300970D2219463046FFF728FB09
:101D00003BE72846FFF706FF020300F00F00013013
:101D100002F470220323024319463046FFF7D0FC39
:101D200000283FF42AAF50E72846FFF7F3FE431E92
:101D3000DBB20E2B02467FF641AF46E7B8F1000F4B
:101D400040D0002042E72846FFF7E4FE431EDBB206
:101D50000E2B02463FF639AF002304213046FFF731
:101D6000AFFC00283FF409AF2FE72846FFF7D2FE6B
:101D7000020300F00F00013002F47022012302433D
:101D800019463046FFF79CFC00283FF4F6AE1CE7EE
:101D900000F00F020132032342F42022194630469C
:101DA000FFF78EFC00283FF4E8AE0EE72846FFF769
:101DB000B1FE00F0F00200F00F031032013343EAED
:101DC000023222E703AC434641460E2200943046DD
:101DD000FFF798FA009443460F2241463046FFF73A
:101DE000B7FAAEE700230DF10C090D221946CDF824
:101DF00000903046FFF786FA2846FFF78BFE020672
:101E0000039C4FF002070BD500F07F00B84004445C
:101E100028460394FFF77EFE030607F10707F3D475
:101E200000FA07F204F50174224400230392CDF86E
:101E300000900D2219463046FFF78AFA9DE600BF52
:101E400010B5C26C536884B04FF0030C08321C020A
:101E500008461B0E01A9019402928DF80CC08DF862
:101E60000D30FFF783FE04B010BD00BF08B5FFF7CB
:101E70007BFE806C08BD00BF08B5FFF775FEC06C27
:101E8000C379023300EB830008BD00BF704700BF79
:101E900010B514460A2392B2024802F082FE204690
:101EA00010BD00BF0404002008B5034B834200D0DE
:101EB00008BD03F041F8FBE79C02002072B6FEE784
:101EC00000B595B03422002107A804F061FE00237C
:101ED000029303930493059306930093204A116C95
:101EE00041F080511164126C02F080520092009A0D
:101EF00001931C4A136823F4404343F48043136066
:101F0000136803F440430193019B012307934FF4AB
:101F10008033089302230D934FF480020E9208221F
:101F20000F925022109211931293139307A801F06D
:101F30001BFA80B90F23029302210391002304931B
:101F40004FF480530593069302A801F075F820B969
:101F500015B05DF804FBFFF7B1FFFFF7AFFF00BF5F
:101F6000003802400070004008B5124B1B68002189
:101F7000986804F0BDFB01F0BBFFFFF7A1FF00F084
:101F80001DF802F0CFFE00F0D5FA00F0C3FB00F020
:101F90008DF800F01FFC00F037FC00F05BFB00F058
:101FA000E5F9054802F0ACF803F00AF803F054F83C
:101FB000FEE700BF180000209C020020F0B58BB0A7
:101FC0000024059406940794089409940094334BD4
:101FD0001A6B42F080021A631A6B02F080020092C0
:101FE000009A01941A6B42F004021A631A6B02F011
:101FF00004020192019A02941A6B42F001021A63E0
:102000001A6B02F001020292029A03941A6B42F0D8
:1020100002021A631A6B02F002020392039A0494FA
:102020001A6B42F008021A631B6B03F00803049357
:10203000049B1B4F22460421384601F0A7FC194D92
:1020400022464FF4E871284601F0A0FC4FF480537B
:1020500005930694079405A9134801F0A7FB0423F0
:102060000593012606960794089405A9384601F0C1
:102070009DFB282305930694079405A9284601F0A3
:1020800095FB4FF4E873059306960794089405A909
:10209000284601F08BFB0BB0F0BD00BF00380240BA
:1020A000000C0240000402400008024000B585B068
:1020B000002300930193029303936B486B4A0260E1
:1020C0004360836001220261027680F82030C3629F
:1020D00067498162C3600E23C36180F8302042618A
:1020E00000F0ECFC002840F09180092300930223CB
:1020F00001930523029369465B4800F0C7FE002860
:1021000040F08780082300930123019369465648D5
:1021100000F0BCFE00287FD10A2300930323019323
:102120006946514800F0B2FE002878D10723009399
:102130000423019369464C4800F0A8FE002871D1A1
:102140000B23009305230193072302936946464816
:1021500000F09CFE002868D10C2300930623019315
:102160006946414800F092FE002861D10D2300939A
:102170000723019369463C4800F088FE00285AD1A5
:1021800000230093082301936946374800F07EFE40
:10219000002853D101230093092301936946324853
:1021A00000F074FE00284CD1022300930A2301930F
:1021B00069462D4800F06AFE002845D103230093AC
:1021C0000B2301936946284800F060FE00283ED1A9
:1021D000042300930C2301936946234800F056FE24
:1021E000C0BB052300930D23019369461E4800F0F0
:1021F0004DFE90BB062300930E23019369461A48B7
:1022000000F044FE60BB05B05DF804FBFFF756FE2E
:102210006BE7FFF753FE75E7FFF750FE7CE7FFF72C
:102220004DFE83E7FFF74AFE8AE7FFF747FE93E795
:10223000FFF744FE9AE7FFF741FEA1E7FFF73EFEF6
:10224000A8E7FFF73BFEAFE7FFF738FEB6E7FFF77B
:1022500035FEBDE7FFF732FEC3E7FFF72FFEC9E704
:10226000FFF72CFECFE700BF540200200020014002
:102270000100000F70B58AB0002305930693079301
:1022800008930993026803F1804303F590339A425F
:1022900001D00AB070BD04460025019503F58C33CA
:1022A0005A6C42F480725A645A6C02F48072019241
:1022B000019A02951A6B42F004021A631A6B02F03B
:1022C00004020292029A03951A6B42F001021A6309
:1022D0001A6B02F001020392039A04951A6B42F002
:1022E00002021A631B6B03F002030493049B0F2387
:1022F00005930326069605A9174801F057FAFF2310
:1023000005930696079505A9144801F04FFA05961E
:102310000696079505A9124801F048FA1148124B94
:10232000036045608560C5604FF4806303614FF4CE
:10233000006343614FF4005383614FF48073C361C2
:102340000562456201F0A8FB18B9064BA3639C63C4
:102350009FE7FFF7B3FDF8E70008024000000240E6
:1023600000040240F40100201064024008B509484E
:10237000094B036041F63F734360002383600922E9
:10238000C2600361836102F01FF800B908BDFFF766
:1023900095FDFBE79C0200200044014010B584B08D
:1023A00003682C4A93420AD0B3F1804F24D02A4AC2
:1023B00093422ED0294A934238D004B010BD002455
:1023C0000094274B5A6C42F001025A645B6C03F094
:1023D00001030093009B22462146192001F03AFD9B
:1023E000192001F047FD224621461A2001F032FD56
:1023F0001A2001F03FFDE0E700230193184B1A6C0F
:1024000042F001021A641B6C03F001030193019B6B
:10241000D3E700230293124B1A6C42F002021A64B3
:102420001B6C03F002030293029BC6E70021039199
:102430000B4B5A6C42F400325A645B6C03F4003369
:102440000393039B0A46192001F004FD192001F0B3
:1024500011FDB2E7000001400004004000440140CB
:102460000038024000B589B000230393049305931C
:10247000069307930368294A934208D0B3F1804F2B
:102480001DD0274A934232D009B05DF804FB0023E7
:102490000093244B1A6B42F001021A631B6B03F08A
:1024A00001030093009B4FF4706303930223049392
:1024B0000123079303A91C4801F078F9E4E70023FE
:1024C0000193184B1A6B42F002021A631B6B03F064
:1024D00002030193019B4FF4C0630393022304930F
:1024E0000123079303A9114801F060F9CCE7002309
:1024F00002930C4B1A6B42F004021A631B6B03F03D
:1025000004030293029B4FF440730393022304934A
:10251000079303A9064801F049F9B5E70000014017
:102520000004004000380240000002400004024065
:102530000008024010B596B000241294139414942D
:1025400015941094119409940A940B940C940D947E
:102550000E940F942022214601A804F019FB3B4859
:102560003B4B03604460846040F2CF73C3600461FE
:102570004461846101F028FF00284BD14FF480535F
:10258000129312A9314802F02AF8002845D12F48A9
:1025900001F046FF002843D100231093119310A9A6
:1025A0002A4802F02DF900283DD16023099300222A
:1025B0000A920B920C920D920E920F9209A9234847
:1025C00001F092FF002831D1042209A91F4801F02F
:1025D0008BFF70BB082209A91C4801F085FF58BB7E
:1025E0000C2209A9194801F07FFF40BB0023019389
:1025F00002930393049305934FF4005206920893B9
:1026000001A9124802F042F9E0B91048FFF72AFF89
:1026100016B010BDFFF752FCB0E7FFF74FFCB6E76E
:10262000FFF74CFCB8E7FFF749FCBEE7FFF746FCB5
:10263000CAE7FFF743FCCDE7FFF740FCD0E7FFF721
:102640003DFCD3E7FFF73AFCDFE700BF740300204F
:102650000000014000B58FB000230A930B930C9348
:102660000D930893099301930293039304930593A5
:102670000693079326484FF0804202600922426089
:10268000836042F20F72C2600361836101F09CFEBD
:1026900060BB4FF480530A930AA91D4801F09FFFC5
:1026A00038BB1B4801F0BCFE30BB002308930993E4
:1026B00008A9174802F0A4F808BB6023019300237F
:1026C00002930393059304220DEB0201104801F0DD
:1026D0000BFFB8B9082201A90D4801F005FFA0B908
:1026E0000B48FFF7BFFE0FB05DF804FBFFF7E6FBFA
:1026F000CFE7FFF7E3FBD4E7FFF7E0FBD5E7FFF712
:10270000DDFBDAE7FFF7DAFBE4E7FFF7D7FBE7E704
:102710002C03002000B58FB000230A930B930C9379
:102720000D930893099301930293039304930593E4
:10273000069307932548264A02604360836040F26F
:10274000E732C2600361836101F03EFE58BB4FF483
:1027500080530A930AA91D4801F041FF30BB1B4872
:1027600001F05EFE28BB00230893099308A91748CF
:1027700002F046F800BB6023019300230293039309
:102780000593082201A9114801F0AEFEB8B90C2248
:1027900001A90E4801F0A8FEA0B90C48FFF762FE9F
:1027A0000FB05DF804FBFFF789FBD0E7FFF786FB6E
:1027B000D5E7FFF783FBD6E7FFF780FBDBE7FFF703
:1027C0007DFBE4E7FFF77AFBE7E700BFE4020020C8
:1027D0000004004008B50A480A4B03604FF4E13397
:1027E000436000238360C36003610C224261836104
:1027F000C36102F0A0F900B908BDFFF75FFBFBE77A
:1028000004040020004C004008B50A480A4B03604D
:102810004FF4E133436000238360C36003610C2203
:1028200042618361C36102F056F900B908BDFFF748
:1028300045FBFBE7BC0300200014014000B58BB052
:102840000023059306930793089309930368284A86
:10285000934205D0274A934226D00BB05DF804FB83
:1028600000210191244B1A6C42F400221A641A6C64
:1028700002F400220192019A02911A6B42F00402C2
:102880001A631B6B03F004030293029B4FF48063F3
:10289000059312230693032308930823099305A99C
:1028A000164800F083FFD8E700210391124B5A6CC1
:1028B00042F020025A645A6C02F020020392039AFA
:1028C00004911A6B42F004021A631B6B03F00403B9
:1028D0000493049BC02305930223069303230893C8
:1028E0000823099305A9054800F060FFB5E700BF7C
:1028F000004C004000140140003802400008024033
:10290000FEE7FEE7FEE7FEE7FEE770477047704729
:1029100008B501F007FB08BD08B5034801F039FC14
:10292000024801F036FC08BD740300209C02002020
:1029300008B5024801F02DFC08BD00BF740300205B
:1029400008B5024801F044F908BD00BFF4010020B9
:1029500082B0002100910B4B5A6C42F480425A64C1
:102960005A6C02F480420092009A01911A6C42F073
:1029700080521A641B6C03F080530193019B02B0D8
:10298000704700BF003802404A4B5A6822F4403278
:102990005A605A6841680A435A600268536823F4CF
:1029A0008073536002685368016943EA01235360EE
:1029B0000268536823F0407353600268536881686B
:1029C0000B4353600268936823F4006393600268CA
:1029D0009368C1680B439360826A374B9A4257D021
:1029E0000268936823F07063936002689368816A59
:1029F0000B4393600268936823F04053936002682E
:102A00009368C16A0B4393600268936823F00203E2
:102A1000936002689368017E43EA4103936090F8F3
:102A20002030002B3FD00268536843F400635360AA
:102A30000268536823F46043536001684B68426A3C
:102A4000013A43EA42334B600268D36A23F47003CD
:102A5000D3620168CB6AC269013A43EA0253CB628E
:102A60000268936823F4007393600268936890F897
:102A7000301043EA412393600268936823F4806333
:102A8000936002689368416943EA812393607047C9
:102A90000268936823F0706393600268936823F080
:102AA00040539360B0E70268536823F400635360B7
:102AB000CAE700BF002301400100000F38B310B582
:102AC0000446036C43B1236C13F0100F0BD00120AC
:102AD000002384F83C3010BDFFF7CCFB0023636477
:102AE00084F83C30EFE7236C23F4885323F002038F
:102AF00043F0020323642046FFF746FF0020606492
:102B0000236C23F0030343F001032364E0E7012077
:102B10007047000082B00023019390F83C30012BF5
:102B200000F08980012380F83C3003689A6812F035
:102B3000010F13D19A6842F001029A60414B1B6861
:102B4000414AA2FB03239B0C03EB4303019302E0E6
:102B5000019B013B0193019B002BF9D10268936813
:102B600013F0010F5CD0036C23F4E06323F0010346
:102B700043F480730364536813F4806F05D0036CCF
:102B800023F4405343F480530364036C13F4805FD5
:102B90001BD0436C23F006034364002380F83C30D1
:102BA0006FF022031360294B5B6813F01F0F27D1CE
:102BB0000368274A934211D002F58072934207D0EE
:102BC000244A934214D0002033E000234364E4E716
:102BD00002F50072526812F01F0FF1D19A6812F0DC
:102BE000405F2AD19A6842F080429A60002020E03B
:102BF00002F58072526812F0100FEFD0002018E03A
:102C00000368134A934201D0002012E09A6812F040
:102C1000405F14D19A6842F080429A60002008E038
:102C2000036C43F010030364436C43F001034364FB
:102C3000002002B070470220FBE70020F9E70020E7
:102C4000F7E700BF0800002083DE1B43002301409C
:102C5000002001400022014010B582B0134600223E
:102C6000019290F83C20012A00F0AE800446012237
:102C700080F83C200268906810F0010F13D1906832
:102C800040F001009060534A1068534AA2FB0020B4
:102C9000800C00EB4000019002E0019801380190A7
:102CA00001980028F9D12268906810F4807F03D041
:102CB000906820F4807090602268906810F0010F96
:102CC00077D0206C20F4E06020F0010040F48070A8
:102CD0002064526812F4806F05D0226C22F44052B6
:102CE00042F480522264226C12F4805F36D0626C0F
:102CF00022F006026264002284F83C20A26B37486E
:102D0000D063A26B36481064A26B3648D064226848
:102D10006FF0220010602068426842F080624260DA
:102D20002068826842F48072826020680A4600F15E
:102D30004C01A06B00F016FF2B4B5B6813F01F0FCC
:102D400027D12368294A934211D002F58072934219
:102D500007D0274A934214D0002033E00022626457
:102D6000C9E702F50072526812F01F0FF1D19A689C
:102D700012F0405F2AD19A6842F080429A600020A7
:102D800020E002F58072526812F0100FEFD00020A0
:102D900018E02368154A934201D0002012E09A6897
:102DA00012F0405F14D19A6842F080429A6000208D
:102DB00008E0236C43F010032364636C43F00103C9
:102DC0006364002002B010BD0220FBE70020F9E799
:102DD0000020F7E70800002083DE1B431B2E0008BD
:102DE000F92D0008052E00080023014000200140B5
:102DF000002201407047704708B5806BFFF7FBFF6A
:102E000008BD704708B5806B40230364436C43F0F2
:102E100004034364FFF7F5FF08BD08B50346806B64
:102E2000026C12F0500F25D1036C43F4007303645D
:102E300003689A6812F0405F19D1027EBAB9DA6A63
:102E400012F4700F03D09A6812F4806F0FD15A6891
:102E500022F020025A60036C23F480730364036C35
:102E600013F4805F03D1036C43F001030364FFF7A5
:102E7000C1FF08BD026C12F0100F04D1826BD26C3E
:102E800018469047F5E7FFF7BCFFF2E730B482B091
:102E90000022019290F83C20012A00F0C0800346F5
:102EA000012280F83C200A68092A40D90468E068B9
:102EB00092B202EB42021E3A4FF0070C0CFA02F2F9
:102EC00020EA0202E2601C68E0680A8802EB420223
:102ED0001E3A8D6805FA02F20243E2604A68062A49
:102EE0003CD81C68606B02EB8202053A4FF01F0C65
:102EF0000CFA02F220EA020262631C68606B4A6804
:102F000002EB8202053AB1F800C00CFA02F2024369
:102F100062631868434A904250D01868414A904210
:102F200059D0002083F83C0002B030BC70470468E0
:102F3000206992B202EB42024FF0070C0CFA02F247
:102F400020EA020222611C6820690A8802EB420220
:102F50008D6805FA02F202432261BFE70C2A16D8F7
:102F60001D68286B02EB8202233A1F2404FA02F246
:102F700020EA02022A631D68286B4A6802EB82027B
:102F8000233A0C8804FA02F202432A63C1E71D685F
:102F9000E86A02EB8202413A1F2404FA02F220EAB4
:102FA0000202EA621D68E86A4A6802EB8202413A5C
:102FB0000C8804FA02F20243EA62AAE70A68122ABB
:102FC000ABD1194A506820F400005060506840F4BA
:102FD00080005060A1E70A681448824201D0112A9B
:102FE0009FD1114A506820F480005060506840F42E
:102FF0000000506009680D4A914292D10C4A126853
:103000000C49A1FB0212920C02EB820252000192C7
:10301000019A002A85D0019A013A0192F8E702202C
:1030200082E700BF00200140002301401200001091
:103030000800002083DE1B43002800F09B8070B551
:103040000D4604464F4B1B6803F00F038B4208D21A
:10305000CBB24C4A1370136803F00F038B4240F05D
:103060008B80236813F0020F17D013F0040F04D0E5
:10307000454A936843F4E0539360236813F0080FC4
:1030800004D0414A936843F4604393603E4A936896
:1030900023F0F003A1680B439360236813F0010F42
:1030A00032D06368012B21D09A1E012A25D9364AD5
:1030B000126812F0020F61D033498A6822F00302CD
:1030C00013438B6000F03AFF06462F4B9B6803F0DA
:1030D0000C036268B3EB820F16D000F02FFF801B49
:1030E00041F288339842F0D9032042E0264A126820
:1030F00012F4003FE0D101203BE0234A126812F0B5
:10310000007FD9D1012034E01E4B1B6803F00F0370
:10311000AB4207D9EAB21B4B1A701B6803F00F03CE
:10312000AB422DD1236813F0040F06D0164A9368E2
:1031300023F4E053E1680B439360236813F0080F16
:1031400007D0114A936823F46043216943EAC1031D
:10315000936000F047F80C4B9B68C3F303130B4AD2
:10316000D35CD8400A4B18600A4B186800F09AFEEE
:10317000002070BD012070470120FAE70120F8E728
:103180000120F6E7003C024000380240E8890008D0
:103190000800002004000020014B1868704700BFA1
:1031A0000800002008B5FFF7F7FF044B9B68C3F346
:1031B0008223034AD35CD84008BD00BF00380240D8
:1031C000E089000808B5FFF7E7FF044B9B68C3F3ED
:1031D0004233034AD35CD84008BD00BF00380240E8
:1031E000E089000808B55E4B9B6803F00C03082BD0
:1031F00003D00C2B5BD05B4808BD594B5A6802F0DA
:103200003F025B6813F4800F2CD0554B5868C0F315
:1032100088104FEA401CBCEB000C6EEB0E0E4FEA20
:103220008E1343EA9C634FEA8C11B1EB0C0163EB04
:103230000E03DB0043EA5173C90011EB000C43F1AC
:103240000003990200234FEA8C2041EA9C51FDF7CC
:103250001BFD434B5B68C3F3014301335B00B0FBD1
:10326000F3F0C9E73E4B5868C0F388104FEA401CA2
:10327000BCEB000C6EEB0E0E4FEA8E1343EA9C6320
:103280004FEA8C11B1EB0C0163EB0E03DB0043EA58
:103290005173C90011EB000C43F1000399020023A4
:1032A0004FEA8C2041EA9C51FDF7EEFCD1E72C4B14
:1032B0005A6802F03F025B6813F4800F2AD0284B53
:1032C0005868C0F388104FEA401CBCEB000C6EEB52
:1032D0000E0E4FEA8E1343EA9C634FEA8C11B1EB5A
:1032E0000C0163EB0E03DB0043EA5173C90011EBE1
:1032F000000C43F10003990200234FEA8C2041EABD
:103300009C51FDF7C1FC164B5B68C3F30273B0FB25
:10331000F3F071E7124B5868C0F388104FEA401C75
:10332000BCEB000C6EEB0E0E4FEA8E1343EA9C636F
:103330004FEA8C11B1EB0C0163EB0E03DB0043EAA7
:103340005173C90011EB000C43F1000399020023F3
:103350004FEA8C2041EA9C51FDF796FCD3E700BF71
:10336000003802400024F400002800F0018270B50B
:1033700082B00446036813F0010F41D0994B9B685B
:1033800003F00C03042B32D0964B9B6803F00C0324
:10339000082B27D0934B9B6803F00C030C2B59D0C0
:1033A0006368B3F5803F5BD0B3F5A02F5ED08D4B43
:1033B0001A6822F480321A601A6822F480221A6095
:1033C0006368002B5CD000F0B9FD0546854B1B6897
:1033D00013F4003F14D100F0B1FD401B6428F5D96F
:1033E0000320CCE17F4B5B6813F4800FD2D07D4B80
:1033F0001B6813F4003F03D06368002B00F0BA8110
:10340000236813F0020F60D0764B9B6813F00C0F0B
:103410004AD0744B9B6803F00C03082B3FD0714BD0
:103420009B6803F00C030C2B69D0E368002B75D06C
:103430006D4B01221A6000F081FD0546694B1B6847
:1034400013F0020F61D100F079FD401B0228F5D97D
:10345000032094E1634B5B6813F4800FA0D0C6E7B0
:10346000604A136843F480331360A9E75D4B1A6820
:1034700042F480221A601A6842F480321A609FE790
:1034800000F05CFD0546574B1B6813F4003FB7D0B6
:1034900000F054FD401B6428F5D903206FE1514B27
:1034A0005B6813F4800FBAD14E4B1B6813F0020F08
:1034B00003D0E368012B40F05F814A4A136823F090
:1034C000F803216943EAC1031360236813F0080F6E
:1034D00049D06369002B33D0434B0122C3F8802EBF
:1034E00000F02CFD05463F4B5B6F13F0020F3AD105
:1034F00000F024FD401B0228F5D903203FE1394BA1
:103500005B6813F4800F90D1CEE7364A136823F03E
:10351000F803216943EAC1031360D6E7324B002266
:103520001A6000F00BFD05462E4B1B6813F0020FCE
:10353000CBD000F003FD401B0228F5D903201EE18B
:10354000294B0022C3F8802E00F0F8FC0546254BDD
:103550005B6F13F0020F06D000F0F0FC401B022856
:10356000F5D903200BE1236813F0040F76D01D4B2F
:103570001B6C13F0805F33D100230193194B1A6C3D
:1035800042F080521A641B6C03F080530193019B3C
:103590000125164B1B6813F4807F29D0A368012BEB
:1035A0003AD0052B3ED00F4B1A6F22F001021A675A
:1035B0001A6F22F004021A67A368002B3CD000F0B7
:1035C000BDFC0646074B1B6F13F0020F45D100F000
:1035D000B5FC801B41F288339842F3D90320CEE03A
:1035E0000025D6E700380240000047420070004046
:1035F0006B4A136843F48073136000F09FFC064627
:10360000674B1B6813F4807FC8D100F097FC801BC8
:103610000228F5D90320B2E0624A136F43F0010398
:103620001367C9E75F4B1A6F42F004021A671A6FFB
:1036300042F001021A67BFE700F080FC0646594BD2
:103640001B6F13F0020F08D000F078FC801B41F2D2
:1036500088339842F3D9032091E0EDB9A369002B98
:1036600000F08C804F4A926802F00C02082A54D075
:10367000022B17D04C4B00221A6600F05FFC044668
:10368000484B1B6813F0007F45D000F057FC001B2F
:103690000228F5D9032072E0424A136C23F08053CC
:1036A0001364DBE7404B00221A6600F047FC054636
:1036B0003C4B1B6813F0007F06D000F03FFC401B22
:1036C0000228F5D903205AE0E369226A1343626AAB
:1036D00043EA8213A26A5208013A43EA0243E26AC9
:1036E00043EA0263226B43EA02732E4A53602E4B75
:1036F00001221A6600F022FC04462A4B1B6813F0D4
:10370000007F06D100F01AFC001B0228F5D9032027
:1037100035E0002033E0002031E0012B31D0214B97
:103720005B6803F48001E26991422CD103F03F020F
:10373000216A8A4229D1616A47F6C0721A40B2EB07
:10374000811F24D103F44031A26A5208013AB1EB3F
:10375000024F1ED103F07062E16AB2EB016F1AD121
:1037600003F0E043226BB3EB027F16D1002006E0AA
:1037700001207047012002E0012000E0002002B09B
:1037800070BD0120FBE70120F9E70120F7E70120E8
:10379000F5E70120F3E70120F1E70120EFE700BFA3
:1037A00000700040003802400000474200230F2B09
:1037B00000F2E38070B582B065E085684FEA430EA1
:1037C000032404FA0EF425EA0405CC6804FA0EF486
:1037D0002C438460446824EA02044A68C2F300125D
:1037E0009A40224342605CE0DC08083450F8242010
:1037F00003F00705AD004FF00F0E0EFA05FE22EAAA
:103800000E0E0A69AA4042EA0E0240F824205CE04B
:10381000062200E0002202FA0EF22A430234574D3B
:1038200045F82420564A94686FEA0C0224EA0C05F5
:103830004E6816F4801F01D04CEA0405504CA56078
:10384000E46802EA04054E6816F4001F01D04CEA51
:1038500004054B4CE560646802EA04054E6816F402
:10386000003F01D04CEA0405454C656024682240C5
:103870004D6815F4803F01D04CEA0402404C2260B0
:1038800001330F2B77D801229A400C6804EA020C0E
:1038900032EA0404F4D14C6804F00304013C012C26
:1038A0008BD94A6802F00302032A09D0C4685D007C
:1038B0000322AA4024EA02048A68AA402243C26082
:1038C0004A6802F00302022A8ED004684FEA430ECF
:1038D000032202FA0EF224EA02044A6802F003020A
:1038E00002FA0EF2224302604A6812F4403FC7D047
:1038F00000220192234A546C44F480445464526C74
:1039000002F480420192019A9C08A51C1B4A52F8BD
:10391000255003F0030E4FEA8E0E0F2202FA0EF22C
:1039200025EA0205184A90423FF474AF02F580621E
:10393000904216D002F58062904214D002F5806267
:10394000904212D002F58062904210D002F580625F
:1039500090420ED002F5806290423FF459AF0722A8
:1039600059E7012257E7022255E7032253E70422D1
:1039700051E705224FE702B070BD704700380140A3
:10398000003C014000380240000002400AB1816161
:10399000704709048161704730B405682C6824F4CD
:1039A00080242C60046863608368402B05D0036822
:1039B00099600368DA6030BC704703689A600368F6
:1039C000D960F8E710B40368D9B210390C4AA2FBE9
:1039D000014212090B4CA25CC2655F2909D923F48C
:1039E0007F7323F0030304338365806D5DF8044B1C
:1039F000704723F47F7323F003038365F5E700BF6B
:103A0000ABAAAAAAD8890008836A826992B9012B55
:103A10000AD0022B02D00BB100207047C36A13F00A
:103A2000807F28D100207047C36AB3F1C07F24D0C3
:103A300000207047B2F5005F09D0022B25D9032B77
:103A400025D1C36A13F0807F23D100207047032B58
:103A500003D8DFE803F01404140A00207047C36A97
:103A600013F0807F0DD100207047C36AB3F1C07F8F
:103A700009D00020704701207047012070470120C5
:103A800070470120704701207047012070470020D7
:103A9000704701207047000070B5044600F04EFAF0
:103AA000002C5BD00546022384F83530002384F8CF
:103AB00034302268136823F00103136023681A6806
:103AC00012F0010F0AD000F039FA431B052BF5D98B
:103AD00020236365032084F8350070BD1A682049EF
:103AE00011406268A0680243E06802432069024313
:103AF00060690243A0690243E0690243206A02430D
:103B00000A43616A04291ED01A602668756925F087
:103B10000705636A1D43042B07D1A36A1D43E36AAB
:103B20001BB12046FFF770FF90B975612046FFF783
:103B300049FFE26D3F2393408360002060650123CD
:103B400084F83530C9E7E16A206B01430A43DBE7BB
:103B500040236365012084F83500BEE70120BCE7FF
:103B60003F8010F038B50446856D90F83400012888
:103B70002BD0012084F8340094F83500C0B201281D
:103B800004D0002384F83430022038BD022084F8A9
:103B90003500002060652046FFF7FEFEE26D3F2302
:103BA0009340AB602268136843F016031360236CE4
:103BB00023B12268136843F0080313602268136876
:103BC00043F0010313600020DFE70220DDE700007F
:103BD000F0B583B0044600230193724B1D68724B0D
:103BE000A3FB0535AD0A876D3E68C26D082393407F
:103BF000334210D003681A6812F0040F0BD01A6811
:103C000022F004021A60C26D08239340BB60436D2A
:103C100043F001034365E26D01239340334209D031
:103C20002268526912F0800F04D0BB60636D43F0CC
:103C300002036365E26D04239340334209D0226896
:103C4000126812F0020F04D0BB60636D43F00403EE
:103C50006365E26D10239340334224D022681268DA
:103C600012F0080F1FD0BB6023681A6812F4802F6F
:103C70000DD01B6813F4002F04D1236C9BB1204698
:103C8000984710E0A36C73B1204698470BE01A6880
:103C900012F4807F03D11A6822F008021A60236CA4
:103CA0000BB120469847E26D20239340334255D014
:103CB0002268126812F0100F50D0BB6094F83530B3
:103CC000DBB2052B0ED023681A6812F4802F33D094
:103CD0001B6813F4002F2AD1636C002B3ED02046C2
:103CE00098473BE02268136823F0160313602268AC
:103CF000536923F080035361236CA3B122681368D6
:103D000023F008031360E26D3F239340BB6001235F
:103D100084F83530002384F83430236D002B3FD0F5
:103D2000204698473CE0A36C002BE7D1EBE7E36B20
:103D3000A3B12046984711E01A6812F4807F09D198
:103D40001A6822F010021A60012384F8353000232B
:103D500084F83430E36B0BB120469847636DFBB1B8
:103D6000636D13F0010F17D0052384F835302268F6
:103D7000136823F001031360019B01330193AB42ED
:103D800004D823681B6813F0010FF5D1012384F8D0
:103D90003530002384F83430E36C0BB1204698476B
:103DA00003B0F0BD08000020B5814E1B002807DBE2
:103DB00000F01F02400901239340024A42F82030DC
:103DC000704700BF00E100E0002808DB0901C9B22C
:103DD00000F1604000F5614080F80013704700F08A
:103DE0000F000901C9B2014B1954704714ED00E0EE
:103DF00000B500F00700C0F1070CBCF1040F28BFAC
:103E00004FF0040C031D062B0FD9C31E4FF0FF3ECD
:103E10000EFA0CF021EA000199400EFA03FE22EAA4
:103E20000E0241EA02005DF804FB0023EEE7000009
:103E3000074AD36823F4E0631B041B0C000200F460
:103E4000E060034343F0BF6343F40033D360704743
:103E500000ED00E010B50446054BD868C0F3022021
:103E6000FFF7C6FF01462046FFF7AEFF10BD00BFBB
:103E700000ED00E008B5FFF799FF08BD0138B0F18B
:103E8000807F0BD24FF0E0235861054AF02182F881
:103E900023100020986107221A61704701207047A3
:103EA00000ED00E010B504460E4B1A784FF47A731B
:103EB000B3FBF2F30C4A1068B0FBF3F0FFF7DEFF40
:103EC00068B90F2C01D901200AE0002221464FF0E9
:103ED000FF30FFF7BFFF054B1C60002000E0012012
:103EE00010BD00BF000000200800002004000020DA
:103EF00008B50B4B1A6842F400721A601A6842F453
:103F000080621A601A6842F480721A600320FFF718
:103F10008FFF0F20FFF7C6FFFEF71AFD002008BD38
:103F2000003C0240034A1168034B1B780B441360AA
:103F3000704700BF4C04002000000020014B1868AF
:103F4000704700BF4C04002038B50446FFF7F6FF69
:103F50000546B4F1FF3F02D0044B1B781C44FFF729
:103F6000EDFF401BA042FAD338BD00BF0000002087
:103F700030B4036A026A22F0010202624268846974
:103F800024F0730C0C6844EA0C0423F0020C8B68D8
:103F900043EA0C03114DA84203D005F58065A84201
:103FA00005D123F00803CD682B4323F004030B4D08
:103FB000A84203D005F58065A84207D122F44072DB
:103FC0004D6945EA020C8A6942EA0C02426084614A
:103FD0004A684263036230BC704700BF0000014082
:103FE00030B4036A026A22F4807202624268C469D1
:103FF00024F0730C0C6844EA0C0523F400738C68FD
:1040000043EA0423114CA04203D004F58064A0428B
:1040100006D123F40063CC6843EA042323F48063CD
:104020000A4CA04203D004F58064A04207D122F4D8
:1040300040524C6942EA04128C6942EA041242601E
:10404000C5614A68C263036230BC7047000001402A
:1040500030B4036A026A22F4805202624468C26980
:1040600022F4E6420D6842EA052223F400538D68EB
:1040700043EA0533094DA84203D005F58065A842FF
:1040800004D124F480444D6944EA85144460C2613B
:104090004A680264036230BC704700BF0000014000
:1040A00010B4036A046A24F001040462846924F0F1
:1040B000F00C4CEA021223F00A030B438261036204
:1040C0005DF8044B704710B4036A046A24F01004CE
:1040D0000462846924F4704C4CEA023223F0A00399
:1040E00043EA0113826103625DF8044B7047836801
:1040F00023F070030B4343F0070383607047000015
:1041000090F83D30DBB2012B37D1022380F83D30EF
:104110000268D36843F00103D3600368194A9342ED
:1041200020D0B3F1804F1DD0A2F57C42934219D02C
:1041300002F58062934215D002F58062934211D05D
:1041400002F5784293420DD002F57052934209D0A5
:10415000A2F59432934205D01A6842F001021A6027
:10416000002070479A6802F00702062A07D01A68F2
:1041700042F001021A6000207047012070470020C1
:10418000704700BF0000014070477047704770479C
:10419000704770B504460368DE681D6915F0020FAC
:1041A00010D016F0020F0DD06FF002021A61012339
:1041B000037703689B6913F0030F5ED0FFF7E6FFF8
:1041C0000023237715F0040F12D016F0040F0FD040
:1041D00023686FF004021A610223237723689B6926
:1041E00013F4407F4FD02046FFF7D0FF0023237702
:1041F00015F0080F12D016F0080F0FD023686FF0DB
:1042000008021A61042323772368DB6913F0030F84
:1042100040D02046FFF7BAFF0023237715F0100F98
:1042200012D016F0100F0FD023686FF010021A6131
:10423000082323772368DB6913F4407F31D02046BD
:10424000FFF7A4FF0023237715F0010F02D016F02B
:10425000010F2DD115F0800F02D016F0800F2FD155
:1042600015F0400F02D016F0400F31D115F0200F9D
:1042700002D016F0200F33D170BDFFF786FF204625
:10428000FFF785FF9CE72046FFF77FFF2046FFF7FB
:104290007EFFABE72046FFF778FF2046FFF777FF6A
:1042A000BAE72046FFF771FF2046FFF770FFC9E726
:1042B00023686FF001021A612046FDF7F5FDC9E79A
:1042C00023686FF080021A61204600F009FBC7E7FF
:1042D00023686FF040021A612046FFF759FFC5E7D7
:1042E00023686FF020021A61204600F0F8FAC3E755
:1042F0000368344A904212D0B0F1804F0FD0A2F53B
:104300007C4290420BD002F58062904207D002F5C9
:104310008062904203D002F57842904203D123F0AC
:1043200070034A681343274A90422AD0B0F1804F65
:1043300027D0A2F57C42904223D002F580629042C1
:104340001FD002F5806290421BD002F57842904265
:1043500017D002F57052904213D002F5806290425D
:104360000FD002F5806290420BD0A2F598329042B5
:1043700007D002F58062904203D002F5806290423D
:1043800003D123F44073CA68134323F080034A69BE
:10439000134303608B68C3620B688362094B9842C6
:1043A00003D003F58063984201D10B6903630123B5
:1043B0004361036913F0010F03D0036923F0010384
:1043C000036170470000014040B310B5044690F807
:1043D0003D30F3B1022384F83D30214651F8040BFF
:1043E000FFF786FF012384F8463084F83E3084F8D6
:1043F0003F3084F8403084F8413084F8423084F80B
:10440000433084F8443084F8453084F83D3000204F
:1044100010BD80F83C30FDF7C1FFDBE7012070479D
:1044200040B310B5044690F83D30F3B1022384F850
:104430003D30214651F8040BFFF75AFF012384F861
:10444000463084F83E3084F83F3084F8403084F8B9
:10445000413084F8423084F8433084F8443084F8A2
:10446000453084F83D30002010BD80F83C30FFF727
:104470008BFEDBE70120704730B4036A026A22F04A
:10448000100202624468826922F4E6420D6842EA40
:10449000052223F020038D6843EA0513114DA8423D
:1044A00003D005F58065A84206D123F08003CD68CE
:1044B00043EA051323F040030A4DA84203D005F553
:1044C0008065A84207D124F440644D6944EA85041C
:1044D0008D6944EA8504446082614A6882630362AC
:1044E00030BC70470000014038B590F83C30012BDB
:1044F00066D004460D46012380F83C300C2A5AD879
:10450000DFE802F0075959591B595959305959597F
:1045100044000068FFF72CFD2268936943F008030C
:1045200093612268936923F004039361226893697D
:1045300029690B43936100203EE00068FFF79CFF70
:104540002268936943F4006393612268936923F4BA
:104550008063936122689369296943EA0123936127
:10456000002029E00068FFF73BFD2268D36943F093
:104570000803D3612268D36923F00403D36122685E
:10458000D36929690B43D361002015E00068FFF768
:104590005FFD2268D36943F40063D3612268D36965
:1045A00023F48063D3612268D369296943EA012334
:1045B000D361002000E00120002384F83C3038BDA6
:1045C0000220FCE710B4846824F47F4C42EA032202
:1045D0000A4342EA0C0282605DF8044B704790F88F
:1045E0003C30012B78D010B50446012380F83C30D4
:1045F000022380F83D300268936823F47F4323F060
:10460000770393600B68602B4CD029D8402B54D093
:104610000CD9502B22D1CA6849680068FFF740FDC9
:1046200050212068FFF763FD002005E0202B0DD00E
:1046300009D9302B0AD00120012384F83D30002312
:1046400084F83C3010BD0BB1102B05D11946206801
:10465000FFF74DFD0020EFE70120EDE70120EBE73C
:10466000B3F5805F34D0B3F5005F0CD1CB684A68F6
:1046700089680068FFF7A6FF2268936843F48043C7
:1046800093600020D8E7702B24D1CB684A688968F2
:104690000068FFF797FF2268936843F07703936001
:1046A0000020C9E7CA6849680068FFF70CFD60216F
:1046B0002068FFF71CFD0020BEE7CA684968006853
:1046C000FFF7EEFC40212068FFF711FD0020B3E763
:1046D0000020B1E70120AFE70220704701F01F0181
:1046E0004FF0010C0CFA01FC036A23EA0C0303628D
:1046F000036A8A40134303627047000010B5044602
:104700000846002942D194F83E30DBB2013B18BF85
:104710000123002B6ED1002851D1022384F83E30B2
:10472000012201462068FFF7D9FF2368334A9342EC
:1047300003D002F58062934203D15A6C42F40042E6
:104740005A6423682D4A934249D0B3F1804F46D032
:10475000A2F57C42934242D002F5806293423ED061
:1047600002F5806293423AD002F57842934236D005
:1047700002F57052934232D0A2F5943293422ED079
:104780001A6842F001021A60002032E0042908D0C1
:1047900008290DD094F84130DBB2013B18BF01234A
:1047A000B7E794F83F30DBB2013B18BF0123B0E715
:1047B00094F84030DBB2013B18BF0123A9E704287D
:1047C00005D0082807D0022384F84130A8E7022347
:1047D00084F83F30A4E7022384F84030A0E79A68C9
:1047E00002F00702062A07D01A6842F001021A6096
:1047F000002010BD0120FCE70020FAE70000014086
:1048000090F83C20012A3DD010B40346012280F8E4
:104810003C20022280F83D2002685068946820F015
:10482000700C086840EA0C0050601A681648824212
:104830001AD0B2F1804F17D0A0F57C40824213D03D
:1048400000F5806082420FD000F5806082420BD07C
:1048500000F57840824207D000F57050824203D0C4
:10486000A0F59430824204D124F0800449682143A9
:104870009160012283F83D20002083F83C005DF820
:10488000044B70470220704700000140024690F838
:104890003C30012B21D0012380F83C30CB6823F43D
:1048A00040738868034323F480634868034323F418
:1048B00000630868034323F480530869034323F427
:1048C00000534869034323F48043C9690B431168CB
:1048D0004B64002082F83C0070470220704770470C
:1048E0007047026802F10C0353E8003F23F4907311
:1048F0000C3242E800310029F3D1026802F11403BE
:1049000053E8003F23F00103143242E8003100294C
:10491000F3D1036B012B05D0202380F84230002314
:1049200003637047026802F10C0353E8003F23F071
:1049300010030C3242E800310029F3D1ECE700000B
:1049400010B504460268136923F44053C1680B4351
:104950001361836802691A4343691A43C3691A439E
:104960000168CB6823F4164323F00C031343CB6098
:104970000268536923F4407381690B4353610368F0
:10498000314A934206D002F58062934202D0FEF78C
:1049900009FC01E0FEF716FCE369B3F5004F29D0EE
:1049A0000021031849411B1841F10001C90041EAE7
:1049B0005371DB00181863684FEA83024FEA937360
:1049C00041F10001FCF760F9204AA2FB00314909DE
:1049D000642303FB11031B013233A2FB03235B0996
:1049E00003F0F00202EB011203F00F0321681344FD
:1049F0008B6010BD0023021843EB0301121841F134
:104A00000001C90041EA5271D200101841F10001C1
:104A1000626892185B41FCF737F90C4AA2FB00313F
:104A20004909642303FB1103DB003233A2FB032398
:104A30005B095A0002F4F87202EB011203F007035B
:104A4000216813448B60D4E7001001401F85EB51AF
:104A50002DE9F04383B005460E4617469946DDF82A
:104A600028802B681C6836EA04040CBF012400244B
:104A7000BC4228D1B8F1FF3FF3D0FFF75FFAA0EBBB
:104A80000900404523D8B8F1000F22D02B68DA681E
:104A900012F0040FE5D0802EE3D0402EE1D01A684A
:104AA00012F0080FDDD0002401941A6801925B68AF
:104AB0000193019B2846FFF714FF08236B6485F8D8
:104AC0004040012000E0002003B0BDE8F083032057
:104AD000FAE70320F8E760B310B5044690F84130D8
:104AE00013B3242384F841302268D36823F400539D
:104AF000D3602046FFF724FF2268136923F4904314
:104B000013612268536923F02A0353612268D36832
:104B100043F40053D36000206064202384F84130C4
:104B200084F84230606310BD80F84030FDF786FEA7
:104B3000D7E701207047002831D010B5044690F81F
:104B400041303BB3242384F841302268D36823F4F6
:104B50000053D3602046FFF7F3FE2268136923F465
:104B6000904313612268536923F022035361226842
:104B7000536943F0080353612268D36843F4005338
:104B8000D36000206064202384F8413084F84230F0
:104B9000606310BD80F84030FDF750FED2E7012081
:104BA00070472DE9F04182B01E4690F84130DBB2EB
:104BB000202B56D104460D469046002955D00AB9FF
:104BC00001204FE000234364212380F84130FFF7A8
:104BD000B5F90746A4F82480A4F82680A368B3F5A5
:104BE000805F02D04FF0000814E023692BB34FF030
:104BF00000080FE0202384F84130032032E038F829
:104C0000023B2268C3F308035360E28C92B2013A7C
:104C100092B2E284E38C9BB293B100963B460022B1
:104C200080212046FFF714FF0028E3D1002DE6D0B5
:104C300015F8012B23685A60E7E7A8460025E9E745
:104C400000963B46002240212046FFF701FF18B99D
:104C5000202384F8413005E0202384F841300320EC
:104C600000E0022002B0BDE8F0810120FAE7000078
:104C7000034AD2F8883043F47003C2F88830704792
:104C800000ED00E010B503460C4A0D490D480068E0
:104C900040B10C4800680344521A934206D8094AAE
:104CA000136010BD0748084C0460F2E701F09EFF56
:104CB0000C2303604FF0FF30F3E700BF0000022039
:104CC0000004000050040020880C002001207047E0
:104CD00008B501F08BFF162303604FF0FF3008BDCD
:104CE00008B54FF0FF31FFF7F3FFFEE770B50C4654
:104CF0001646002506E0AFF30080214601F8010BBF
:104D000001350C46B542F6DB304670BD4FF0FF3042
:104D100070474FF400534B600020704701207047EC
:104D20000020704700B583B000210191094B1A6B38
:104D300042F480021A631B6B03F480030193019B0E
:104D40000A463820FFF786F83820FFF793F803B0BB
:104D50005DF804FB00380240DFF834D0FFF788FF2D
:104D60000C480D490D4A002302E0D458C4500433C6
:104D7000C4188C42F9D30A4A0A4C002301E013609C
:104D80000432A242FBD301F037FFFDF7EDF8704784
:104D90000000022000000020D4010020BC90000888
:104DA000D8010020880C0020FEE70000012800D078
:104DB000704708B54FF6FF73994200D008BD03480D
:104DC00000F0DCFD024800F056F9F7E74809002042
:104DD0005804002038B504461546036809225A6075
:104DE0000268536803FB01112B4B1B68B3FBF1F303
:104DF000013BD3600068FFF7E7FAF0B9A068FBF762
:104E0000A1FB0022254BFBF717FCFBF7C5FE07EEC5
:104E1000900AF8EEE77A636893B923681B68FCEEA2
:104E2000E77AC3ED0D7A2846FFF78EF8636803BB77
:104E300023681B6800225A6338BDFDF73FF8DDE7A1
:104E4000042B08D0082B0DD023681B68FCEEE77AF2
:104E5000C3ED107AE7E723681B68FCEEE77AC3ED41
:104E60000E7AE0E723681B68FCEEE77AC3ED0F7A61
:104E7000D9E7042B06D0082B09D023681B68002231
:104E80001A64D9E723681B6800229A63D4E7236871
:104E90001B680022DA63CFE7080000200000E03F33
:104EA000D0B50446B5EEC00AF1EE10FA10D4F7EE14
:104EB000007AB4EEE70AF1EE10FA02DD00261D4F8B
:104EC00008E010EE100AFBF75FFB06460F4601E014
:104ED00000260027A068FBF735FB32463B46FBF770
:104EE000ABFBFBF759FE07EE900AF8EEE77A636832
:104EF00033B923681B68FCEEE77AC3ED0D7AD0BDA9
:104F0000042B08D0082B0DD023681B68FCEEE77A31
:104F1000C3ED107AF3E723681B68FCEEE77AC3ED74
:104F20000E7AECE723681B68FCEEE77AC3ED0F7A94
:104F3000E5E700BF0000F03F08B51E4A13680133E3
:104F4000136007EE903AF8EEE77A9FED1B7A67EE72
:104F5000877AFDEEE77A17EE900A00F0EDFEB5EEE7
:104F6000C00AF1EE10FA12DD124BD3ED007AF8EE22
:104F7000E77A9FED117A67EE877AFDEEE77A17EE12
:104F8000900A00F0D9FE0D48FFF78AFF08BD094BD3
:104F9000D3ED007AF8EEE77A9FED077A67EE877A2D
:104FA000FDEEE77A17EE900A00F0C6FEB1EE400A79
:104FB000E9E700BF080B0020EC51383EE009002073
:104FC000D0B5234C204600F073FDB7EE000A04F183
:104FD000A800FFF765FFF83432224FF4FA7120463B
:104FE000FFF7F8FE3220FEF7AFFF322240F2DC512D
:104FF0002046FFF7EFFE3220FEF7A6FF002411E067
:1050000000EE104A1348FFF74BFF0A20FEF79CFF03
:105010000BA3D3E9002330463946FBF757F9FBF7DA
:10502000E3FD04462046FBF7AFFA06460F4606A30B
:10503000D3E90023FBF772FD0028E1D1D0BD00BF0A
:10504000FCA9F1D24D62503F7B14AE47E17A843F18
:1050500048090020D009002008B5024800F016F8E1
:10506000FBE700BF5804002008B54FF6FF71012090
:10507000FFF79CFE08BD10B5044600F0A9FE04F140
:10508000080000F07BFC204610BD000038B5044647
:1050900000F0AEFE04F58875284600F0E9FB04F147
:1050A000080000F003FED4ED086A504BC3ED006A1F
:1050B000B4F8C83107EE903AF8EEE77A26EEA77A10
:1050C0009FED4B6A27EE067A4A4B83ED007A4A4BF6
:1050D000D3ED005A75EEE65A67EE867A85EEA76A3A
:1050E000464A82ED006AC3ED006A76EEA67ADFEDED
:1050F000445A27EE257A37EE877AF6EE005A26EEE6
:10510000256A37EE067A3F4B83ED007ABDEEE77AEB
:1051100017EE103A19B2F1EE677AFDEEE77A17EE64
:10512000903A1AB281EAE173A3EBE1739BB24B2B85
:1051300006D993FBF1F303EB8303C3EB031319B21B
:1051400082EAE273A3EBE2739BB24B2B06D993FB8B
:10515000F2F303EB8303C3EB03131AB2F5EEC06A59
:10516000F1EE10FA39DDF2EE047AF4EEE76AF1EED0
:1051700010FA35D55A3109B25A3212B281EAE173C6
:10518000A3EBE1739BB2962B07D993FBF1F303EBEF
:105190008303C3EB03135B0019B282EAE273A3EB50
:1051A000E2739BB2962B07D993FBF2F303EB8303D5
:1051B000C3EB03135B001AB2284600F0ADFB204698
:1051C00000F01CFE80B2A4F8C801632804D8204671
:1051D00000F014FE6328FAD938BDF1EE666AC2E722
:1051E000323109B2323212B2C8E700BF1C0B0020C4
:1051F000BD378635180B00200C0B0020140B002047
:1052000000000000100B002010B504464168006843
:10521000FFF774FA2368DB68A36010BD10B504467D
:10522000016042608360029BC360183000F0D0FDD3
:10523000039B2361049B63610022034BC4E92A237F
:10524000C4E92C23204610BD0000084010B50446D8
:105250000068FFF7D9FF6068FFF7D6FFA068FFF787
:10526000D3FFE068FFF7D0FF10BD00000000000092
:105270002DE9F047824657EC106B55EC114B00229C
:10528000002330463946FBF767FC00287BD0B04648
:10529000B9465EA3D3E9002340464946FBF75CFCD0
:1052A00060B132463B4640464946FBF7EFFA57A30A
:1052B000D3E90023FBF7C0F906460F46002200237E
:1052C00020462946FBF748FC002860D0A046A946A6
:1052D0004EA3D3E9002340464946FBF73DFC60B1AD
:1052E00022462B4640464946FBF7D0FA47A3D3E96E
:1052F0000023FBF7A1F904460D465046FFF7A6FF31
:10530000BAF96830EBB10022002330463946FBF78A
:1053100023FC00283FD0DAF8008037A3D3E900232C
:1053200030463946FBF788F9FBF75EFC00EE100AC1
:105330004046FFF7B5FD9FED340ADAF80400FFF7A9
:10534000AFFDBAF96A30E3B10022002320462946B6
:10535000FBF702FCB0B3DAF8086027A3D3E9002317
:1053600020462946FBF768F9FBF73EFC00EE100AE1
:105370003046FFF795FD9FED240ADAF80C00FFF7A1
:105380008FFDBDE8F087B04607F1004981E7A046F0
:1053900005F100499CE79FED1C0ADAF80000FFF7D1
:1053A0007FFDDAF8048016A3D3E90023304639469E
:1053B000FBF742F9FBF718FC00EE100A4046FFF736
:1053C0006FFDBEE79FED100ADAF80800FFF768FDF1
:1053D000DAF80C600AA3D3E9002320462946FBF73C
:1053E0002BF9FBF701FC00EE100A3046FFF758FDE1
:1053F000C7E700BFAFF30080000000E04D62503F00
:10540000000000E04D6250BF0000000000000000FE
:1054100000C07240000000002DE9F04F2DED048B1C
:1054200085B08246D0E91023D0E90C01FBF76CFB74
:1054300040B1DAE91223DAE90E01FBF765FB002837
:1054400040F0CB810AF11804204600F0D7FC07EEAB
:10545000900AF8EE677A9FEDB07A67EE877A17EEDA
:10546000900AFBF791F8CAE92801204600F0C0FC39
:105470009AED108BDAE90C2351EC180BFAF724FFA4
:1054800006460F46CAE91467DAE91289DAE90E23FB
:1054900040464946FAF718FF04460D46CAE9164544
:1054A0008AED0C8BCAE90E8900220023304639466A
:1054B000FBF752FB002800F09581B046B94690A357
:1054C000D3E9002340464946FBF746FB90B13246FC
:1054D0003B4640464946FBF7D9F98BA3D3E9002365
:1054E000FBF7AAF802460B4630463946FAF7ECFEBF
:1054F000CAE914010022002320462946FBF72CFBB1
:10550000002800F0738126462F467DA3D3E90023AF
:1055100030463946FBF720FB90B122462B463046F9
:105520003946FBF7B3F978A3D3E90023FBF784F8F6
:1055300002460B4620462946FAF7C6FECAE916017E
:10554000DAE9284522462B46DAE91401FBF79EF9F1
:10555000064601F10047CAE9086722462B46DAE908
:105560001601FBF793F980468946CAE90A89BAF918
:1055700068B05846FAF7F6FF02460B463046394601
:10558000FAF7A2FE41EC190BCAE92001BAF96A60E8
:105590003046FAF7E7FF02460B4640464946FAF71F
:1055A00093FE41EC180BCAE92201DAE9248953EC95
:1055B000192B20462946FBF73FF802460B4640468A
:1055C0004946FAF783FECDE90001CAE92401DAE988
:1055D000268953EC182B20462946FBF72DF8024666
:1055E0000B4640464946FAF771FECDE90201CAE989
:1055F0002601DAE92C8942464B46DDE90001FBF73A
:105600001BF804460D4600220023FBF7A5FA0028EC
:1056100000F0F0803EA3D3E9002320462946FBF7A3
:105620009BFAF8B142464B4639A1D1E90001FBF79C
:105630002DF904460D4600220023DDE90001FBF7A9
:105640008BFA002800F0DA80DDE90001DDE90023B3
:10565000FBF71CF902460B4620462946FAF7ECFFF9
:10566000CAE9240142464B46DDE90201FAF7E4FFAC
:1056700004460D4600220023FBF76EFA002800F0D6
:10568000C38023A3D3E9002320462946FBF764FA0D
:10569000F8B142464B461EA1D1E90001FBF7F6F8EE
:1056A00004460D4600220023DDE90201FBF754FA0F
:1056B000002800F0AD80DDE90201DDE90223FBF7FF
:1056C000E5F802460B4620462946FAF7B5FFCAE937
:1056D0002601BBF1000F07D10022104BDAE92401AB
:1056E000FAF7AAFFCAE92401D6B900220B4BDAE97E
:1056F0002601FAF7A1FFCAE9260111E0AFF3008005
:10570000182D4454FB210940182D4454FB21194005
:105710000000000000C07240BD3786350000E03F49
:10572000DAE92A4522462B4651EC190BFAF784FF99
:1057300002460B4600200021FAF7C6FDCDE9000124
:10574000DAE9242340464946FAF776FF02460B463B
:10575000DDE90001FAF7B8FD41EC190BCAE91C01BB
:1057600022462B4651EC180BFAF766FF02460B4611
:1057700000200021FAF7A8FD04460D46DAE92623A9
:1057800040464946FAF758FF02460B46204629464E
:10579000FAF79AFD04460D46CAE91E45BBF1000F13
:1057A00006DD00222F4B51EC190BFBF7B7F9A8BB14
:1057B000002E06DD00222B4B20462946FBF7AEF9D2
:1057C00088BBBBF1000F33DB002E3EDB9AED1E1BC6
:1057D0009AED1C0B5046FFF74BFD05B0BDEC048B5A
:1057E000BDE8F08FB04607F1004968E6264605F1AE
:1057F00000478AE605F100431D460BE7DDE900237B
:10580000104603F1004121E705F100431D4638E74A
:10581000DDE90223104603F100414EE70022114B5F
:10582000CAE91C23C4E700220E4BCAE91E23C8E7BD
:1058300000220D4BDAE91C01FBF78EF90028C3D0DA
:105840000022094BCAE91C23BEE70022064BDAE915
:105850001E01FBF781F90028B8D00022024BCAE9EB
:105860001E23B3E70000F03F0000F0BF000000007F
:1058700002691388002B47D02DE9F04104464569A1
:10588000298800293ED0B0F860108B4201D9A0F8D9
:1058900060302B88B4F862108B4201D9A4F86230D2
:1058A000B2F80080B4F86000FAF75CFE02460B46DE
:1058B00017A1D1E90001FAF7E9FF06460F46404675
:1058C000FAF750FE32463B46FAF7B6FEC4E910013D
:1058D0002D88B4F86200FAF745FE02460B460CA18B
:1058E000D1E90001FAF7D2FF06460F462846FAF73B
:1058F00039FE32463B46FAF79FFEC4E912012046C4
:10590000FFF78AFDBDE8F081704700BFAFF300806C
:10591000182D4454FB211940A0F86810A0F86A2003
:1059200081EAE173A3EBE1739BB2B3F5967F08D9EB
:1059300093FBF1F303EB8303C3EB03139B00A0F88A
:10594000683082EAE273A3EBE2739BB2B3F5967F11
:1059500008D993FBF2F303EB8303C3EB03139B0020
:10596000A0F86A30704710B5044641680068FEF739
:10597000C5FE2368DB68A36010BD0000F0B585B0EC
:105980000446454860620426268500223146FDF71C
:10599000FDFF424DE5621021218600222846FDF7D9
:1059A000F5FF65634021218700222846FDF7EEFFC1
:1059B000E5638021A4F8401000222846FDF7E6FFA9
:1059C00065644FF48071A4F8481000222846FDF762
:1059D000DDFF4FF48052324904F14C0000F08AF9A7
:1059E0000822294604F1600000F084F920222946AB
:1059F00004F1740000F07EF92A4BC4F888300C27BB
:105A0000C4F88C70DA68C4F890202748C4F898006D
:105A1000C4F89C60C568C4F8A050C4F8A830082138
:105A2000C4F8AC10C4F8B020204BC4F8B830002241
:105A3000C4F8BC20DA68C4F8C020C4F8C830C4F880
:105A4000CC60C4F8D020C4F8D830C4F8DC10C4F856
:105A5000E020C4F8E830C4F8EC70C4F8F020C4F8D2
:105A6000F800C4F8FC10C4F8005104F122030293BA
:105A700004F12003019304F1E803009304F1D80337
:105A800004F1C80204F1B80104F58470FFF7C6FB05
:105A9000204605B0F0BD00BF000C024000040240EB
:105AA00000080240E40200202C03002074030020C0
:105AB00038B504461A4801F063F81A4B19681A48B9
:105AC00000F0F6FF194D2846FDF724F80E2218497C
:105AD0002846FDF7C1F8174801F052F804F1880094
